Archive member included to satisfy reference by file (symbol)

c:/st/stm32cubeide_1.6.0/stm32cubeide/plugins/com.st.stm32cube.ide.mcu.externaltools.gnu-tools-for-stm32.9-2020-q2-update.win32_1.5.0.202011040924/tools/bin/../lib/gcc/arm-none-eabi/9.3.1/../../../../arm-none-eabi/lib/thumb/v7-m/nofp\libc_nano.a(lib_a-errno.o)
                              Core/Src/syscalls.o (__errno)
c:/st/stm32cubeide_1.6.0/stm32cubeide/plugins/com.st.stm32cube.ide.mcu.externaltools.gnu-tools-for-stm32.9-2020-q2-update.win32_1.5.0.202011040924/tools/bin/../lib/gcc/arm-none-eabi/9.3.1/../../../../arm-none-eabi/lib/thumb/v7-m/nofp\libc_nano.a(lib_a-exit.o)
                              c:/st/stm32cubeide_1.6.0/stm32cubeide/plugins/com.st.stm32cube.ide.mcu.externaltools.gnu-tools-for-stm32.9-2020-q2-update.win32_1.5.0.202011040924/tools/bin/../lib/gcc/arm-none-eabi/9.3.1/../../../../arm-none-eabi/lib/thumb/v7-m/nofp/crt0.o (exit)
c:/st/stm32cubeide_1.6.0/stm32cubeide/plugins/com.st.stm32cube.ide.mcu.externaltools.gnu-tools-for-stm32.9-2020-q2-update.win32_1.5.0.202011040924/tools/bin/../lib/gcc/arm-none-eabi/9.3.1/../../../../arm-none-eabi/lib/thumb/v7-m/nofp\libc_nano.a(lib_a-impure.o)
                              c:/st/stm32cubeide_1.6.0/stm32cubeide/plugins/com.st.stm32cube.ide.mcu.externaltools.gnu-tools-for-stm32.9-2020-q2-update.win32_1.5.0.202011040924/tools/bin/../lib/gcc/arm-none-eabi/9.3.1/../../../../arm-none-eabi/lib/thumb/v7-m/nofp\libc_nano.a(lib_a-exit.o) (_global_impure_ptr)
c:/st/stm32cubeide_1.6.0/stm32cubeide/plugins/com.st.stm32cube.ide.mcu.externaltools.gnu-tools-for-stm32.9-2020-q2-update.win32_1.5.0.202011040924/tools/bin/../lib/gcc/arm-none-eabi/9.3.1/../../../../arm-none-eabi/lib/thumb/v7-m/nofp\libc_nano.a(lib_a-init.o)
                              c:/st/stm32cubeide_1.6.0/stm32cubeide/plugins/com.st.stm32cube.ide.mcu.externaltools.gnu-tools-for-stm32.9-2020-q2-update.win32_1.5.0.202011040924/tools/bin/../lib/gcc/arm-none-eabi/9.3.1/../../../../arm-none-eabi/lib/thumb/v7-m/nofp/crt0.o (__libc_init_array)
c:/st/stm32cubeide_1.6.0/stm32cubeide/plugins/com.st.stm32cube.ide.mcu.externaltools.gnu-tools-for-stm32.9-2020-q2-update.win32_1.5.0.202011040924/tools/bin/../lib/gcc/arm-none-eabi/9.3.1/../../../../arm-none-eabi/lib/thumb/v7-m/nofp\libc_nano.a(lib_a-memset.o)
                              c:/st/stm32cubeide_1.6.0/stm32cubeide/plugins/com.st.stm32cube.ide.mcu.externaltools.gnu-tools-for-stm32.9-2020-q2-update.win32_1.5.0.202011040924/tools/bin/../lib/gcc/arm-none-eabi/9.3.1/../../../../arm-none-eabi/lib/thumb/v7-m/nofp/crt0.o (memset)
c:/st/stm32cubeide_1.6.0/stm32cubeide/plugins/com.st.stm32cube.ide.mcu.externaltools.gnu-tools-for-stm32.9-2020-q2-update.win32_1.5.0.202011040924/tools/bin/../lib/gcc/arm-none-eabi/9.3.1/../../../../arm-none-eabi/lib/thumb/v7-m/nofp\libc_nano.a(lib_a-strlen.o)
                              Core/Src/lcd_i2c.o (strlen)
c:/st/stm32cubeide_1.6.0/stm32cubeide/plugins/com.st.stm32cube.ide.mcu.externaltools.gnu-tools-for-stm32.9-2020-q2-update.win32_1.5.0.202011040924/tools/bin/../lib/gcc/arm-none-eabi/9.3.1/../../../../arm-none-eabi/lib/thumb/v7-m/nofp\libc_nano.a(lib_a-vsprintf.o)
                              Core/Src/lcd_i2c.o (vsprintf)
c:/st/stm32cubeide_1.6.0/stm32cubeide/plugins/com.st.stm32cube.ide.mcu.externaltools.gnu-tools-for-stm32.9-2020-q2-update.win32_1.5.0.202011040924/tools/bin/../lib/gcc/arm-none-eabi/9.3.1/../../../../arm-none-eabi/lib/thumb/v7-m/nofp\libc_nano.a(lib_a-nano-svfprintf.o)
                              c:/st/stm32cubeide_1.6.0/stm32cubeide/plugins/com.st.stm32cube.ide.mcu.externaltools.gnu-tools-for-stm32.9-2020-q2-update.win32_1.5.0.202011040924/tools/bin/../lib/gcc/arm-none-eabi/9.3.1/../../../../arm-none-eabi/lib/thumb/v7-m/nofp\libc_nano.a(lib_a-vsprintf.o) (_svfprintf_r)
c:/st/stm32cubeide_1.6.0/stm32cubeide/plugins/com.st.stm32cube.ide.mcu.externaltools.gnu-tools-for-stm32.9-2020-q2-update.win32_1.5.0.202011040924/tools/bin/../lib/gcc/arm-none-eabi/9.3.1/../../../../arm-none-eabi/lib/thumb/v7-m/nofp\libc_nano.a(lib_a-nano-vfprintf_i.o)
                              c:/st/stm32cubeide_1.6.0/stm32cubeide/plugins/com.st.stm32cube.ide.mcu.externaltools.gnu-tools-for-stm32.9-2020-q2-update.win32_1.5.0.202011040924/tools/bin/../lib/gcc/arm-none-eabi/9.3.1/../../../../arm-none-eabi/lib/thumb/v7-m/nofp\libc_nano.a(lib_a-nano-svfprintf.o) (_printf_i)
c:/st/stm32cubeide_1.6.0/stm32cubeide/plugins/com.st.stm32cube.ide.mcu.externaltools.gnu-tools-for-stm32.9-2020-q2-update.win32_1.5.0.202011040924/tools/bin/../lib/gcc/arm-none-eabi/9.3.1/../../../../arm-none-eabi/lib/thumb/v7-m/nofp\libc_nano.a(lib_a-memchr-stub.o)
                              c:/st/stm32cubeide_1.6.0/stm32cubeide/plugins/com.st.stm32cube.ide.mcu.externaltools.gnu-tools-for-stm32.9-2020-q2-update.win32_1.5.0.202011040924/tools/bin/../lib/gcc/arm-none-eabi/9.3.1/../../../../arm-none-eabi/lib/thumb/v7-m/nofp\libc_nano.a(lib_a-nano-svfprintf.o) (memchr)
c:/st/stm32cubeide_1.6.0/stm32cubeide/plugins/com.st.stm32cube.ide.mcu.externaltools.gnu-tools-for-stm32.9-2020-q2-update.win32_1.5.0.202011040924/tools/bin/../lib/gcc/arm-none-eabi/9.3.1/../../../../arm-none-eabi/lib/thumb/v7-m/nofp\libc_nano.a(lib_a-memcpy-stub.o)
                              c:/st/stm32cubeide_1.6.0/stm32cubeide/plugins/com.st.stm32cube.ide.mcu.externaltools.gnu-tools-for-stm32.9-2020-q2-update.win32_1.5.0.202011040924/tools/bin/../lib/gcc/arm-none-eabi/9.3.1/../../../../arm-none-eabi/lib/thumb/v7-m/nofp\libc_nano.a(lib_a-nano-svfprintf.o) (memcpy)
c:/st/stm32cubeide_1.6.0/stm32cubeide/plugins/com.st.stm32cube.ide.mcu.externaltools.gnu-tools-for-stm32.9-2020-q2-update.win32_1.5.0.202011040924/tools/bin/../lib/gcc/arm-none-eabi/9.3.1/../../../../arm-none-eabi/lib/thumb/v7-m/nofp\libc_nano.a(lib_a-memmove.o)
                              c:/st/stm32cubeide_1.6.0/stm32cubeide/plugins/com.st.stm32cube.ide.mcu.externaltools.gnu-tools-for-stm32.9-2020-q2-update.win32_1.5.0.202011040924/tools/bin/../lib/gcc/arm-none-eabi/9.3.1/../../../../arm-none-eabi/lib/thumb/v7-m/nofp\libc_nano.a(lib_a-nano-svfprintf.o) (memmove)
c:/st/stm32cubeide_1.6.0/stm32cubeide/plugins/com.st.stm32cube.ide.mcu.externaltools.gnu-tools-for-stm32.9-2020-q2-update.win32_1.5.0.202011040924/tools/bin/../lib/gcc/arm-none-eabi/9.3.1/../../../../arm-none-eabi/lib/thumb/v7-m/nofp\libc_nano.a(lib_a-nano-freer.o)
                              c:/st/stm32cubeide_1.6.0/stm32cubeide/plugins/com.st.stm32cube.ide.mcu.externaltools.gnu-tools-for-stm32.9-2020-q2-update.win32_1.5.0.202011040924/tools/bin/../lib/gcc/arm-none-eabi/9.3.1/../../../../arm-none-eabi/lib/thumb/v7-m/nofp\libc_nano.a(lib_a-nano-svfprintf.o) (_free_r)
c:/st/stm32cubeide_1.6.0/stm32cubeide/plugins/com.st.stm32cube.ide.mcu.externaltools.gnu-tools-for-stm32.9-2020-q2-update.win32_1.5.0.202011040924/tools/bin/../lib/gcc/arm-none-eabi/9.3.1/../../../../arm-none-eabi/lib/thumb/v7-m/nofp\libc_nano.a(lib_a-nano-mallocr.o)
                              c:/st/stm32cubeide_1.6.0/stm32cubeide/plugins/com.st.stm32cube.ide.mcu.externaltools.gnu-tools-for-stm32.9-2020-q2-update.win32_1.5.0.202011040924/tools/bin/../lib/gcc/arm-none-eabi/9.3.1/../../../../arm-none-eabi/lib/thumb/v7-m/nofp\libc_nano.a(lib_a-nano-svfprintf.o) (_malloc_r)
c:/st/stm32cubeide_1.6.0/stm32cubeide/plugins/com.st.stm32cube.ide.mcu.externaltools.gnu-tools-for-stm32.9-2020-q2-update.win32_1.5.0.202011040924/tools/bin/../lib/gcc/arm-none-eabi/9.3.1/../../../../arm-none-eabi/lib/thumb/v7-m/nofp\libc_nano.a(lib_a-nano-reallocr.o)
                              c:/st/stm32cubeide_1.6.0/stm32cubeide/plugins/com.st.stm32cube.ide.mcu.externaltools.gnu-tools-for-stm32.9-2020-q2-update.win32_1.5.0.202011040924/tools/bin/../lib/gcc/arm-none-eabi/9.3.1/../../../../arm-none-eabi/lib/thumb/v7-m/nofp\libc_nano.a(lib_a-nano-svfprintf.o) (_realloc_r)
c:/st/stm32cubeide_1.6.0/stm32cubeide/plugins/com.st.stm32cube.ide.mcu.externaltools.gnu-tools-for-stm32.9-2020-q2-update.win32_1.5.0.202011040924/tools/bin/../lib/gcc/arm-none-eabi/9.3.1/../../../../arm-none-eabi/lib/thumb/v7-m/nofp\libc_nano.a(lib_a-sbrkr.o)
                              c:/st/stm32cubeide_1.6.0/stm32cubeide/plugins/com.st.stm32cube.ide.mcu.externaltools.gnu-tools-for-stm32.9-2020-q2-update.win32_1.5.0.202011040924/tools/bin/../lib/gcc/arm-none-eabi/9.3.1/../../../../arm-none-eabi/lib/thumb/v7-m/nofp\libc_nano.a(lib_a-nano-mallocr.o) (_sbrk_r)
c:/st/stm32cubeide_1.6.0/stm32cubeide/plugins/com.st.stm32cube.ide.mcu.externaltools.gnu-tools-for-stm32.9-2020-q2-update.win32_1.5.0.202011040924/tools/bin/../lib/gcc/arm-none-eabi/9.3.1/../../../../arm-none-eabi/lib/thumb/v7-m/nofp\libc_nano.a(lib_a-mlock.o)
                              c:/st/stm32cubeide_1.6.0/stm32cubeide/plugins/com.st.stm32cube.ide.mcu.externaltools.gnu-tools-for-stm32.9-2020-q2-update.win32_1.5.0.202011040924/tools/bin/../lib/gcc/arm-none-eabi/9.3.1/../../../../arm-none-eabi/lib/thumb/v7-m/nofp\libc_nano.a(lib_a-nano-freer.o) (__malloc_lock)
c:/st/stm32cubeide_1.6.0/stm32cubeide/plugins/com.st.stm32cube.ide.mcu.externaltools.gnu-tools-for-stm32.9-2020-q2-update.win32_1.5.0.202011040924/tools/bin/../lib/gcc/arm-none-eabi/9.3.1/../../../../arm-none-eabi/lib/thumb/v7-m/nofp\libc_nano.a(lib_a-nano-msizer.o)
                              c:/st/stm32cubeide_1.6.0/stm32cubeide/plugins/com.st.stm32cube.ide.mcu.externaltools.gnu-tools-for-stm32.9-2020-q2-update.win32_1.5.0.202011040924/tools/bin/../lib/gcc/arm-none-eabi/9.3.1/../../../../arm-none-eabi/lib/thumb/v7-m/nofp\libc_nano.a(lib_a-nano-reallocr.o) (_malloc_usable_size_r)
c:/st/stm32cubeide_1.6.0/stm32cubeide/plugins/com.st.stm32cube.ide.mcu.externaltools.gnu-tools-for-stm32.9-2020-q2-update.win32_1.5.0.202011040924/tools/bin/../lib/gcc/arm-none-eabi/9.3.1/../../../../arm-none-eabi/lib/thumb/v7-m/nofp\libc_nano.a(lib_a-reent.o)
                              c:/st/stm32cubeide_1.6.0/stm32cubeide/plugins/com.st.stm32cube.ide.mcu.externaltools.gnu-tools-for-stm32.9-2020-q2-update.win32_1.5.0.202011040924/tools/bin/../lib/gcc/arm-none-eabi/9.3.1/../../../../arm-none-eabi/lib/thumb/v7-m/nofp\libc_nano.a(lib_a-sbrkr.o) (errno)
c:/st/stm32cubeide_1.6.0/stm32cubeide/plugins/com.st.stm32cube.ide.mcu.externaltools.gnu-tools-for-stm32.9-2020-q2-update.win32_1.5.0.202011040924/tools/bin/../lib/gcc/arm-none-eabi/9.3.1/../../../../arm-none-eabi/lib/thumb/v7-m/nofp\libc_nano.a(lib_a-lock.o)
                              c:/st/stm32cubeide_1.6.0/stm32cubeide/plugins/com.st.stm32cube.ide.mcu.externaltools.gnu-tools-for-stm32.9-2020-q2-update.win32_1.5.0.202011040924/tools/bin/../lib/gcc/arm-none-eabi/9.3.1/../../../../arm-none-eabi/lib/thumb/v7-m/nofp\libc_nano.a(lib_a-mlock.o) (__retarget_lock_acquire_recursive)
c:/st/stm32cubeide_1.6.0/stm32cubeide/plugins/com.st.stm32cube.ide.mcu.externaltools.gnu-tools-for-stm32.9-2020-q2-update.win32_1.5.0.202011040924/tools/bin/../lib/gcc/arm-none-eabi/9.3.1/../../../../arm-none-eabi/lib/thumb/v7-m/nofp\libm.a(lib_a-w_pow.o)
                              Core/Src/main.o (pow)
c:/st/stm32cubeide_1.6.0/stm32cubeide/plugins/com.st.stm32cube.ide.mcu.externaltools.gnu-tools-for-stm32.9-2020-q2-update.win32_1.5.0.202011040924/tools/bin/../lib/gcc/arm-none-eabi/9.3.1/../../../../arm-none-eabi/lib/thumb/v7-m/nofp\libm.a(lib_a-e_pow.o)
                              c:/st/stm32cubeide_1.6.0/stm32cubeide/plugins/com.st.stm32cube.ide.mcu.externaltools.gnu-tools-for-stm32.9-2020-q2-update.win32_1.5.0.202011040924/tools/bin/../lib/gcc/arm-none-eabi/9.3.1/../../../../arm-none-eabi/lib/thumb/v7-m/nofp\libm.a(lib_a-w_pow.o) (__ieee754_pow)
c:/st/stm32cubeide_1.6.0/stm32cubeide/plugins/com.st.stm32cube.ide.mcu.externaltools.gnu-tools-for-stm32.9-2020-q2-update.win32_1.5.0.202011040924/tools/bin/../lib/gcc/arm-none-eabi/9.3.1/../../../../arm-none-eabi/lib/thumb/v7-m/nofp\libm.a(lib_a-e_sqrt.o)
                              c:/st/stm32cubeide_1.6.0/stm32cubeide/plugins/com.st.stm32cube.ide.mcu.externaltools.gnu-tools-for-stm32.9-2020-q2-update.win32_1.5.0.202011040924/tools/bin/../lib/gcc/arm-none-eabi/9.3.1/../../../../arm-none-eabi/lib/thumb/v7-m/nofp\libm.a(lib_a-e_pow.o) (__ieee754_sqrt)
c:/st/stm32cubeide_1.6.0/stm32cubeide/plugins/com.st.stm32cube.ide.mcu.externaltools.gnu-tools-for-stm32.9-2020-q2-update.win32_1.5.0.202011040924/tools/bin/../lib/gcc/arm-none-eabi/9.3.1/../../../../arm-none-eabi/lib/thumb/v7-m/nofp\libm.a(lib_a-s_fabs.o)
                              c:/st/stm32cubeide_1.6.0/stm32cubeide/plugins/com.st.stm32cube.ide.mcu.externaltools.gnu-tools-for-stm32.9-2020-q2-update.win32_1.5.0.202011040924/tools/bin/../lib/gcc/arm-none-eabi/9.3.1/../../../../arm-none-eabi/lib/thumb/v7-m/nofp\libm.a(lib_a-e_pow.o) (fabs)
c:/st/stm32cubeide_1.6.0/stm32cubeide/plugins/com.st.stm32cube.ide.mcu.externaltools.gnu-tools-for-stm32.9-2020-q2-update.win32_1.5.0.202011040924/tools/bin/../lib/gcc/arm-none-eabi/9.3.1/../../../../arm-none-eabi/lib/thumb/v7-m/nofp\libm.a(lib_a-s_finite.o)
                              c:/st/stm32cubeide_1.6.0/stm32cubeide/plugins/com.st.stm32cube.ide.mcu.externaltools.gnu-tools-for-stm32.9-2020-q2-update.win32_1.5.0.202011040924/tools/bin/../lib/gcc/arm-none-eabi/9.3.1/../../../../arm-none-eabi/lib/thumb/v7-m/nofp\libm.a(lib_a-w_pow.o) (finite)
c:/st/stm32cubeide_1.6.0/stm32cubeide/plugins/com.st.stm32cube.ide.mcu.externaltools.gnu-tools-for-stm32.9-2020-q2-update.win32_1.5.0.202011040924/tools/bin/../lib/gcc/arm-none-eabi/9.3.1/../../../../arm-none-eabi/lib/thumb/v7-m/nofp\libm.a(lib_a-s_lib_ver.o)
                              c:/st/stm32cubeide_1.6.0/stm32cubeide/plugins/com.st.stm32cube.ide.mcu.externaltools.gnu-tools-for-stm32.9-2020-q2-update.win32_1.5.0.202011040924/tools/bin/../lib/gcc/arm-none-eabi/9.3.1/../../../../arm-none-eabi/lib/thumb/v7-m/nofp\libm.a(lib_a-w_pow.o) (__fdlib_version)
c:/st/stm32cubeide_1.6.0/stm32cubeide/plugins/com.st.stm32cube.ide.mcu.externaltools.gnu-tools-for-stm32.9-2020-q2-update.win32_1.5.0.202011040924/tools/bin/../lib/gcc/arm-none-eabi/9.3.1/../../../../arm-none-eabi/lib/thumb/v7-m/nofp\libm.a(lib_a-s_nan.o)
                              c:/st/stm32cubeide_1.6.0/stm32cubeide/plugins/com.st.stm32cube.ide.mcu.externaltools.gnu-tools-for-stm32.9-2020-q2-update.win32_1.5.0.202011040924/tools/bin/../lib/gcc/arm-none-eabi/9.3.1/../../../../arm-none-eabi/lib/thumb/v7-m/nofp\libm.a(lib_a-e_pow.o) (nan)
c:/st/stm32cubeide_1.6.0/stm32cubeide/plugins/com.st.stm32cube.ide.mcu.externaltools.gnu-tools-for-stm32.9-2020-q2-update.win32_1.5.0.202011040924/tools/bin/../lib/gcc/arm-none-eabi/9.3.1/../../../../arm-none-eabi/lib/thumb/v7-m/nofp\libm.a(lib_a-s_rint.o)
                              c:/st/stm32cubeide_1.6.0/stm32cubeide/plugins/com.st.stm32cube.ide.mcu.externaltools.gnu-tools-for-stm32.9-2020-q2-update.win32_1.5.0.202011040924/tools/bin/../lib/gcc/arm-none-eabi/9.3.1/../../../../arm-none-eabi/lib/thumb/v7-m/nofp\libm.a(lib_a-w_pow.o) (rint)
c:/st/stm32cubeide_1.6.0/stm32cubeide/plugins/com.st.stm32cube.ide.mcu.externaltools.gnu-tools-for-stm32.9-2020-q2-update.win32_1.5.0.202011040924/tools/bin/../lib/gcc/arm-none-eabi/9.3.1/../../../../arm-none-eabi/lib/thumb/v7-m/nofp\libm.a(lib_a-s_scalbn.o)
                              c:/st/stm32cubeide_1.6.0/stm32cubeide/plugins/com.st.stm32cube.ide.mcu.externaltools.gnu-tools-for-stm32.9-2020-q2-update.win32_1.5.0.202011040924/tools/bin/../lib/gcc/arm-none-eabi/9.3.1/../../../../arm-none-eabi/lib/thumb/v7-m/nofp\libm.a(lib_a-e_pow.o) (scalbn)
c:/st/stm32cubeide_1.6.0/stm32cubeide/plugins/com.st.stm32cube.ide.mcu.externaltools.gnu-tools-for-stm32.9-2020-q2-update.win32_1.5.0.202011040924/tools/bin/../lib/gcc/arm-none-eabi/9.3.1/thumb/v7-m/nofp\libgcc.a(_arm_muldf3.o)
                              Core/Src/main.o (__aeabi_dmul)
c:/st/stm32cubeide_1.6.0/stm32cubeide/plugins/com.st.stm32cube.ide.mcu.externaltools.gnu-tools-for-stm32.9-2020-q2-update.win32_1.5.0.202011040924/tools/bin/../lib/gcc/arm-none-eabi/9.3.1/thumb/v7-m/nofp\libgcc.a(_arm_mulsf3.o)
                              Core/Src/lcd_i2c.o (__aeabi_fmul)
c:/st/stm32cubeide_1.6.0/stm32cubeide/plugins/com.st.stm32cube.ide.mcu.externaltools.gnu-tools-for-stm32.9-2020-q2-update.win32_1.5.0.202011040924/tools/bin/../lib/gcc/arm-none-eabi/9.3.1/thumb/v7-m/nofp\libgcc.a(_arm_addsubdf3.o)
                              Core/Src/main.o (__aeabi_dsub)
c:/st/stm32cubeide_1.6.0/stm32cubeide/plugins/com.st.stm32cube.ide.mcu.externaltools.gnu-tools-for-stm32.9-2020-q2-update.win32_1.5.0.202011040924/tools/bin/../lib/gcc/arm-none-eabi/9.3.1/thumb/v7-m/nofp\libgcc.a(_arm_muldivdf3.o)
                              c:/st/stm32cubeide_1.6.0/stm32cubeide/plugins/com.st.stm32cube.ide.mcu.externaltools.gnu-tools-for-stm32.9-2020-q2-update.win32_1.5.0.202011040924/tools/bin/../lib/gcc/arm-none-eabi/9.3.1/../../../../arm-none-eabi/lib/thumb/v7-m/nofp\libm.a(lib_a-w_pow.o) (__aeabi_ddiv)
c:/st/stm32cubeide_1.6.0/stm32cubeide/plugins/com.st.stm32cube.ide.mcu.externaltools.gnu-tools-for-stm32.9-2020-q2-update.win32_1.5.0.202011040924/tools/bin/../lib/gcc/arm-none-eabi/9.3.1/thumb/v7-m/nofp\libgcc.a(_arm_cmpdf2.o)
                              c:/st/stm32cubeide_1.6.0/stm32cubeide/plugins/com.st.stm32cube.ide.mcu.externaltools.gnu-tools-for-stm32.9-2020-q2-update.win32_1.5.0.202011040924/tools/bin/../lib/gcc/arm-none-eabi/9.3.1/../../../../arm-none-eabi/lib/thumb/v7-m/nofp\libm.a(lib_a-w_pow.o) (__aeabi_dcmpeq)
c:/st/stm32cubeide_1.6.0/stm32cubeide/plugins/com.st.stm32cube.ide.mcu.externaltools.gnu-tools-for-stm32.9-2020-q2-update.win32_1.5.0.202011040924/tools/bin/../lib/gcc/arm-none-eabi/9.3.1/thumb/v7-m/nofp\libgcc.a(_arm_unorddf2.o)
                              c:/st/stm32cubeide_1.6.0/stm32cubeide/plugins/com.st.stm32cube.ide.mcu.externaltools.gnu-tools-for-stm32.9-2020-q2-update.win32_1.5.0.202011040924/tools/bin/../lib/gcc/arm-none-eabi/9.3.1/../../../../arm-none-eabi/lib/thumb/v7-m/nofp\libm.a(lib_a-w_pow.o) (__aeabi_dcmpun)
c:/st/stm32cubeide_1.6.0/stm32cubeide/plugins/com.st.stm32cube.ide.mcu.externaltools.gnu-tools-for-stm32.9-2020-q2-update.win32_1.5.0.202011040924/tools/bin/../lib/gcc/arm-none-eabi/9.3.1/thumb/v7-m/nofp\libgcc.a(_arm_fixunsdfsi.o)
                              Core/Src/main.o (__aeabi_d2uiz)
c:/st/stm32cubeide_1.6.0/stm32cubeide/plugins/com.st.stm32cube.ide.mcu.externaltools.gnu-tools-for-stm32.9-2020-q2-update.win32_1.5.0.202011040924/tools/bin/../lib/gcc/arm-none-eabi/9.3.1/thumb/v7-m/nofp\libgcc.a(_arm_truncdfsf2.o)
                              Core/Src/main.o (__aeabi_d2f)
c:/st/stm32cubeide_1.6.0/stm32cubeide/plugins/com.st.stm32cube.ide.mcu.externaltools.gnu-tools-for-stm32.9-2020-q2-update.win32_1.5.0.202011040924/tools/bin/../lib/gcc/arm-none-eabi/9.3.1/thumb/v7-m/nofp\libgcc.a(_arm_addsubsf3.o)
                              Core/Src/sensores.o (__aeabi_ui2f)
c:/st/stm32cubeide_1.6.0/stm32cubeide/plugins/com.st.stm32cube.ide.mcu.externaltools.gnu-tools-for-stm32.9-2020-q2-update.win32_1.5.0.202011040924/tools/bin/../lib/gcc/arm-none-eabi/9.3.1/thumb/v7-m/nofp\libgcc.a(_arm_cmpsf2.o)
                              Core/Src/lcd_i2c.o (__aeabi_fcmplt)
c:/st/stm32cubeide_1.6.0/stm32cubeide/plugins/com.st.stm32cube.ide.mcu.externaltools.gnu-tools-for-stm32.9-2020-q2-update.win32_1.5.0.202011040924/tools/bin/../lib/gcc/arm-none-eabi/9.3.1/thumb/v7-m/nofp\libgcc.a(_arm_fixsfsi.o)
                              Core/Src/lcd_i2c.o (__aeabi_f2iz)

Allocating common symbols
Common symbol       size              file

OSTmrFreeList       0x4               Micrium/Software/uCOS-II/Source/os_core.o
OSTmrWheelTbl       0x38              Micrium/Software/uCOS-II/Source/os_core.o
__lock___atexit_recursive_mutex
                    0x1               c:/st/stm32cubeide_1.6.0/stm32cubeide/plugins/com.st.stm32cube.ide.mcu.externaltools.gnu-tools-for-stm32.9-2020-q2-update.win32_1.5.0.202011040924/tools/bin/../lib/gcc/arm-none-eabi/9.3.1/../../../../arm-none-eabi/lib/thumb/v7-m/nofp\libc_nano.a(lib_a-lock.o)
OSLockNesting       0x1               Micrium/Software/uCOS-II/Source/os_core.o
OSTmrSemSignal      0x4               Micrium/Software/uCOS-II/Source/os_core.o
OSTaskRegNextAvailID
                    0x1               Micrium/Software/uCOS-II/Source/os_core.o
OSRunning           0x1               Micrium/Software/uCOS-II/Source/os_core.o
__lock___arc4random_mutex
                    0x1               c:/st/stm32cubeide_1.6.0/stm32cubeide/plugins/com.st.stm32cube.ide.mcu.externaltools.gnu-tools-for-stm32.9-2020-q2-update.win32_1.5.0.202011040924/tools/bin/../lib/gcc/arm-none-eabi/9.3.1/../../../../arm-none-eabi/lib/thumb/v7-m/nofp\libc_nano.a(lib_a-lock.o)
OSIdleCtr           0x4               Micrium/Software/uCOS-II/Source/os_core.o
OSTmrUsed           0x2               Micrium/Software/uCOS-II/Source/os_core.o
OSPrioHighRdy       0x1               Micrium/Software/uCOS-II/Source/os_core.o
errno               0x4               c:/st/stm32cubeide_1.6.0/stm32cubeide/plugins/com.st.stm32cube.ide.mcu.externaltools.gnu-tools-for-stm32.9-2020-q2-update.win32_1.5.0.202011040924/tools/bin/../lib/gcc/arm-none-eabi/9.3.1/../../../../arm-none-eabi/lib/thumb/v7-m/nofp\libc_nano.a(lib_a-reent.o)
hi2c1               0x54              Core/Src/main.o
OSFlagTbl           0x50              Micrium/Software/uCOS-II/Source/os_core.o
OSTmrTbl            0x280             Micrium/Software/uCOS-II/Source/os_core.o
Mem_SegHeadPtr      0x4               Micrium/Software/uC-LIB/lib_mem.o
OSPrioCur           0x1               Micrium/Software/uCOS-II/Source/os_core.o
Math_RandSeedCur    0x4               Micrium/Software/uC-LIB/lib_math.o
Rh_byte1            0x1               Core/Src/sensores.o
OSTCBList           0x4               Micrium/Software/uCOS-II/Source/os_core.o
OSMemTbl            0x78              Micrium/Software/uCOS-II/Source/os_core.o
OSTickStepState     0x1               Micrium/Software/uCOS-II/Source/os_core.o
RH                  0x2               Core/Src/sensores.o
OSTaskStatStk       0x200             Micrium/Software/uCOS-II/Source/os_core.o
uwTick              0x4               Drivers/STM32F1xx_HAL_Driver/Src/stm32f1xx_hal.o
litros              0x20              Core/Src/main.o
OSCtxSwCtr          0x4               Micrium/Software/uCOS-II/Source/os_core.o
pFlash              0x20              Drivers/STM32F1xx_HAL_Driver/Src/stm32f1xx_hal_flash.o
__lock___env_recursive_mutex
                    0x1               c:/st/stm32cubeide_1.6.0/stm32cubeide/plugins/com.st.stm32cube.ide.mcu.externaltools.gnu-tools-for-stm32.9-2020-q2-update.win32_1.5.0.202011040924/tools/bin/../lib/gcc/arm-none-eabi/9.3.1/../../../../arm-none-eabi/lib/thumb/v7-m/nofp\libc_nano.a(lib_a-lock.o)
__lock___sinit_recursive_mutex
                    0x1               c:/st/stm32cubeide_1.6.0/stm32cubeide/plugins/com.st.stm32cube.ide.mcu.externaltools.gnu-tools-for-stm32.9-2020-q2-update.win32_1.5.0.202011040924/tools/bin/../lib/gcc/arm-none-eabi/9.3.1/../../../../arm-none-eabi/lib/thumb/v7-m/nofp\libc_nano.a(lib_a-lock.o)
OSTmrFree           0x2               Micrium/Software/uCOS-II/Source/os_core.o
OSIdleCtrMax        0x4               Micrium/Software/uCOS-II/Source/os_core.o
TEMP                0x2               Core/Src/sensores.o
__lock___malloc_recursive_mutex
                    0x1               c:/st/stm32cubeide_1.6.0/stm32cubeide/plugins/com.st.stm32cube.ide.mcu.externaltools.gnu-tools-for-stm32.9-2020-q2-update.win32_1.5.0.202011040924/tools/bin/../lib/gcc/arm-none-eabi/9.3.1/../../../../arm-none-eabi/lib/thumb/v7-m/nofp\libc_nano.a(lib_a-lock.o)
OSTCBFreeList       0x4               Micrium/Software/uCOS-II/Source/os_core.o
hadc1               0x30              Core/Src/main.o
OS_CPU_ExceptStkBase
                    0x4               Micrium/Software/uCOS-II/Ports/ARM-Cortex-M/ARMv7-M/os_cpu_c.o
OSCPUUsage          0x1               Micrium/Software/uCOS-II/Source/os_core.o
Temp_byte1          0x1               Core/Src/sensores.o
OSTaskCtr           0x1               Micrium/Software/uCOS-II/Source/os_core.o
OSMemFreeList       0x4               Micrium/Software/uCOS-II/Source/os_core.o
OSQTbl              0x60              Micrium/Software/uCOS-II/Source/os_core.o
OSTCBHighRdy        0x4               Micrium/Software/uCOS-II/Source/os_core.o
OSQFreeList         0x4               Micrium/Software/uCOS-II/Source/os_core.o
OSRdyGrp            0x1               Micrium/Software/uCOS-II/Source/os_core.o
Rh_byte2            0x1               Core/Src/sensores.o
htim1               0x48              Core/Src/main.o
OSRdyTbl            0x8               Micrium/Software/uCOS-II/Source/os_core.o
OS_KA_BASEPRI_Boundary
                    0x4               Micrium/Software/uCOS-II/Ports/ARM-Cortex-M/ARMv7-M/os_cpu_c.o
OSTmrTaskStk        0x200             Micrium/Software/uCOS-II/Source/os_core.o
OSEventFreeList     0x4               Micrium/Software/uCOS-II/Source/os_core.o
OS_CPU_ExceptStk    0x400             Micrium/Software/uCOS-II/Ports/ARM-Cortex-M/ARMv7-M/os_cpu_c.o
OSIntNesting        0x1               Micrium/Software/uCOS-II/Source/os_core.o
__lock___at_quick_exit_mutex
                    0x1               c:/st/stm32cubeide_1.6.0/stm32cubeide/plugins/com.st.stm32cube.ide.mcu.externaltools.gnu-tools-for-stm32.9-2020-q2-update.win32_1.5.0.202011040924/tools/bin/../lib/gcc/arm-none-eabi/9.3.1/../../../../arm-none-eabi/lib/thumb/v7-m/nofp\libc_nano.a(lib_a-lock.o)
OSTCBCur            0x4               Micrium/Software/uCOS-II/Source/os_core.o
SUM                 0x2               Core/Src/sensores.o
OSTmrTime           0x4               Micrium/Software/uCOS-II/Source/os_core.o
OSTime              0x4               Micrium/Software/uCOS-II/Source/os_core.o
OSTmrSem            0x4               Micrium/Software/uCOS-II/Source/os_core.o
OSTaskIdleStk       0x200             Micrium/Software/uCOS-II/Source/os_core.o
__lock___dd_hash_mutex
                    0x1               c:/st/stm32cubeide_1.6.0/stm32cubeide/plugins/com.st.stm32cube.ide.mcu.externaltools.gnu-tools-for-stm32.9-2020-q2-update.win32_1.5.0.202011040924/tools/bin/../lib/gcc/arm-none-eabi/9.3.1/../../../../arm-none-eabi/lib/thumb/v7-m/nofp\libc_nano.a(lib_a-lock.o)
__lock___tz_mutex   0x1               c:/st/stm32cubeide_1.6.0/stm32cubeide/plugins/com.st.stm32cube.ide.mcu.externaltools.gnu-tools-for-stm32.9-2020-q2-update.win32_1.5.0.202011040924/tools/bin/../lib/gcc/arm-none-eabi/9.3.1/../../../../arm-none-eabi/lib/thumb/v7-m/nofp\libc_nano.a(lib_a-lock.o)
OSEventTbl          0xf0              Micrium/Software/uCOS-II/Source/os_core.o
OSTCBTbl            0x790             Micrium/Software/uCOS-II/Source/os_core.o
Temp_byte2          0x1               Core/Src/sensores.o
hora_button         0x8               Core/Src/main.o
OSFlagFreeList      0x4               Micrium/Software/uCOS-II/Source/os_core.o
OSStatRdy           0x1               Micrium/Software/uCOS-II/Source/os_core.o
OSTCBPrioTbl        0x100             Micrium/Software/uCOS-II/Source/os_core.o
minutos_button      0x8               Core/Src/main.o
OSIdleCtrRun        0x4               Micrium/Software/uCOS-II/Source/os_core.o
__lock___sfp_recursive_mutex
                    0x1               c:/st/stm32cubeide_1.6.0/stm32cubeide/plugins/com.st.stm32cube.ide.mcu.externaltools.gnu-tools-for-stm32.9-2020-q2-update.win32_1.5.0.202011040924/tools/bin/../lib/gcc/arm-none-eabi/9.3.1/../../../../arm-none-eabi/lib/thumb/v7-m/nofp\libc_nano.a(lib_a-lock.o)

Discarded input sections

 .text          0x0000000000000000        0x0 c:/st/stm32cubeide_1.6.0/stm32cubeide/plugins/com.st.stm32cube.ide.mcu.externaltools.gnu-tools-for-stm32.9-2020-q2-update.win32_1.5.0.202011040924/tools/bin/../lib/gcc/arm-none-eabi/9.3.1/thumb/v7-m/nofp/crti.o
 .data          0x0000000000000000        0x0 c:/st/stm32cubeide_1.6.0/stm32cubeide/plugins/com.st.stm32cube.ide.mcu.externaltools.gnu-tools-for-stm32.9-2020-q2-update.win32_1.5.0.202011040924/tools/bin/../lib/gcc/arm-none-eabi/9.3.1/thumb/v7-m/nofp/crti.o
 .bss           0x0000000000000000        0x0 c:/st/stm32cubeide_1.6.0/stm32cubeide/plugins/com.st.stm32cube.ide.mcu.externaltools.gnu-tools-for-stm32.9-2020-q2-update.win32_1.5.0.202011040924/tools/bin/../lib/gcc/arm-none-eabi/9.3.1/thumb/v7-m/nofp/crti.o
 .data          0x0000000000000000        0x4 c:/st/stm32cubeide_1.6.0/stm32cubeide/plugins/com.st.stm32cube.ide.mcu.externaltools.gnu-tools-for-stm32.9-2020-q2-update.win32_1.5.0.202011040924/tools/bin/../lib/gcc/arm-none-eabi/9.3.1/thumb/v7-m/nofp/crtbegin.o
 .text          0x0000000000000000       0x7c c:/st/stm32cubeide_1.6.0/stm32cubeide/plugins/com.st.stm32cube.ide.mcu.externaltools.gnu-tools-for-stm32.9-2020-q2-update.win32_1.5.0.202011040924/tools/bin/../lib/gcc/arm-none-eabi/9.3.1/../../../../arm-none-eabi/lib/thumb/v7-m/nofp/crt0.o
 .data          0x0000000000000000        0x0 c:/st/stm32cubeide_1.6.0/stm32cubeide/plugins/com.st.stm32cube.ide.mcu.externaltools.gnu-tools-for-stm32.9-2020-q2-update.win32_1.5.0.202011040924/tools/bin/../lib/gcc/arm-none-eabi/9.3.1/../../../../arm-none-eabi/lib/thumb/v7-m/nofp/crt0.o
 .bss           0x0000000000000000        0x0 c:/st/stm32cubeide_1.6.0/stm32cubeide/plugins/com.st.stm32cube.ide.mcu.externaltools.gnu-tools-for-stm32.9-2020-q2-update.win32_1.5.0.202011040924/tools/bin/../lib/gcc/arm-none-eabi/9.3.1/../../../../arm-none-eabi/lib/thumb/v7-m/nofp/crt0.o
 .ARM.extab     0x0000000000000000        0x0 c:/st/stm32cubeide_1.6.0/stm32cubeide/plugins/com.st.stm32cube.ide.mcu.externaltools.gnu-tools-for-stm32.9-2020-q2-update.win32_1.5.0.202011040924/tools/bin/../lib/gcc/arm-none-eabi/9.3.1/../../../../arm-none-eabi/lib/thumb/v7-m/nofp/crt0.o
 .ARM.exidx     0x0000000000000000       0x10 c:/st/stm32cubeide_1.6.0/stm32cubeide/plugins/com.st.stm32cube.ide.mcu.externaltools.gnu-tools-for-stm32.9-2020-q2-update.win32_1.5.0.202011040924/tools/bin/../lib/gcc/arm-none-eabi/9.3.1/../../../../arm-none-eabi/lib/thumb/v7-m/nofp/crt0.o
 .ARM.attributes
                0x0000000000000000       0x1b c:/st/stm32cubeide_1.6.0/stm32cubeide/plugins/com.st.stm32cube.ide.mcu.externaltools.gnu-tools-for-stm32.9-2020-q2-update.win32_1.5.0.202011040924/tools/bin/../lib/gcc/arm-none-eabi/9.3.1/../../../../arm-none-eabi/lib/thumb/v7-m/nofp/crt0.o
 .group         0x0000000000000000        0xc Core/Src/lcd_i2c.o
 .group         0x0000000000000000        0xc Core/Src/lcd_i2c.o
 .group         0x0000000000000000        0xc Core/Src/lcd_i2c.o
 .group         0x0000000000000000        0xc Core/Src/lcd_i2c.o
 .group         0x0000000000000000        0xc Core/Src/lcd_i2c.o
 .group         0x0000000000000000        0xc Core/Src/lcd_i2c.o
 .group         0x0000000000000000        0xc Core/Src/lcd_i2c.o
Memory Configuration

Name             Origin             Length             Attributes
RAM              0x0000000020000000 0x0000000000005000 xrw
FLASH            0x0000000008000000 0x0000000000010000 xr
*default*        0x0000000000000000 0xffffffffffffffff

Linker script and memory map

LOAD c:/st/stm32cubeide_1.6.0/stm32cubeide/plugins/com.st.stm32cube.ide.mcu.externaltools.gnu-tools-for-stm32.9-2020-q2-update.win32_1.5.0.202011040924/tools/bin/../lib/gcc/arm-none-eabi/9.3.1/thumb/v7-m/nofp/crti.o
LOAD c:/st/stm32cubeide_1.6.0/stm32cubeide/plugins/com.st.stm32cube.ide.mcu.externaltools.gnu-tools-for-stm32.9-2020-q2-update.win32_1.5.0.202011040924/tools/bin/../lib/gcc/arm-none-eabi/9.3.1/thumb/v7-m/nofp/crtbegin.o
LOAD c:/st/stm32cubeide_1.6.0/stm32cubeide/plugins/com.st.stm32cube.ide.mcu.externaltools.gnu-tools-for-stm32.9-2020-q2-update.win32_1.5.0.202011040924/tools/bin/../lib/gcc/arm-none-eabi/9.3.1/../../../../arm-none-eabi/lib/thumb/v7-m/nofp/crt0.o
LOAD Core/Src/lcd_i2c.o
LOAD Core/Src/main.o
LOAD Core/Src/sensores.o
LOAD Core/Src/stm32f1xx_hal_msp.o
LOAD Core/Src/stm32f1xx_it.o
LOAD Core/Src/swo_debug.o
LOAD Core/Src/syscalls.o
LOAD Core/Src/sysmem.o
LOAD Core/Src/system_stm32f1xx.o
LOAD Core/Startup/startup_stm32f103c8tx.o
LOAD Drivers/STM32F1xx_HAL_Driver/Src/stm32f1xx_hal.o
LOAD Drivers/STM32F1xx_HAL_Driver/Src/stm32f1xx_hal_adc.o
LOAD Drivers/STM32F1xx_HAL_Driver/Src/stm32f1xx_hal_adc_ex.o
LOAD Drivers/STM32F1xx_HAL_Driver/Src/stm32f1xx_hal_cortex.o
LOAD Drivers/STM32F1xx_HAL_Driver/Src/stm32f1xx_hal_dma.o
LOAD Drivers/STM32F1xx_HAL_Driver/Src/stm32f1xx_hal_exti.o
LOAD Drivers/STM32F1xx_HAL_Driver/Src/stm32f1xx_hal_flash.o
LOAD Drivers/STM32F1xx_HAL_Driver/Src/stm32f1xx_hal_flash_ex.o
LOAD Drivers/STM32F1xx_HAL_Driver/Src/stm32f1xx_hal_gpio.o
LOAD Drivers/STM32F1xx_HAL_Driver/Src/stm32f1xx_hal_gpio_ex.o
LOAD Drivers/STM32F1xx_HAL_Driver/Src/stm32f1xx_hal_i2c.o
LOAD Drivers/STM32F1xx_HAL_Driver/Src/stm32f1xx_hal_pwr.o
LOAD Drivers/STM32F1xx_HAL_Driver/Src/stm32f1xx_hal_rcc.o
LOAD Drivers/STM32F1xx_HAL_Driver/Src/stm32f1xx_hal_rcc_ex.o
LOAD Drivers/STM32F1xx_HAL_Driver/Src/stm32f1xx_hal_tim.o
LOAD Drivers/STM32F1xx_HAL_Driver/Src/stm32f1xx_hal_tim_ex.o
LOAD Micrium/Software/uC-CPU/ARM-Cortex-M/ARMv7-M/GNU/cpu_a.o
LOAD Micrium/Software/uC-CPU/ARM-Cortex-M/ARMv7-M/cpu_c.o
LOAD Micrium/Software/uC-CPU/cpu_core.o
LOAD Micrium/Software/uC-LIB/lib_ascii.o
LOAD Micrium/Software/uC-LIB/lib_math.o
LOAD Micrium/Software/uC-LIB/lib_mem.o
LOAD Micrium/Software/uC-LIB/lib_str.o
LOAD Micrium/Software/uCOS-II/Ports/ARM-Cortex-M/ARMv7-M/GNU/os_cpu_a.o
LOAD Micrium/Software/uCOS-II/Ports/ARM-Cortex-M/ARMv7-M/GNU/os_dbg.o
LOAD Micrium/Software/uCOS-II/Ports/ARM-Cortex-M/ARMv7-M/os_cpu_c.o
LOAD Micrium/Software/uCOS-II/Source/os_core.o
LOAD Micrium/Software/uCOS-II/Source/os_flag.o
LOAD Micrium/Software/uCOS-II/Source/os_mbox.o
LOAD Micrium/Software/uCOS-II/Source/os_mem.o
LOAD Micrium/Software/uCOS-II/Source/os_mutex.o
LOAD Micrium/Software/uCOS-II/Source/os_q.o
LOAD Micrium/Software/uCOS-II/Source/os_sem.o
LOAD Micrium/Software/uCOS-II/Source/os_task.o
LOAD Micrium/Software/uCOS-II/Source/os_time.o
LOAD Micrium/Software/uCOS-II/Source/os_tmr.o
LOAD Micrium/Template/OS2/app_hooks.o
START GROUP
LOAD c:/st/stm32cubeide_1.6.0/stm32cubeide/plugins/com.st.stm32cube.ide.mcu.externaltools.gnu-tools-for-stm32.9-2020-q2-update.win32_1.5.0.202011040924/tools/bin/../lib/gcc/arm-none-eabi/9.3.1/../../../../arm-none-eabi/lib/thumb/v7-m/nofp\libc_nano.a
LOAD c:/st/stm32cubeide_1.6.0/stm32cubeide/plugins/com.st.stm32cube.ide.mcu.externaltools.gnu-tools-for-stm32.9-2020-q2-update.win32_1.5.0.202011040924/tools/bin/../lib/gcc/arm-none-eabi/9.3.1/../../../../arm-none-eabi/lib/thumb/v7-m/nofp\libm.a
END GROUP
START GROUP
LOAD c:/st/stm32cubeide_1.6.0/stm32cubeide/plugins/com.st.stm32cube.ide.mcu.externaltools.gnu-tools-for-stm32.9-2020-q2-update.win32_1.5.0.202011040924/tools/bin/../lib/gcc/arm-none-eabi/9.3.1/thumb/v7-m/nofp\libgcc.a
LOAD c:/st/stm32cubeide_1.6.0/stm32cubeide/plugins/com.st.stm32cube.ide.mcu.externaltools.gnu-tools-for-stm32.9-2020-q2-update.win32_1.5.0.202011040924/tools/bin/../lib/gcc/arm-none-eabi/9.3.1/../../../../arm-none-eabi/lib/thumb/v7-m/nofp\libc_nano.a
END GROUP
START GROUP
LOAD c:/st/stm32cubeide_1.6.0/stm32cubeide/plugins/com.st.stm32cube.ide.mcu.externaltools.gnu-tools-for-stm32.9-2020-q2-update.win32_1.5.0.202011040924/tools/bin/../lib/gcc/arm-none-eabi/9.3.1/thumb/v7-m/nofp\libgcc.a
LOAD c:/st/stm32cubeide_1.6.0/stm32cubeide/plugins/com.st.stm32cube.ide.mcu.externaltools.gnu-tools-for-stm32.9-2020-q2-update.win32_1.5.0.202011040924/tools/bin/../lib/gcc/arm-none-eabi/9.3.1/../../../../arm-none-eabi/lib/thumb/v7-m/nofp\libc_nano.a
LOAD c:/st/stm32cubeide_1.6.0/stm32cubeide/plugins/com.st.stm32cube.ide.mcu.externaltools.gnu-tools-for-stm32.9-2020-q2-update.win32_1.5.0.202011040924/tools/bin/../lib/gcc/arm-none-eabi/9.3.1/../../../../arm-none-eabi/lib/thumb/v7-m/nofp\libnosys.a
END GROUP
START GROUP
LOAD c:/st/stm32cubeide_1.6.0/stm32cubeide/plugins/com.st.stm32cube.ide.mcu.externaltools.gnu-tools-for-stm32.9-2020-q2-update.win32_1.5.0.202011040924/tools/bin/../lib/gcc/arm-none-eabi/9.3.1/thumb/v7-m/nofp\libgcc.a
LOAD c:/st/stm32cubeide_1.6.0/stm32cubeide/plugins/com.st.stm32cube.ide.mcu.externaltools.gnu-tools-for-stm32.9-2020-q2-update.win32_1.5.0.202011040924/tools/bin/../lib/gcc/arm-none-eabi/9.3.1/../../../../arm-none-eabi/lib/thumb/v7-m/nofp\libc_nano.a
LOAD c:/st/stm32cubeide_1.6.0/stm32cubeide/plugins/com.st.stm32cube.ide.mcu.externaltools.gnu-tools-for-stm32.9-2020-q2-update.win32_1.5.0.202011040924/tools/bin/../lib/gcc/arm-none-eabi/9.3.1/../../../../arm-none-eabi/lib/thumb/v7-m/nofp\libnosys.a
END GROUP
LOAD c:/st/stm32cubeide_1.6.0/stm32cubeide/plugins/com.st.stm32cube.ide.mcu.externaltools.gnu-tools-for-stm32.9-2020-q2-update.win32_1.5.0.202011040924/tools/bin/../lib/gcc/arm-none-eabi/9.3.1/thumb/v7-m/nofp/crtend.o
LOAD c:/st/stm32cubeide_1.6.0/stm32cubeide/plugins/com.st.stm32cube.ide.mcu.externaltools.gnu-tools-for-stm32.9-2020-q2-update.win32_1.5.0.202011040924/tools/bin/../lib/gcc/arm-none-eabi/9.3.1/thumb/v7-m/nofp/crtn.o
                0x0000000020005000                _estack = (ORIGIN (RAM) + LENGTH (RAM))
                0x0000000000000200                _Min_Heap_Size = 0x200
                0x0000000000000400                _Min_Stack_Size = 0x400

.isr_vector     0x0000000008000000      0x10c
                0x0000000008000000                . = ALIGN (0x4)
 *(.isr_vector)
 .isr_vector    0x0000000008000000      0x10c Core/Startup/startup_stm32f103c8tx.o
                0x0000000008000000                g_pfnVectors
                0x000000000800010c                . = ALIGN (0x4)

.text           0x0000000008000110     0xa87c
                0x0000000008000110                . = ALIGN (0x4)
 *(.text)
 .text          0x0000000008000110       0x40 c:/st/stm32cubeide_1.6.0/stm32cubeide/plugins/com.st.stm32cube.ide.mcu.externaltools.gnu-tools-for-stm32.9-2020-q2-update.win32_1.5.0.202011040924/tools/bin/../lib/gcc/arm-none-eabi/9.3.1/thumb/v7-m/nofp/crtbegin.o
 .text          0x0000000008000150       0x54 Micrium/Software/uC-CPU/ARM-Cortex-M/ARMv7-M/GNU/cpu_a.o
                0x0000000008000150                CPU_IntDis
                0x0000000008000154                CPU_IntEn
                0x0000000008000158                CPU_SR_Save
                0x0000000008000174                CPU_SR_Restore
                0x0000000008000186                CPU_WaitForInt
                0x000000000800018a                CPU_WaitForExcept
                0x000000000800018e                CPU_CntLeadZeros
                0x0000000008000194                CPU_CntTrailZeros
                0x000000000800019e                CPU_RevBits
 .text          0x00000000080001a4      0x12c Micrium/Software/uCOS-II/Ports/ARM-Cortex-M/ARMv7-M/GNU/os_cpu_a.o
                0x00000000080001a4                OS_CPU_SR_Save
                0x00000000080001c0                OS_CPU_SR_Restore
                0x00000000080001d2                OSStartHighRdy
                0x0000000008000252                OSIntCtxSw
                0x0000000008000252                OSCtxSw
                0x000000000800025c                OS_CPU_PendSVHandler
 .text          0x00000000080002d0       0x10 c:/st/stm32cubeide_1.6.0/stm32cubeide/plugins/com.st.stm32cube.ide.mcu.externaltools.gnu-tools-for-stm32.9-2020-q2-update.win32_1.5.0.202011040924/tools/bin/../lib/gcc/arm-none-eabi/9.3.1/../../../../arm-none-eabi/lib/thumb/v7-m/nofp\libc_nano.a(lib_a-strlen.o)
                0x00000000080002d0                strlen
 .text          0x00000000080002e0      0x168 c:/st/stm32cubeide_1.6.0/stm32cubeide/plugins/com.st.stm32cube.ide.mcu.externaltools.gnu-tools-for-stm32.9-2020-q2-update.win32_1.5.0.202011040924/tools/bin/../lib/gcc/arm-none-eabi/9.3.1/thumb/v7-m/nofp\libgcc.a(_arm_mulsf3.o)
                0x00000000080002e0                __aeabi_fmul
                0x00000000080002e0                __mulsf3
 .text          0x0000000008000448      0x378 c:/st/stm32cubeide_1.6.0/stm32cubeide/plugins/com.st.stm32cube.ide.mcu.externaltools.gnu-tools-for-stm32.9-2020-q2-update.win32_1.5.0.202011040924/tools/bin/../lib/gcc/arm-none-eabi/9.3.1/thumb/v7-m/nofp\libgcc.a(_arm_addsubdf3.o)
                0x0000000008000448                __aeabi_drsub
                0x0000000008000450                __aeabi_dsub
                0x0000000008000450                __subdf3
                0x0000000008000454                __aeabi_dadd
                0x0000000008000454                __adddf3
                0x00000000080006cc                __floatunsidf
                0x00000000080006cc                __aeabi_ui2d
                0x00000000080006ec                __floatsidf
                0x00000000080006ec                __aeabi_i2d
                0x0000000008000710                __aeabi_f2d
                0x0000000008000710                __extendsfdf2
                0x0000000008000754                __floatundidf
                0x0000000008000754                __aeabi_ul2d
                0x0000000008000764                __floatdidf
                0x0000000008000764                __aeabi_l2d
 .text          0x00000000080007c0      0x424 c:/st/stm32cubeide_1.6.0/stm32cubeide/plugins/com.st.stm32cube.ide.mcu.externaltools.gnu-tools-for-stm32.9-2020-q2-update.win32_1.5.0.202011040924/tools/bin/../lib/gcc/arm-none-eabi/9.3.1/thumb/v7-m/nofp\libgcc.a(_arm_muldivdf3.o)
                0x00000000080007c0                __aeabi_dmul
                0x00000000080007c0                __muldf3
                0x0000000008000a14                __divdf3
                0x0000000008000a14                __aeabi_ddiv
 .text          0x0000000008000be4      0x110 c:/st/stm32cubeide_1.6.0/stm32cubeide/plugins/com.st.stm32cube.ide.mcu.externaltools.gnu-tools-for-stm32.9-2020-q2-update.win32_1.5.0.202011040924/tools/bin/../lib/gcc/arm-none-eabi/9.3.1/thumb/v7-m/nofp\libgcc.a(_arm_cmpdf2.o)
                0x0000000008000be4                __gtdf2
                0x0000000008000be4                __gedf2
                0x0000000008000bec                __ltdf2
                0x0000000008000bec                __ledf2
                0x0000000008000bf4                __nedf2
                0x0000000008000bf4                __eqdf2
                0x0000000008000bf4                __cmpdf2
                0x0000000008000c70                __aeabi_cdrcmple
                0x0000000008000c80                __aeabi_cdcmpeq
                0x0000000008000c80                __aeabi_cdcmple
                0x0000000008000c90                __aeabi_dcmpeq
                0x0000000008000ca4                __aeabi_dcmplt
                0x0000000008000cb8                __aeabi_dcmple
                0x0000000008000ccc                __aeabi_dcmpge
                0x0000000008000ce0                __aeabi_dcmpgt
 .text          0x0000000008000cf4       0x2c c:/st/stm32cubeide_1.6.0/stm32cubeide/plugins/com.st.stm32cube.ide.mcu.externaltools.gnu-tools-for-stm32.9-2020-q2-update.win32_1.5.0.202011040924/tools/bin/../lib/gcc/arm-none-eabi/9.3.1/thumb/v7-m/nofp\libgcc.a(_arm_unorddf2.o)
                0x0000000008000cf4                __unorddf2
                0x0000000008000cf4                __aeabi_dcmpun
 .text          0x0000000008000d20       0x40 c:/st/stm32cubeide_1.6.0/stm32cubeide/plugins/com.st.stm32cube.ide.mcu.externaltools.gnu-tools-for-stm32.9-2020-q2-update.win32_1.5.0.202011040924/tools/bin/../lib/gcc/arm-none-eabi/9.3.1/thumb/v7-m/nofp\libgcc.a(_arm_fixunsdfsi.o)
                0x0000000008000d20                __aeabi_d2uiz
                0x0000000008000d20                __fixunsdfsi
 .text          0x0000000008000d60       0xa0 c:/st/stm32cubeide_1.6.0/stm32cubeide/plugins/com.st.stm32cube.ide.mcu.externaltools.gnu-tools-for-stm32.9-2020-q2-update.win32_1.5.0.202011040924/tools/bin/../lib/gcc/arm-none-eabi/9.3.1/thumb/v7-m/nofp\libgcc.a(_arm_truncdfsf2.o)
                0x0000000008000d60                __truncdfsf2
                0x0000000008000d60                __aeabi_d2f
 .text          0x0000000008000e00      0x21c c:/st/stm32cubeide_1.6.0/stm32cubeide/plugins/com.st.stm32cube.ide.mcu.externaltools.gnu-tools-for-stm32.9-2020-q2-update.win32_1.5.0.202011040924/tools/bin/../lib/gcc/arm-none-eabi/9.3.1/thumb/v7-m/nofp\libgcc.a(_arm_addsubsf3.o)
                0x0000000008000e00                __aeabi_frsub
                0x0000000008000e08                __subsf3
                0x0000000008000e08                __aeabi_fsub
                0x0000000008000e0c                __aeabi_fadd
                0x0000000008000e0c                __addsf3
                0x0000000008000f6c                __aeabi_ui2f
                0x0000000008000f6c                __floatunsisf
                0x0000000008000f74                __aeabi_i2f
                0x0000000008000f74                __floatsisf
                0x0000000008000f90                __aeabi_ul2f
                0x0000000008000f90                __floatundisf
                0x0000000008000fa0                __aeabi_l2f
                0x0000000008000fa0                __floatdisf
 .text          0x000000000800101c       0xec c:/st/stm32cubeide_1.6.0/stm32cubeide/plugins/com.st.stm32cube.ide.mcu.externaltools.gnu-tools-for-stm32.9-2020-q2-update.win32_1.5.0.202011040924/tools/bin/../lib/gcc/arm-none-eabi/9.3.1/thumb/v7-m/nofp\libgcc.a(_arm_cmpsf2.o)
                0x000000000800101c                __gesf2
                0x000000000800101c                __gtsf2
                0x0000000008001024                __lesf2
                0x0000000008001024                __ltsf2
                0x000000000800102c                __nesf2
                0x000000000800102c                __eqsf2
                0x000000000800102c                __cmpsf2
                0x000000000800108c                __aeabi_cfrcmple
                0x0000000008001094                __aeabi_cfcmpeq
                0x0000000008001094                __aeabi_cfcmple
                0x00000000080010a4                __aeabi_fcmpeq
                0x00000000080010b8                __aeabi_fcmplt
                0x00000000080010cc                __aeabi_fcmple
                0x00000000080010e0                __aeabi_fcmpge
                0x00000000080010f4                __aeabi_fcmpgt
 .text          0x0000000008001108       0x4c c:/st/stm32cubeide_1.6.0/stm32cubeide/plugins/com.st.stm32cube.ide.mcu.externaltools.gnu-tools-for-stm32.9-2020-q2-update.win32_1.5.0.202011040924/tools/bin/../lib/gcc/arm-none-eabi/9.3.1/thumb/v7-m/nofp\libgcc.a(_arm_fixsfsi.o)
                0x0000000008001108                __aeabi_f2iz
                0x0000000008001108                __fixsfsi
 *(.text*)
 .text.LCD_I2C_sendCommand
                0x0000000008001154       0x68 Core/Src/lcd_i2c.o
 .text.LCD_I2C_sendData
                0x00000000080011bc       0x68 Core/Src/lcd_i2c.o
 .text.LCD_I2C_Init
                0x0000000008001224      0x118 Core/Src/lcd_i2c.o
                0x0000000008001224                LCD_I2C_Init
 .text.LCD_I2C_SetCursor
                0x000000000800133c       0x48 Core/Src/lcd_i2c.o
                0x000000000800133c                LCD_I2C_SetCursor
 .text.LCD_I2C_Clear
                0x0000000008001384       0x1a Core/Src/lcd_i2c.o
                0x0000000008001384                LCD_I2C_Clear
 .text.LCD_I2C_Printf
                0x000000000800139e       0x60 Core/Src/lcd_i2c.o
                0x000000000800139e                LCD_I2C_Printf
 *fill*         0x00000000080013fe        0x2 
 .text.LCD_I2C_PutMeasure
                0x0000000008001400       0x40 Core/Src/lcd_i2c.o
                0x0000000008001400                LCD_I2C_PutMeasure
 .text.float_to_char
                0x0000000008001440      0x174 Core/Src/lcd_i2c.o
                0x0000000008001440                float_to_char
 .text.main     0x00000000080015b4       0xa4 Core/Src/main.o
                0x00000000080015b4                main
 .text.SystemClock_Config
                0x0000000008001658       0xb6 Core/Src/main.o
                0x0000000008001658                SystemClock_Config
 *fill*         0x000000000800170e        0x2 
 .text.MX_ADC1_Init
                0x0000000008001710       0x7c Core/Src/main.o
 .text.MX_I2C1_Init
                0x000000000800178c       0x5c Core/Src/main.o
 .text.MX_TIM1_Init
                0x00000000080017e8       0xc4 Core/Src/main.o
 .text.MX_GPIO_Init
                0x00000000080018ac      0x15c Core/Src/main.o
 .text.HAL_InitTick
                0x0000000008001a08       0x14 Core/Src/main.o
                0x0000000008001a08                HAL_InitTick
 .text.HAL_GetTick
                0x0000000008001a1c       0x16 Core/Src/main.o
                0x0000000008001a1c                HAL_GetTick
 *fill*         0x0000000008001a32        0x2 
 .text.StartupTask
                0x0000000008001a34       0x34 Core/Src/main.o
 .text.App_TaskCreate
                0x0000000008001a68      0x350 Core/Src/main.o
 .text.Tiempo   0x0000000008001db8       0x70 Core/Src/main.o
 .text.Teclas   0x0000000008001e28      0x3bc Core/Src/main.o
 .text.Display  0x00000000080021e4      0x730 Core/Src/main.o
 .text.Sensores_1
                0x0000000008002914       0x60 Core/Src/main.o
 .text.Sensores_2
                0x0000000008002974       0x40 Core/Src/main.o
 .text.Led      0x00000000080029b4       0x28 Core/Src/main.o
 .text.Bomba_filtrado
                0x00000000080029dc       0x34 Core/Src/main.o
 .text.Bomba_dosif_1
                0x0000000008002a10       0x34 Core/Src/main.o
 .text.Bomba_dosif_2
                0x0000000008002a44       0x34 Core/Src/main.o
 .text.Ionizacion
                0x0000000008002a78      0x12c Core/Src/main.o
 .text.Menu     0x0000000008002ba4      0x744 Core/Src/main.o
 .text.Manejo_salidas
                0x00000000080032e8       0x16 Core/Src/main.o
 *fill*         0x00000000080032fe        0x2 
 .text.medicion_pH
                0x0000000008003300      0x114 Core/Src/main.o
 .text.Error_Handler
                0x0000000008003414        0xc Core/Src/main.o
                0x0000000008003414                Error_Handler
 .text.lectura_temp
                0x0000000008003420       0xc4 Core/Src/sensores.o
                0x0000000008003420                lectura_temp
 .text.lectura_nivel_recip1
                0x00000000080034e4       0x40 Core/Src/sensores.o
                0x00000000080034e4                lectura_nivel_recip1
 .text.lectura_nivel_recip2
                0x0000000008003524       0x40 Core/Src/sensores.o
                0x0000000008003524                lectura_nivel_recip2
 .text.delay    0x0000000008003564       0x30 Core/Src/sensores.o
                0x0000000008003564                delay
 .text.Set_Pin_Output
                0x0000000008003594       0x3c Core/Src/sensores.o
                0x0000000008003594                Set_Pin_Output
 .text.Set_Pin_Input
                0x00000000080035d0       0x3c Core/Src/sensores.o
                0x00000000080035d0                Set_Pin_Input
 .text.DS18B20_Start
                0x000000000800360c       0x68 Core/Src/sensores.o
                0x000000000800360c                DS18B20_Start
 .text.DS18B20_Write
                0x0000000008003674       0x98 Core/Src/sensores.o
                0x0000000008003674                DS18B20_Write
 .text.DS18B20_Read
                0x000000000800370c       0x84 Core/Src/sensores.o
                0x000000000800370c                DS18B20_Read
 .text.HAL_TIM_IC_CaptureCallback
                0x0000000008003790      0x224 Core/Src/sensores.o
                0x0000000008003790                HAL_TIM_IC_CaptureCallback
 .text.HCSR04_Read_1
                0x00000000080039b4       0x50 Core/Src/sensores.o
                0x00000000080039b4                HCSR04_Read_1
 .text.HCSR04_Read_2
                0x0000000008003a04       0x50 Core/Src/sensores.o
                0x0000000008003a04                HCSR04_Read_2
 .text.HAL_MspInit
                0x0000000008003a54       0x64 Core/Src/stm32f1xx_hal_msp.o
                0x0000000008003a54                HAL_MspInit
 .text.HAL_ADC_MspInit
                0x0000000008003ab8       0x78 Core/Src/stm32f1xx_hal_msp.o
                0x0000000008003ab8                HAL_ADC_MspInit
 .text.HAL_I2C_MspInit
                0x0000000008003b30       0x7c Core/Src/stm32f1xx_hal_msp.o
                0x0000000008003b30                HAL_I2C_MspInit
 .text.HAL_TIM_IC_MspInit
                0x0000000008003bac       0x90 Core/Src/stm32f1xx_hal_msp.o
                0x0000000008003bac                HAL_TIM_IC_MspInit
 .text.NMI_Handler
                0x0000000008003c3c        0xc Core/Src/stm32f1xx_it.o
                0x0000000008003c3c                NMI_Handler
 .text.HardFault_Handler
                0x0000000008003c48        0x6 Core/Src/stm32f1xx_it.o
                0x0000000008003c48                HardFault_Handler
 .text.MemManage_Handler
                0x0000000008003c4e        0x6 Core/Src/stm32f1xx_it.o
                0x0000000008003c4e                MemManage_Handler
 .text.BusFault_Handler
                0x0000000008003c54        0x6 Core/Src/stm32f1xx_it.o
                0x0000000008003c54                BusFault_Handler
 .text.UsageFault_Handler
                0x0000000008003c5a        0x6 Core/Src/stm32f1xx_it.o
                0x0000000008003c5a                UsageFault_Handler
 .text.SVC_Handler
                0x0000000008003c60        0xc Core/Src/stm32f1xx_it.o
                0x0000000008003c60                SVC_Handler
 .text.DebugMon_Handler
                0x0000000008003c6c        0xc Core/Src/stm32f1xx_it.o
                0x0000000008003c6c                DebugMon_Handler
 .text.TIM1_CC_IRQHandler
                0x0000000008003c78       0x14 Core/Src/stm32f1xx_it.o
                0x0000000008003c78                TIM1_CC_IRQHandler
 .text._sbrk    0x0000000008003c8c       0x58 Core/Src/sysmem.o
                0x0000000008003c8c                _sbrk
 .text.SystemInit
                0x0000000008003ce4       0x68 Core/Src/system_stm32f1xx.o
                0x0000000008003ce4                SystemInit
 .text.Reset_Handler
                0x0000000008003d4c       0x48 Core/Startup/startup_stm32f103c8tx.o
                0x0000000008003d4c                Reset_Handler
 .text.Default_Handler
                0x0000000008003d94        0x2 Core/Startup/startup_stm32f103c8tx.o
                0x0000000008003d94                RTC_Alarm_IRQHandler
                0x0000000008003d94                EXTI2_IRQHandler
                0x0000000008003d94                PVD_IRQHandler
                0x0000000008003d94                EXTI3_IRQHandler
                0x0000000008003d94                EXTI0_IRQHandler
                0x0000000008003d94                I2C2_EV_IRQHandler
                0x0000000008003d94                ADC1_2_IRQHandler
                0x0000000008003d94                SPI1_IRQHandler
                0x0000000008003d94                TAMPER_IRQHandler
                0x0000000008003d94                DMA1_Channel4_IRQHandler
                0x0000000008003d94                USART3_IRQHandler
                0x0000000008003d94                RTC_IRQHandler
                0x0000000008003d94                DMA1_Channel7_IRQHandler
                0x0000000008003d94                CAN1_RX1_IRQHandler
                0x0000000008003d94                TIM4_IRQHandler
                0x0000000008003d94                I2C1_EV_IRQHandler
                0x0000000008003d94                DMA1_Channel6_IRQHandler
                0x0000000008003d94                TIM3_IRQHandler
                0x0000000008003d94                RCC_IRQHandler
                0x0000000008003d94                TIM1_TRG_COM_IRQHandler
                0x0000000008003d94                DMA1_Channel1_IRQHandler
                0x0000000008003d94                Default_Handler
                0x0000000008003d94                EXTI15_10_IRQHandler
                0x0000000008003d94                EXTI9_5_IRQHandler
                0x0000000008003d94                SPI2_IRQHandler
                0x0000000008003d94                DMA1_Channel5_IRQHandler
                0x0000000008003d94                EXTI4_IRQHandler
                0x0000000008003d94                USB_LP_CAN1_RX0_IRQHandler
                0x0000000008003d94                USB_HP_CAN1_TX_IRQHandler
                0x0000000008003d94                DMA1_Channel3_IRQHandler
                0x0000000008003d94                TIM1_UP_IRQHandler
                0x0000000008003d94                WWDG_IRQHandler
                0x0000000008003d94                TIM2_IRQHandler
                0x0000000008003d94                TIM1_BRK_IRQHandler
                0x0000000008003d94                EXTI1_IRQHandler
                0x0000000008003d94                USART2_IRQHandler
                0x0000000008003d94                I2C2_ER_IRQHandler
                0x0000000008003d94                DMA1_Channel2_IRQHandler
                0x0000000008003d94                CAN1_SCE_IRQHandler
                0x0000000008003d94                FLASH_IRQHandler
                0x0000000008003d94                USART1_IRQHandler
                0x0000000008003d94                I2C1_ER_IRQHandler
                0x0000000008003d94                USBWakeUp_IRQHandler
 *fill*         0x0000000008003d96        0x2 
 .text.HAL_Init
                0x0000000008003d98       0x2c Drivers/STM32F1xx_HAL_Driver/Src/stm32f1xx_hal.o
                0x0000000008003d98                HAL_Init
 .text.HAL_ADC_Init
                0x0000000008003dc4      0x1b0 Drivers/STM32F1xx_HAL_Driver/Src/stm32f1xx_hal_adc.o
                0x0000000008003dc4                HAL_ADC_Init
 .text.HAL_ADC_Start
                0x0000000008003f74      0x15c Drivers/STM32F1xx_HAL_Driver/Src/stm32f1xx_hal_adc.o
                0x0000000008003f74                HAL_ADC_Start
 .text.HAL_ADC_PollForConversion
                0x00000000080040d0      0x1f4 Drivers/STM32F1xx_HAL_Driver/Src/stm32f1xx_hal_adc.o
                0x00000000080040d0                HAL_ADC_PollForConversion
 .text.HAL_ADC_GetValue
                0x00000000080042c4       0x18 Drivers/STM32F1xx_HAL_Driver/Src/stm32f1xx_hal_adc.o
                0x00000000080042c4                HAL_ADC_GetValue
 .text.HAL_ADC_ConfigChannel
                0x00000000080042dc      0x1f0 Drivers/STM32F1xx_HAL_Driver/Src/stm32f1xx_hal_adc.o
                0x00000000080042dc                HAL_ADC_ConfigChannel
 .text.ADC_Enable
                0x00000000080044cc       0xa4 Drivers/STM32F1xx_HAL_Driver/Src/stm32f1xx_hal_adc.o
                0x00000000080044cc                ADC_Enable
 .text.ADC_ConversionStop_Disable
                0x0000000008004570       0x74 Drivers/STM32F1xx_HAL_Driver/Src/stm32f1xx_hal_adc.o
                0x0000000008004570                ADC_ConversionStop_Disable
 .text.__NVIC_SetPriorityGrouping
                0x00000000080045e4       0x48 Drivers/STM32F1xx_HAL_Driver/Src/stm32f1xx_hal_cortex.o
 .text.__NVIC_GetPriorityGrouping
                0x000000000800462c       0x1c Drivers/STM32F1xx_HAL_Driver/Src/stm32f1xx_hal_cortex.o
 .text.__NVIC_EnableIRQ
                0x0000000008004648       0x38 Drivers/STM32F1xx_HAL_Driver/Src/stm32f1xx_hal_cortex.o
 .text.__NVIC_SetPriority
                0x0000000008004680       0x54 Drivers/STM32F1xx_HAL_Driver/Src/stm32f1xx_hal_cortex.o
 .text.NVIC_EncodePriority
                0x00000000080046d4       0x64 Drivers/STM32F1xx_HAL_Driver/Src/stm32f1xx_hal_cortex.o
 .text.HAL_NVIC_SetPriorityGrouping
                0x0000000008004738       0x16 Drivers/STM32F1xx_HAL_Driver/Src/stm32f1xx_hal_cortex.o
                0x0000000008004738                HAL_NVIC_SetPriorityGrouping
 .text.HAL_NVIC_SetPriority
                0x000000000800474e       0x38 Drivers/STM32F1xx_HAL_Driver/Src/stm32f1xx_hal_cortex.o
                0x000000000800474e                HAL_NVIC_SetPriority
 .text.HAL_NVIC_EnableIRQ
                0x0000000008004786       0x1c Drivers/STM32F1xx_HAL_Driver/Src/stm32f1xx_hal_cortex.o
                0x0000000008004786                HAL_NVIC_EnableIRQ
 *fill*         0x00000000080047a2        0x2 
 .text.HAL_GPIO_Init
                0x00000000080047a4      0x308 Drivers/STM32F1xx_HAL_Driver/Src/stm32f1xx_hal_gpio.o
                0x00000000080047a4                HAL_GPIO_Init
 .text.HAL_GPIO_ReadPin
                0x0000000008004aac       0x2e Drivers/STM32F1xx_HAL_Driver/Src/stm32f1xx_hal_gpio.o
                0x0000000008004aac                HAL_GPIO_ReadPin
 .text.HAL_GPIO_WritePin
                0x0000000008004ada       0x30 Drivers/STM32F1xx_HAL_Driver/Src/stm32f1xx_hal_gpio.o
                0x0000000008004ada                HAL_GPIO_WritePin
 .text.HAL_GPIO_TogglePin
                0x0000000008004b0a       0x32 Drivers/STM32F1xx_HAL_Driver/Src/stm32f1xx_hal_gpio.o
                0x0000000008004b0a                HAL_GPIO_TogglePin
 .text.HAL_I2C_Init
                0x0000000008004b3c      0x288 Drivers/STM32F1xx_HAL_Driver/Src/stm32f1xx_hal_i2c.o
                0x0000000008004b3c                HAL_I2C_Init
 .text.HAL_I2C_Master_Transmit
                0x0000000008004dc4      0x1fc Drivers/STM32F1xx_HAL_Driver/Src/stm32f1xx_hal_i2c.o
                0x0000000008004dc4                HAL_I2C_Master_Transmit
 .text.HAL_I2C_IsDeviceReady
                0x0000000008004fc0      0x25c Drivers/STM32F1xx_HAL_Driver/Src/stm32f1xx_hal_i2c.o
                0x0000000008004fc0                HAL_I2C_IsDeviceReady
 .text.I2C_MasterRequestWrite
                0x000000000800521c      0x104 Drivers/STM32F1xx_HAL_Driver/Src/stm32f1xx_hal_i2c.o
 .text.I2C_WaitOnFlagUntilTimeout
                0x0000000008005320       0xae Drivers/STM32F1xx_HAL_Driver/Src/stm32f1xx_hal_i2c.o
 .text.I2C_WaitOnMasterAddressFlagUntilTimeout
                0x00000000080053ce       0xfe Drivers/STM32F1xx_HAL_Driver/Src/stm32f1xx_hal_i2c.o
 .text.I2C_WaitOnTXEFlagUntilTimeout
                0x00000000080054cc       0x82 Drivers/STM32F1xx_HAL_Driver/Src/stm32f1xx_hal_i2c.o
 .text.I2C_WaitOnBTFFlagUntilTimeout
                0x000000000800554e       0x82 Drivers/STM32F1xx_HAL_Driver/Src/stm32f1xx_hal_i2c.o
 .text.I2C_IsAcknowledgeFailed
                0x00000000080055d0       0x5c Drivers/STM32F1xx_HAL_Driver/Src/stm32f1xx_hal_i2c.o
 .text.HAL_RCC_OscConfig
                0x000000000800562c      0x500 Drivers/STM32F1xx_HAL_Driver/Src/stm32f1xx_hal_rcc.o
                0x000000000800562c                HAL_RCC_OscConfig
 .text.HAL_RCC_ClockConfig
                0x0000000008005b2c      0x1d4 Drivers/STM32F1xx_HAL_Driver/Src/stm32f1xx_hal_rcc.o
                0x0000000008005b2c                HAL_RCC_ClockConfig
 .text.HAL_RCC_GetSysClockFreq
                0x0000000008005d00       0xc0 Drivers/STM32F1xx_HAL_Driver/Src/stm32f1xx_hal_rcc.o
                0x0000000008005d00                HAL_RCC_GetSysClockFreq
 .text.HAL_RCC_GetHCLKFreq
                0x0000000008005dc0       0x14 Drivers/STM32F1xx_HAL_Driver/Src/stm32f1xx_hal_rcc.o
                0x0000000008005dc0                HAL_RCC_GetHCLKFreq
 .text.HAL_RCC_GetPCLK1Freq
                0x0000000008005dd4       0x28 Drivers/STM32F1xx_HAL_Driver/Src/stm32f1xx_hal_rcc.o
                0x0000000008005dd4                HAL_RCC_GetPCLK1Freq
 .text.HAL_RCC_GetPCLK2Freq
                0x0000000008005dfc       0x28 Drivers/STM32F1xx_HAL_Driver/Src/stm32f1xx_hal_rcc.o
                0x0000000008005dfc                HAL_RCC_GetPCLK2Freq
 .text.RCC_Delay
                0x0000000008005e24       0x3c Drivers/STM32F1xx_HAL_Driver/Src/stm32f1xx_hal_rcc.o
 .text.HAL_RCCEx_PeriphCLKConfig
                0x0000000008005e60      0x16c Drivers/STM32F1xx_HAL_Driver/Src/stm32f1xx_hal_rcc_ex.o
                0x0000000008005e60                HAL_RCCEx_PeriphCLKConfig
 .text.HAL_RCCEx_GetPeriphCLKFreq
                0x0000000008005fcc      0x188 Drivers/STM32F1xx_HAL_Driver/Src/stm32f1xx_hal_rcc_ex.o
                0x0000000008005fcc                HAL_RCCEx_GetPeriphCLKFreq
 .text.HAL_TIM_Base_Start
                0x0000000008006154       0x94 Drivers/STM32F1xx_HAL_Driver/Src/stm32f1xx_hal_tim.o
                0x0000000008006154                HAL_TIM_Base_Start
 .text.HAL_TIM_IC_Init
                0x00000000080061e8       0x9e Drivers/STM32F1xx_HAL_Driver/Src/stm32f1xx_hal_tim.o
                0x00000000080061e8                HAL_TIM_IC_Init
 *fill*         0x0000000008006286        0x2 
 .text.HAL_TIM_IC_Start_IT
                0x0000000008006288      0x20c Drivers/STM32F1xx_HAL_Driver/Src/stm32f1xx_hal_tim.o
                0x0000000008006288                HAL_TIM_IC_Start_IT
 .text.HAL_TIM_IRQHandler
                0x0000000008006494      0x210 Drivers/STM32F1xx_HAL_Driver/Src/stm32f1xx_hal_tim.o
                0x0000000008006494                HAL_TIM_IRQHandler
 .text.HAL_TIM_IC_ConfigChannel
                0x00000000080066a4      0x128 Drivers/STM32F1xx_HAL_Driver/Src/stm32f1xx_hal_tim.o
                0x00000000080066a4                HAL_TIM_IC_ConfigChannel
 .text.HAL_TIM_ReadCapturedValue
                0x00000000080067cc       0x88 Drivers/STM32F1xx_HAL_Driver/Src/stm32f1xx_hal_tim.o
                0x00000000080067cc                HAL_TIM_ReadCapturedValue
 .text.HAL_TIM_PeriodElapsedCallback
                0x0000000008006854       0x12 Drivers/STM32F1xx_HAL_Driver/Src/stm32f1xx_hal_tim.o
                0x0000000008006854                HAL_TIM_PeriodElapsedCallback
 .text.HAL_TIM_OC_DelayElapsedCallback
                0x0000000008006866       0x12 Drivers/STM32F1xx_HAL_Driver/Src/stm32f1xx_hal_tim.o
                0x0000000008006866                HAL_TIM_OC_DelayElapsedCallback
 .text.HAL_TIM_PWM_PulseFinishedCallback
                0x0000000008006878       0x12 Drivers/STM32F1xx_HAL_Driver/Src/stm32f1xx_hal_tim.o
                0x0000000008006878                HAL_TIM_PWM_PulseFinishedCallback
 .text.HAL_TIM_TriggerCallback
                0x000000000800688a       0x12 Drivers/STM32F1xx_HAL_Driver/Src/stm32f1xx_hal_tim.o
                0x000000000800688a                HAL_TIM_TriggerCallback
 .text.TIM_Base_SetConfig
                0x000000000800689c       0xc4 Drivers/STM32F1xx_HAL_Driver/Src/stm32f1xx_hal_tim.o
                0x000000000800689c                TIM_Base_SetConfig
 .text.TIM_TI1_SetConfig
                0x0000000008006960       0xb4 Drivers/STM32F1xx_HAL_Driver/Src/stm32f1xx_hal_tim.o
                0x0000000008006960                TIM_TI1_SetConfig
 .text.TIM_TI2_SetConfig
                0x0000000008006a14       0x78 Drivers/STM32F1xx_HAL_Driver/Src/stm32f1xx_hal_tim.o
 .text.TIM_TI3_SetConfig
                0x0000000008006a8c       0x76 Drivers/STM32F1xx_HAL_Driver/Src/stm32f1xx_hal_tim.o
 .text.TIM_TI4_SetConfig
                0x0000000008006b02       0x78 Drivers/STM32F1xx_HAL_Driver/Src/stm32f1xx_hal_tim.o
 .text.TIM_CCxChannelCmd
                0x0000000008006b7a       0x48 Drivers/STM32F1xx_HAL_Driver/Src/stm32f1xx_hal_tim.o
                0x0000000008006b7a                TIM_CCxChannelCmd
 *fill*         0x0000000008006bc2        0x2 
 .text.HAL_TIMEx_MasterConfigSynchronization
                0x0000000008006bc4       0xbc Drivers/STM32F1xx_HAL_Driver/Src/stm32f1xx_hal_tim_ex.o
                0x0000000008006bc4                HAL_TIMEx_MasterConfigSynchronization
 .text.HAL_TIMEx_CommutCallback
                0x0000000008006c80       0x12 Drivers/STM32F1xx_HAL_Driver/Src/stm32f1xx_hal_tim_ex.o
                0x0000000008006c80                HAL_TIMEx_CommutCallback
 .text.HAL_TIMEx_BreakCallback
                0x0000000008006c92       0x12 Drivers/STM32F1xx_HAL_Driver/Src/stm32f1xx_hal_tim_ex.o
                0x0000000008006c92                HAL_TIMEx_BreakCallback
 .text.CPU_IntSrcPrioSet
                0x0000000008006ca4      0x278 Micrium/Software/uC-CPU/ARM-Cortex-M/ARMv7-M/cpu_c.o
                0x0000000008006ca4                CPU_IntSrcPrioSet
 .text.CPU_SW_Exception
                0x0000000008006f1c        0x6 Micrium/Software/uC-CPU/cpu_core.o
                0x0000000008006f1c                CPU_SW_Exception
 *fill*         0x0000000008006f22        0x2 
 .text.OSDebugInit
                0x0000000008006f24      0x1d8 Micrium/Software/uCOS-II/Ports/ARM-Cortex-M/ARMv7-M/GNU/os_dbg.o
                0x0000000008006f24                OSDebugInit
 .text.OSInitHookBegin
                0x00000000080070fc       0x68 Micrium/Software/uCOS-II/Ports/ARM-Cortex-M/ARMv7-M/os_cpu_c.o
                0x00000000080070fc                OSInitHookBegin
 .text.OSInitHookEnd
                0x0000000008007164        0xc Micrium/Software/uCOS-II/Ports/ARM-Cortex-M/ARMv7-M/os_cpu_c.o
                0x0000000008007164                OSInitHookEnd
 .text.OSTaskCreateHook
                0x0000000008007170       0x16 Micrium/Software/uCOS-II/Ports/ARM-Cortex-M/ARMv7-M/os_cpu_c.o
                0x0000000008007170                OSTaskCreateHook
 .text.OSTaskDelHook
                0x0000000008007186       0x16 Micrium/Software/uCOS-II/Ports/ARM-Cortex-M/ARMv7-M/os_cpu_c.o
                0x0000000008007186                OSTaskDelHook
 .text.OSTaskIdleHook
                0x000000000800719c        0xc Micrium/Software/uCOS-II/Ports/ARM-Cortex-M/ARMv7-M/os_cpu_c.o
                0x000000000800719c                OSTaskIdleHook
 .text.OSTaskReturnHook
                0x00000000080071a8       0x16 Micrium/Software/uCOS-II/Ports/ARM-Cortex-M/ARMv7-M/os_cpu_c.o
                0x00000000080071a8                OSTaskReturnHook
 .text.OSTaskStatHook
                0x00000000080071be        0xc Micrium/Software/uCOS-II/Ports/ARM-Cortex-M/ARMv7-M/os_cpu_c.o
                0x00000000080071be                OSTaskStatHook
 *fill*         0x00000000080071ca        0x2 
 .text.OSTaskStkInit
                0x00000000080071cc      0x114 Micrium/Software/uCOS-II/Ports/ARM-Cortex-M/ARMv7-M/os_cpu_c.o
                0x00000000080071cc                OSTaskStkInit
 .text.OSTaskSwHook
                0x00000000080072e0        0xc Micrium/Software/uCOS-II/Ports/ARM-Cortex-M/ARMv7-M/os_cpu_c.o
                0x00000000080072e0                OSTaskSwHook
 .text.OSTCBInitHook
                0x00000000080072ec       0x16 Micrium/Software/uCOS-II/Ports/ARM-Cortex-M/ARMv7-M/os_cpu_c.o
                0x00000000080072ec                OSTCBInitHook
 *fill*         0x0000000008007302        0x2 
 .text.OSTimeTickHook
                0x0000000008007304       0x30 Micrium/Software/uCOS-II/Ports/ARM-Cortex-M/ARMv7-M/os_cpu_c.o
                0x0000000008007304                OSTimeTickHook
 .text.OS_CPU_SysTickHandler
                0x0000000008007334       0x28 Micrium/Software/uCOS-II/Ports/ARM-Cortex-M/ARMv7-M/os_cpu_c.o
                0x0000000008007334                OS_CPU_SysTickHandler
 .text.OS_CPU_SysTickInitFreq
                0x000000000800735c       0x28 Micrium/Software/uCOS-II/Ports/ARM-Cortex-M/ARMv7-M/os_cpu_c.o
                0x000000000800735c                OS_CPU_SysTickInitFreq
 .text.OS_CPU_SysTickInit
                0x0000000008007384       0x60 Micrium/Software/uCOS-II/Ports/ARM-Cortex-M/ARMv7-M/os_cpu_c.o
                0x0000000008007384                OS_CPU_SysTickInit
 .text.OSEventNameSet
                0x00000000080073e4       0x74 Micrium/Software/uCOS-II/Source/os_core.o
                0x00000000080073e4                OSEventNameSet
 .text.OSInit   0x0000000008007458       0x3c Micrium/Software/uCOS-II/Source/os_core.o
                0x0000000008007458                OSInit
 .text.OSIntEnter
                0x0000000008007494       0x30 Micrium/Software/uCOS-II/Source/os_core.o
                0x0000000008007494                OSIntEnter
 .text.OSIntExit
                0x00000000080074c4       0xa4 Micrium/Software/uCOS-II/Source/os_core.o
                0x00000000080074c4                OSIntExit
 .text.OSSchedLock
                0x0000000008007568       0x50 Micrium/Software/uCOS-II/Source/os_core.o
                0x0000000008007568                OSSchedLock
 .text.OSSchedUnlock
                0x00000000080075b8       0x74 Micrium/Software/uCOS-II/Source/os_core.o
                0x00000000080075b8                OSSchedUnlock
 .text.OSStart  0x000000000800762c       0x50 Micrium/Software/uCOS-II/Source/os_core.o
                0x000000000800762c                OSStart
 .text.OSStatInit
                0x000000000800767c       0x5c Micrium/Software/uCOS-II/Source/os_core.o
                0x000000000800767c                OSStatInit
 .text.OSTimeTick
                0x00000000080076d8      0x144 Micrium/Software/uCOS-II/Source/os_core.o
                0x00000000080076d8                OSTimeTick
 .text.OS_Dummy
                0x000000000800781c        0xc Micrium/Software/uCOS-II/Source/os_core.o
                0x000000000800781c                OS_Dummy
 .text.OS_EventTaskRdy
                0x0000000008007828       0xe4 Micrium/Software/uCOS-II/Source/os_core.o
                0x0000000008007828                OS_EventTaskRdy
 .text.OS_EventTaskWait
                0x000000000800790c       0xac Micrium/Software/uCOS-II/Source/os_core.o
                0x000000000800790c                OS_EventTaskWait
 .text.OS_EventTaskRemove
                0x00000000080079b8       0x64 Micrium/Software/uCOS-II/Source/os_core.o
                0x00000000080079b8                OS_EventTaskRemove
 .text.OS_EventTaskRemoveMulti
                0x0000000008007a1c       0x86 Micrium/Software/uCOS-II/Source/os_core.o
                0x0000000008007a1c                OS_EventTaskRemoveMulti
 .text.OS_EventWaitListInit
                0x0000000008007aa2       0x36 Micrium/Software/uCOS-II/Source/os_core.o
                0x0000000008007aa2                OS_EventWaitListInit
 .text.OS_InitEventList
                0x0000000008007ad8       0x94 Micrium/Software/uCOS-II/Source/os_core.o
 .text.OS_InitMisc
                0x0000000008007b6c       0x7c Micrium/Software/uCOS-II/Source/os_core.o
 .text.OS_InitRdyList
                0x0000000008007be8       0x60 Micrium/Software/uCOS-II/Source/os_core.o
 .text.OS_InitTaskIdle
                0x0000000008007c48       0x4c Micrium/Software/uCOS-II/Source/os_core.o
 .text.OS_InitTaskStat
                0x0000000008007c94       0x4c Micrium/Software/uCOS-II/Source/os_core.o
 .text.OS_InitTCBList
                0x0000000008007ce0       0x9c Micrium/Software/uCOS-II/Source/os_core.o
 .text.OS_MemClr
                0x0000000008007d7c       0x30 Micrium/Software/uCOS-II/Source/os_core.o
                0x0000000008007d7c                OS_MemClr
 .text.OS_Sched
                0x0000000008007dac       0x84 Micrium/Software/uCOS-II/Source/os_core.o
                0x0000000008007dac                OS_Sched
 .text.OS_SchedNew
                0x0000000008007e30       0x48 Micrium/Software/uCOS-II/Source/os_core.o
 .text.OS_TaskIdle
                0x0000000008007e78       0x30 Micrium/Software/uCOS-II/Source/os_core.o
                0x0000000008007e78                OS_TaskIdle
 .text.OS_TaskStat
                0x0000000008007ea8       0xf0 Micrium/Software/uCOS-II/Source/os_core.o
                0x0000000008007ea8                OS_TaskStat
 .text.OS_TaskStatStkChk
                0x0000000008007f98       0x68 Micrium/Software/uCOS-II/Source/os_core.o
                0x0000000008007f98                OS_TaskStatStkChk
 .text.OS_TCBInit
                0x0000000008008000      0x1e8 Micrium/Software/uCOS-II/Source/os_core.o
                0x0000000008008000                OS_TCBInit
 .text.OS_FlagInit
                0x00000000080081e8       0x84 Micrium/Software/uCOS-II/Source/os_flag.o
                0x00000000080081e8                OS_FlagInit
 .text.OS_FlagUnlink
                0x000000000800826c       0x5c Micrium/Software/uCOS-II/Source/os_flag.o
                0x000000000800826c                OS_FlagUnlink
 .text.OS_MemInit
                0x00000000080082c8       0x80 Micrium/Software/uCOS-II/Source/os_mem.o
                0x00000000080082c8                OS_MemInit
 .text.OS_QInit
                0x0000000008008348       0x78 Micrium/Software/uCOS-II/Source/os_q.o
                0x0000000008008348                OS_QInit
 .text.OSSemCreate
                0x00000000080083c0       0x7c Micrium/Software/uCOS-II/Source/os_sem.o
                0x00000000080083c0                OSSemCreate
 .text.OSSemPend
                0x000000000800843c      0x12c Micrium/Software/uCOS-II/Source/os_sem.o
                0x000000000800843c                OSSemPend
 .text.OSSemPost
                0x0000000008008568       0x7e Micrium/Software/uCOS-II/Source/os_sem.o
                0x0000000008008568                OSSemPost
 *fill*         0x00000000080085e6        0x2 
 .text.OSTaskCreateExt
                0x00000000080085e8       0xd8 Micrium/Software/uCOS-II/Source/os_task.o
                0x00000000080085e8                OSTaskCreateExt
 .text.OSTaskDel
                0x00000000080086c0      0x1f0 Micrium/Software/uCOS-II/Source/os_task.o
                0x00000000080086c0                OSTaskDel
 .text.OSTaskNameSet
                0x00000000080088b0       0xb4 Micrium/Software/uCOS-II/Source/os_task.o
                0x00000000080088b0                OSTaskNameSet
 .text.OSTaskStkChk
                0x0000000008008964       0xdc Micrium/Software/uCOS-II/Source/os_task.o
                0x0000000008008964                OSTaskStkChk
 .text.OSTaskSuspend
                0x0000000008008a40      0x108 Micrium/Software/uCOS-II/Source/os_task.o
                0x0000000008008a40                OSTaskSuspend
 .text.OS_TaskReturn
                0x0000000008008b48       0x1c Micrium/Software/uCOS-II/Source/os_task.o
                0x0000000008008b48                OS_TaskReturn
 .text.OS_TaskStkClr
                0x0000000008008b64       0x44 Micrium/Software/uCOS-II/Source/os_task.o
                0x0000000008008b64                OS_TaskStkClr
 .text.OSTimeDly
                0x0000000008008ba8       0xa8 Micrium/Software/uCOS-II/Source/os_time.o
                0x0000000008008ba8                OSTimeDly
 .text.OSTimeDlyHMSM
                0x0000000008008c50       0xc8 Micrium/Software/uCOS-II/Source/os_time.o
                0x0000000008008c50                OSTimeDlyHMSM
 .text.OSTimeGet
                0x0000000008008d18       0x2c Micrium/Software/uCOS-II/Source/os_time.o
                0x0000000008008d18                OSTimeGet
 .text.OSTmrSignal
                0x0000000008008d44       0x24 Micrium/Software/uCOS-II/Source/os_tmr.o
                0x0000000008008d44                OSTmrSignal
 .text.OSTmr_Init
                0x0000000008008d68      0x118 Micrium/Software/uCOS-II/Source/os_tmr.o
                0x0000000008008d68                OSTmr_Init
 .text.OSTmr_InitTask
                0x0000000008008e80       0x4c Micrium/Software/uCOS-II/Source/os_tmr.o
 .text.OSTmr_Link
                0x0000000008008ecc       0xd4 Micrium/Software/uCOS-II/Source/os_tmr.o
 .text.OSTmr_Unlink
                0x0000000008008fa0       0xa4 Micrium/Software/uCOS-II/Source/os_tmr.o
 .text.OSTmr_Task
                0x0000000008009044       0xc4 Micrium/Software/uCOS-II/Source/os_tmr.o
 .text.App_TaskCreateHook
                0x0000000008009108       0x12 Micrium/Template/OS2/app_hooks.o
                0x0000000008009108                App_TaskCreateHook
 .text.App_TaskDelHook
                0x000000000800911a       0x12 Micrium/Template/OS2/app_hooks.o
                0x000000000800911a                App_TaskDelHook
 .text.App_TaskIdleHook
                0x000000000800912c        0xc Micrium/Template/OS2/app_hooks.o
                0x000000000800912c                App_TaskIdleHook
 .text.App_TaskStatHook
                0x0000000008009138        0xc Micrium/Template/OS2/app_hooks.o
                0x0000000008009138                App_TaskStatHook
 .text.App_TaskReturnHook
                0x0000000008009144       0x12 Micrium/Template/OS2/app_hooks.o
                0x0000000008009144                App_TaskReturnHook
 .text.App_TaskSwHook
                0x0000000008009156        0xc Micrium/Template/OS2/app_hooks.o
                0x0000000008009156                App_TaskSwHook
 .text.App_TCBInitHook
                0x0000000008009162       0x12 Micrium/Template/OS2/app_hooks.o
                0x0000000008009162                App_TCBInitHook
 .text.App_TimeTickHook
                0x0000000008009174        0xc Micrium/Template/OS2/app_hooks.o
                0x0000000008009174                App_TimeTickHook
 .text.__errno  0x0000000008009180        0xc c:/st/stm32cubeide_1.6.0/stm32cubeide/plugins/com.st.stm32cube.ide.mcu.externaltools.gnu-tools-for-stm32.9-2020-q2-update.win32_1.5.0.202011040924/tools/bin/../lib/gcc/arm-none-eabi/9.3.1/../../../../arm-none-eabi/lib/thumb/v7-m/nofp\libc_nano.a(lib_a-errno.o)
                0x0000000008009180                __errno
 .text.__libc_init_array
                0x000000000800918c       0x48 c:/st/stm32cubeide_1.6.0/stm32cubeide/plugins/com.st.stm32cube.ide.mcu.externaltools.gnu-tools-for-stm32.9-2020-q2-update.win32_1.5.0.202011040924/tools/bin/../lib/gcc/arm-none-eabi/9.3.1/../../../../arm-none-eabi/lib/thumb/v7-m/nofp\libc_nano.a(lib_a-init.o)
                0x000000000800918c                __libc_init_array
 .text.memset   0x00000000080091d4       0x10 c:/st/stm32cubeide_1.6.0/stm32cubeide/plugins/com.st.stm32cube.ide.mcu.externaltools.gnu-tools-for-stm32.9-2020-q2-update.win32_1.5.0.202011040924/tools/bin/../lib/gcc/arm-none-eabi/9.3.1/../../../../arm-none-eabi/lib/thumb/v7-m/nofp\libc_nano.a(lib_a-memset.o)
                0x00000000080091d4                memset
 .text._vsprintf_r
                0x00000000080091e4       0x2c c:/st/stm32cubeide_1.6.0/stm32cubeide/plugins/com.st.stm32cube.ide.mcu.externaltools.gnu-tools-for-stm32.9-2020-q2-update.win32_1.5.0.202011040924/tools/bin/../lib/gcc/arm-none-eabi/9.3.1/../../../../arm-none-eabi/lib/thumb/v7-m/nofp\libc_nano.a(lib_a-vsprintf.o)
                0x00000000080091e4                _vsprintf_r
                0x00000000080091e4                _vsiprintf_r
 .text.vsprintf
                0x0000000008009210       0x14 c:/st/stm32cubeide_1.6.0/stm32cubeide/plugins/com.st.stm32cube.ide.mcu.externaltools.gnu-tools-for-stm32.9-2020-q2-update.win32_1.5.0.202011040924/tools/bin/../lib/gcc/arm-none-eabi/9.3.1/../../../../arm-none-eabi/lib/thumb/v7-m/nofp\libc_nano.a(lib_a-vsprintf.o)
                0x0000000008009210                vsiprintf
                0x0000000008009210                vsprintf
 .text.__ssputs_r
                0x0000000008009224       0xb6 c:/st/stm32cubeide_1.6.0/stm32cubeide/plugins/com.st.stm32cube.ide.mcu.externaltools.gnu-tools-for-stm32.9-2020-q2-update.win32_1.5.0.202011040924/tools/bin/../lib/gcc/arm-none-eabi/9.3.1/../../../../arm-none-eabi/lib/thumb/v7-m/nofp\libc_nano.a(lib_a-nano-svfprintf.o)
                0x0000000008009224                __ssputs_r
 *fill*         0x00000000080092da        0x2 
 .text._svfprintf_r
                0x00000000080092dc      0x200 c:/st/stm32cubeide_1.6.0/stm32cubeide/plugins/com.st.stm32cube.ide.mcu.externaltools.gnu-tools-for-stm32.9-2020-q2-update.win32_1.5.0.202011040924/tools/bin/../lib/gcc/arm-none-eabi/9.3.1/../../../../arm-none-eabi/lib/thumb/v7-m/nofp\libc_nano.a(lib_a-nano-svfprintf.o)
                0x00000000080092dc                _svfiprintf_r
                0x00000000080092dc                _svfprintf_r
 .text._printf_common
                0x00000000080094dc       0xde c:/st/stm32cubeide_1.6.0/stm32cubeide/plugins/com.st.stm32cube.ide.mcu.externaltools.gnu-tools-for-stm32.9-2020-q2-update.win32_1.5.0.202011040924/tools/bin/../lib/gcc/arm-none-eabi/9.3.1/../../../../arm-none-eabi/lib/thumb/v7-m/nofp\libc_nano.a(lib_a-nano-vfprintf_i.o)
                0x00000000080094dc                _printf_common
 *fill*         0x00000000080095ba        0x2 
 .text._printf_i
                0x00000000080095bc      0x24c c:/st/stm32cubeide_1.6.0/stm32cubeide/plugins/com.st.stm32cube.ide.mcu.externaltools.gnu-tools-for-stm32.9-2020-q2-update.win32_1.5.0.202011040924/tools/bin/../lib/gcc/arm-none-eabi/9.3.1/../../../../arm-none-eabi/lib/thumb/v7-m/nofp\libc_nano.a(lib_a-nano-vfprintf_i.o)
                0x00000000080095bc                _printf_i
 .text.memchr   0x0000000008009808       0x1c c:/st/stm32cubeide_1.6.0/stm32cubeide/plugins/com.st.stm32cube.ide.mcu.externaltools.gnu-tools-for-stm32.9-2020-q2-update.win32_1.5.0.202011040924/tools/bin/../lib/gcc/arm-none-eabi/9.3.1/../../../../arm-none-eabi/lib/thumb/v7-m/nofp\libc_nano.a(lib_a-memchr-stub.o)
                0x0000000008009808                memchr
 .text.memcpy   0x0000000008009824       0x1c c:/st/stm32cubeide_1.6.0/stm32cubeide/plugins/com.st.stm32cube.ide.mcu.externaltools.gnu-tools-for-stm32.9-2020-q2-update.win32_1.5.0.202011040924/tools/bin/../lib/gcc/arm-none-eabi/9.3.1/../../../../arm-none-eabi/lib/thumb/v7-m/nofp\libc_nano.a(lib_a-memcpy-stub.o)
                0x0000000008009824                memcpy
 .text.memmove  0x0000000008009840       0x34 c:/st/stm32cubeide_1.6.0/stm32cubeide/plugins/com.st.stm32cube.ide.mcu.externaltools.gnu-tools-for-stm32.9-2020-q2-update.win32_1.5.0.202011040924/tools/bin/../lib/gcc/arm-none-eabi/9.3.1/../../../../arm-none-eabi/lib/thumb/v7-m/nofp\libc_nano.a(lib_a-memmove.o)
                0x0000000008009840                memmove
 .text._free_r  0x0000000008009874       0x98 c:/st/stm32cubeide_1.6.0/stm32cubeide/plugins/com.st.stm32cube.ide.mcu.externaltools.gnu-tools-for-stm32.9-2020-q2-update.win32_1.5.0.202011040924/tools/bin/../lib/gcc/arm-none-eabi/9.3.1/../../../../arm-none-eabi/lib/thumb/v7-m/nofp\libc_nano.a(lib_a-nano-freer.o)
                0x0000000008009874                _free_r
 .text._malloc_r
                0x000000000800990c       0xb4 c:/st/stm32cubeide_1.6.0/stm32cubeide/plugins/com.st.stm32cube.ide.mcu.externaltools.gnu-tools-for-stm32.9-2020-q2-update.win32_1.5.0.202011040924/tools/bin/../lib/gcc/arm-none-eabi/9.3.1/../../../../arm-none-eabi/lib/thumb/v7-m/nofp\libc_nano.a(lib_a-nano-mallocr.o)
                0x000000000800990c                _malloc_r
 .text._realloc_r
                0x00000000080099c0       0x4c c:/st/stm32cubeide_1.6.0/stm32cubeide/plugins/com.st.stm32cube.ide.mcu.externaltools.gnu-tools-for-stm32.9-2020-q2-update.win32_1.5.0.202011040924/tools/bin/../lib/gcc/arm-none-eabi/9.3.1/../../../../arm-none-eabi/lib/thumb/v7-m/nofp\libc_nano.a(lib_a-nano-reallocr.o)
                0x00000000080099c0                _realloc_r
 .text._sbrk_r  0x0000000008009a0c       0x20 c:/st/stm32cubeide_1.6.0/stm32cubeide/plugins/com.st.stm32cube.ide.mcu.externaltools.gnu-tools-for-stm32.9-2020-q2-update.win32_1.5.0.202011040924/tools/bin/../lib/gcc/arm-none-eabi/9.3.1/../../../../arm-none-eabi/lib/thumb/v7-m/nofp\libc_nano.a(lib_a-sbrkr.o)
                0x0000000008009a0c                _sbrk_r
 .text.__malloc_lock
                0x0000000008009a2c        0xc c:/st/stm32cubeide_1.6.0/stm32cubeide/plugins/com.st.stm32cube.ide.mcu.externaltools.gnu-tools-for-stm32.9-2020-q2-update.win32_1.5.0.202011040924/tools/bin/../lib/gcc/arm-none-eabi/9.3.1/../../../../arm-none-eabi/lib/thumb/v7-m/nofp\libc_nano.a(lib_a-mlock.o)
                0x0000000008009a2c                __malloc_lock
 .text.__malloc_unlock
                0x0000000008009a38        0xc c:/st/stm32cubeide_1.6.0/stm32cubeide/plugins/com.st.stm32cube.ide.mcu.externaltools.gnu-tools-for-stm32.9-2020-q2-update.win32_1.5.0.202011040924/tools/bin/../lib/gcc/arm-none-eabi/9.3.1/../../../../arm-none-eabi/lib/thumb/v7-m/nofp\libc_nano.a(lib_a-mlock.o)
                0x0000000008009a38                __malloc_unlock
 .text._malloc_usable_size_r
                0x0000000008009a44       0x10 c:/st/stm32cubeide_1.6.0/stm32cubeide/plugins/com.st.stm32cube.ide.mcu.externaltools.gnu-tools-for-stm32.9-2020-q2-update.win32_1.5.0.202011040924/tools/bin/../lib/gcc/arm-none-eabi/9.3.1/../../../../arm-none-eabi/lib/thumb/v7-m/nofp\libc_nano.a(lib_a-nano-msizer.o)
                0x0000000008009a44                _malloc_usable_size_r
 .text.__retarget_lock_acquire_recursive
                0x0000000008009a54        0x2 c:/st/stm32cubeide_1.6.0/stm32cubeide/plugins/com.st.stm32cube.ide.mcu.externaltools.gnu-tools-for-stm32.9-2020-q2-update.win32_1.5.0.202011040924/tools/bin/../lib/gcc/arm-none-eabi/9.3.1/../../../../arm-none-eabi/lib/thumb/v7-m/nofp\libc_nano.a(lib_a-lock.o)
                0x0000000008009a54                __retarget_lock_acquire_recursive
 .text.__retarget_lock_release_recursive
                0x0000000008009a56        0x2 c:/st/stm32cubeide_1.6.0/stm32cubeide/plugins/com.st.stm32cube.ide.mcu.externaltools.gnu-tools-for-stm32.9-2020-q2-update.win32_1.5.0.202011040924/tools/bin/../lib/gcc/arm-none-eabi/9.3.1/../../../../arm-none-eabi/lib/thumb/v7-m/nofp\libc_nano.a(lib_a-lock.o)
                0x0000000008009a56                __retarget_lock_release_recursive
 .text.pow      0x0000000008009a58      0x158 c:/st/stm32cubeide_1.6.0/stm32cubeide/plugins/com.st.stm32cube.ide.mcu.externaltools.gnu-tools-for-stm32.9-2020-q2-update.win32_1.5.0.202011040924/tools/bin/../lib/gcc/arm-none-eabi/9.3.1/../../../../arm-none-eabi/lib/thumb/v7-m/nofp\libm.a(lib_a-w_pow.o)
                0x0000000008009a58                pow
 .text.__ieee754_pow
                0x0000000008009bb0      0xa2c c:/st/stm32cubeide_1.6.0/stm32cubeide/plugins/com.st.stm32cube.ide.mcu.externaltools.gnu-tools-for-stm32.9-2020-q2-update.win32_1.5.0.202011040924/tools/bin/../lib/gcc/arm-none-eabi/9.3.1/../../../../arm-none-eabi/lib/thumb/v7-m/nofp\libm.a(lib_a-e_pow.o)
                0x0000000008009bb0                __ieee754_pow
 .text.__ieee754_sqrt
                0x000000000800a5dc      0x158 c:/st/stm32cubeide_1.6.0/stm32cubeide/plugins/com.st.stm32cube.ide.mcu.externaltools.gnu-tools-for-stm32.9-2020-q2-update.win32_1.5.0.202011040924/tools/bin/../lib/gcc/arm-none-eabi/9.3.1/../../../../arm-none-eabi/lib/thumb/v7-m/nofp\libm.a(lib_a-e_sqrt.o)
                0x000000000800a5dc                __ieee754_sqrt
 .text.fabs     0x000000000800a734        0x6 c:/st/stm32cubeide_1.6.0/stm32cubeide/plugins/com.st.stm32cube.ide.mcu.externaltools.gnu-tools-for-stm32.9-2020-q2-update.win32_1.5.0.202011040924/tools/bin/../lib/gcc/arm-none-eabi/9.3.1/../../../../arm-none-eabi/lib/thumb/v7-m/nofp\libm.a(lib_a-s_fabs.o)
                0x000000000800a734                fabs
 .text.finite   0x000000000800a73a        0xc c:/st/stm32cubeide_1.6.0/stm32cubeide/plugins/com.st.stm32cube.ide.mcu.externaltools.gnu-tools-for-stm32.9-2020-q2-update.win32_1.5.0.202011040924/tools/bin/../lib/gcc/arm-none-eabi/9.3.1/../../../../arm-none-eabi/lib/thumb/v7-m/nofp\libm.a(lib_a-s_finite.o)
                0x000000000800a73a                finite
 *fill*         0x000000000800a746        0x2 
 .text.nan      0x000000000800a748        0xc c:/st/stm32cubeide_1.6.0/stm32cubeide/plugins/com.st.stm32cube.ide.mcu.externaltools.gnu-tools-for-stm32.9-2020-q2-update.win32_1.5.0.202011040924/tools/bin/../lib/gcc/arm-none-eabi/9.3.1/../../../../arm-none-eabi/lib/thumb/v7-m/nofp\libm.a(lib_a-s_nan.o)
                0x000000000800a748                nan
 .text.rint     0x000000000800a754      0x114 c:/st/stm32cubeide_1.6.0/stm32cubeide/plugins/com.st.stm32cube.ide.mcu.externaltools.gnu-tools-for-stm32.9-2020-q2-update.win32_1.5.0.202011040924/tools/bin/../lib/gcc/arm-none-eabi/9.3.1/../../../../arm-none-eabi/lib/thumb/v7-m/nofp\libm.a(lib_a-s_rint.o)
                0x000000000800a754                rint
 .text.scalbn   0x000000000800a868      0x10c c:/st/stm32cubeide_1.6.0/stm32cubeide/plugins/com.st.stm32cube.ide.mcu.externaltools.gnu-tools-for-stm32.9-2020-q2-update.win32_1.5.0.202011040924/tools/bin/../lib/gcc/arm-none-eabi/9.3.1/../../../../arm-none-eabi/lib/thumb/v7-m/nofp\libm.a(lib_a-s_scalbn.o)
                0x000000000800a868                scalbn
 *(.glue_7)
 .glue_7        0x000000000800a974        0x0 linker stubs
 *(.glue_7t)
 .glue_7t       0x000000000800a974        0x0 linker stubs
 *(.eh_frame)
 .eh_frame      0x000000000800a974        0x0 c:/st/stm32cubeide_1.6.0/stm32cubeide/plugins/com.st.stm32cube.ide.mcu.externaltools.gnu-tools-for-stm32.9-2020-q2-update.win32_1.5.0.202011040924/tools/bin/../lib/gcc/arm-none-eabi/9.3.1/thumb/v7-m/nofp/crtbegin.o
 *(.init)
 .init          0x000000000800a974        0x4 c:/st/stm32cubeide_1.6.0/stm32cubeide/plugins/com.st.stm32cube.ide.mcu.externaltools.gnu-tools-for-stm32.9-2020-q2-update.win32_1.5.0.202011040924/tools/bin/../lib/gcc/arm-none-eabi/9.3.1/thumb/v7-m/nofp/crti.o
                0x000000000800a974                _init
 .init          0x000000000800a978        0x8 c:/st/stm32cubeide_1.6.0/stm32cubeide/plugins/com.st.stm32cube.ide.mcu.externaltools.gnu-tools-for-stm32.9-2020-q2-update.win32_1.5.0.202011040924/tools/bin/../lib/gcc/arm-none-eabi/9.3.1/thumb/v7-m/nofp/crtn.o
 *(.fini)
 .fini          0x000000000800a980        0x4 c:/st/stm32cubeide_1.6.0/stm32cubeide/plugins/com.st.stm32cube.ide.mcu.externaltools.gnu-tools-for-stm32.9-2020-q2-update.win32_1.5.0.202011040924/tools/bin/../lib/gcc/arm-none-eabi/9.3.1/thumb/v7-m/nofp/crti.o
                0x000000000800a980                _fini
 .fini          0x000000000800a984        0x8 c:/st/stm32cubeide_1.6.0/stm32cubeide/plugins/com.st.stm32cube.ide.mcu.externaltools.gnu-tools-for-stm32.9-2020-q2-update.win32_1.5.0.202011040924/tools/bin/../lib/gcc/arm-none-eabi/9.3.1/thumb/v7-m/nofp/crtn.o
                0x000000000800a98c                . = ALIGN (0x4)
                0x000000000800a98c                _etext = .

.vfp11_veneer   0x000000000800a98c        0x0
 .vfp11_veneer  0x000000000800a98c        0x0 linker stubs

.v4_bx          0x000000000800a98c        0x0
 .v4_bx         0x000000000800a98c        0x0 linker stubs

.iplt           0x000000000800a98c        0x0
 .iplt          0x000000000800a98c        0x0 c:/st/stm32cubeide_1.6.0/stm32cubeide/plugins/com.st.stm32cube.ide.mcu.externaltools.gnu-tools-for-stm32.9-2020-q2-update.win32_1.5.0.202011040924/tools/bin/../lib/gcc/arm-none-eabi/9.3.1/thumb/v7-m/nofp/crtbegin.o

.rodata         0x000000000800a990      0x500
                0x000000000800a990                . = ALIGN (0x4)
 *(.rodata)
 .rodata        0x000000000800a990        0x7 Core/Src/lcd_i2c.o
 *fill*         0x000000000800a997        0x1 
 .rodata        0x000000000800a998      0x263 Core/Src/main.o
 *fill*         0x000000000800abfb        0x1 
 .rodata        0x000000000800abfc       0x10 Drivers/STM32F1xx_HAL_Driver/Src/stm32f1xx_hal_rcc.o
 .rodata        0x000000000800ac0c       0x10 Drivers/STM32F1xx_HAL_Driver/Src/stm32f1xx_hal_rcc_ex.o
 .rodata        0x000000000800ac1c       0x22 Micrium/Software/uCOS-II/Source/os_core.o
 *fill*         0x000000000800ac3e        0x2 
 .rodata        0x000000000800ac40        0x2 Micrium/Software/uCOS-II/Source/os_flag.o
 *fill*         0x000000000800ac42        0x2 
 .rodata        0x000000000800ac44        0x2 Micrium/Software/uCOS-II/Source/os_mem.o
 *fill*         0x000000000800ac46        0x2 
 .rodata        0x000000000800ac48        0x2 Micrium/Software/uCOS-II/Source/os_sem.o
 *fill*         0x000000000800ac4a        0x2 
 .rodata        0x000000000800ac4c        0x2 Micrium/Software/uCOS-II/Source/os_task.o
 *fill*         0x000000000800ac4e        0x2 
 .rodata        0x000000000800ac50       0x39 Micrium/Software/uCOS-II/Source/os_tmr.o
 *(.rodata*)
 *fill*         0x000000000800ac89        0x3 
 .rodata.AHBPrescTable
                0x000000000800ac8c       0x10 Core/Src/system_stm32f1xx.o
                0x000000000800ac8c                AHBPrescTable
 .rodata.APBPrescTable
                0x000000000800ac9c        0x8 Core/Src/system_stm32f1xx.o
                0x000000000800ac9c                APBPrescTable
 .rodata.OSDebugEn
                0x000000000800aca4        0x2 Micrium/Software/uCOS-II/Ports/ARM-Cortex-M/ARMv7-M/GNU/os_dbg.o
                0x000000000800aca4                OSDebugEn
 *fill*         0x000000000800aca6        0x2 
 .rodata.OSEndiannessTest
                0x000000000800aca8        0x4 Micrium/Software/uCOS-II/Ports/ARM-Cortex-M/ARMv7-M/GNU/os_dbg.o
                0x000000000800aca8                OSEndiannessTest
 .rodata.OSEventEn
                0x000000000800acac        0x2 Micrium/Software/uCOS-II/Ports/ARM-Cortex-M/ARMv7-M/GNU/os_dbg.o
                0x000000000800acac                OSEventEn
 .rodata.OSEventMax
                0x000000000800acae        0x2 Micrium/Software/uCOS-II/Ports/ARM-Cortex-M/ARMv7-M/GNU/os_dbg.o
                0x000000000800acae                OSEventMax
 .rodata.OSEventNameEn
                0x000000000800acb0        0x2 Micrium/Software/uCOS-II/Ports/ARM-Cortex-M/ARMv7-M/GNU/os_dbg.o
                0x000000000800acb0                OSEventNameEn
 .rodata.OSEventSize
                0x000000000800acb2        0x2 Micrium/Software/uCOS-II/Ports/ARM-Cortex-M/ARMv7-M/GNU/os_dbg.o
                0x000000000800acb2                OSEventSize
 .rodata.OSEventTblSize
                0x000000000800acb4        0x2 Micrium/Software/uCOS-II/Ports/ARM-Cortex-M/ARMv7-M/GNU/os_dbg.o
                0x000000000800acb4                OSEventTblSize
 .rodata.OSEventMultiEn
                0x000000000800acb6        0x2 Micrium/Software/uCOS-II/Ports/ARM-Cortex-M/ARMv7-M/GNU/os_dbg.o
                0x000000000800acb6                OSEventMultiEn
 .rodata.OSFlagEn
                0x000000000800acb8        0x2 Micrium/Software/uCOS-II/Ports/ARM-Cortex-M/ARMv7-M/GNU/os_dbg.o
                0x000000000800acb8                OSFlagEn
 .rodata.OSFlagGrpSize
                0x000000000800acba        0x2 Micrium/Software/uCOS-II/Ports/ARM-Cortex-M/ARMv7-M/GNU/os_dbg.o
                0x000000000800acba                OSFlagGrpSize
 .rodata.OSFlagNodeSize
                0x000000000800acbc        0x2 Micrium/Software/uCOS-II/Ports/ARM-Cortex-M/ARMv7-M/GNU/os_dbg.o
                0x000000000800acbc                OSFlagNodeSize
 .rodata.OSFlagWidth
                0x000000000800acbe        0x2 Micrium/Software/uCOS-II/Ports/ARM-Cortex-M/ARMv7-M/GNU/os_dbg.o
                0x000000000800acbe                OSFlagWidth
 .rodata.OSFlagMax
                0x000000000800acc0        0x2 Micrium/Software/uCOS-II/Ports/ARM-Cortex-M/ARMv7-M/GNU/os_dbg.o
                0x000000000800acc0                OSFlagMax
 .rodata.OSFlagNameEn
                0x000000000800acc2        0x2 Micrium/Software/uCOS-II/Ports/ARM-Cortex-M/ARMv7-M/GNU/os_dbg.o
                0x000000000800acc2                OSFlagNameEn
 .rodata.OSLowestPrio
                0x000000000800acc4        0x2 Micrium/Software/uCOS-II/Ports/ARM-Cortex-M/ARMv7-M/GNU/os_dbg.o
                0x000000000800acc4                OSLowestPrio
 .rodata.OSMboxEn
                0x000000000800acc6        0x2 Micrium/Software/uCOS-II/Ports/ARM-Cortex-M/ARMv7-M/GNU/os_dbg.o
                0x000000000800acc6                OSMboxEn
 .rodata.OSMemEn
                0x000000000800acc8        0x2 Micrium/Software/uCOS-II/Ports/ARM-Cortex-M/ARMv7-M/GNU/os_dbg.o
                0x000000000800acc8                OSMemEn
 .rodata.OSMemMax
                0x000000000800acca        0x2 Micrium/Software/uCOS-II/Ports/ARM-Cortex-M/ARMv7-M/GNU/os_dbg.o
                0x000000000800acca                OSMemMax
 .rodata.OSMemNameEn
                0x000000000800accc        0x2 Micrium/Software/uCOS-II/Ports/ARM-Cortex-M/ARMv7-M/GNU/os_dbg.o
                0x000000000800accc                OSMemNameEn
 .rodata.OSMemSize
                0x000000000800acce        0x2 Micrium/Software/uCOS-II/Ports/ARM-Cortex-M/ARMv7-M/GNU/os_dbg.o
                0x000000000800acce                OSMemSize
 .rodata.OSMemTblSize
                0x000000000800acd0        0x2 Micrium/Software/uCOS-II/Ports/ARM-Cortex-M/ARMv7-M/GNU/os_dbg.o
                0x000000000800acd0                OSMemTblSize
 .rodata.OSMutexEn
                0x000000000800acd2        0x2 Micrium/Software/uCOS-II/Ports/ARM-Cortex-M/ARMv7-M/GNU/os_dbg.o
                0x000000000800acd2                OSMutexEn
 .rodata.OSPtrSize
                0x000000000800acd4        0x2 Micrium/Software/uCOS-II/Ports/ARM-Cortex-M/ARMv7-M/GNU/os_dbg.o
                0x000000000800acd4                OSPtrSize
 .rodata.OSQEn  0x000000000800acd6        0x2 Micrium/Software/uCOS-II/Ports/ARM-Cortex-M/ARMv7-M/GNU/os_dbg.o
                0x000000000800acd6                OSQEn
 .rodata.OSQMax
                0x000000000800acd8        0x2 Micrium/Software/uCOS-II/Ports/ARM-Cortex-M/ARMv7-M/GNU/os_dbg.o
                0x000000000800acd8                OSQMax
 .rodata.OSQSize
                0x000000000800acda        0x2 Micrium/Software/uCOS-II/Ports/ARM-Cortex-M/ARMv7-M/GNU/os_dbg.o
                0x000000000800acda                OSQSize
 .rodata.OSRdyTblSize
                0x000000000800acdc        0x2 Micrium/Software/uCOS-II/Ports/ARM-Cortex-M/ARMv7-M/GNU/os_dbg.o
                0x000000000800acdc                OSRdyTblSize
 .rodata.OSSemEn
                0x000000000800acde        0x2 Micrium/Software/uCOS-II/Ports/ARM-Cortex-M/ARMv7-M/GNU/os_dbg.o
                0x000000000800acde                OSSemEn
 .rodata.OSStkWidth
                0x000000000800ace0        0x2 Micrium/Software/uCOS-II/Ports/ARM-Cortex-M/ARMv7-M/GNU/os_dbg.o
                0x000000000800ace0                OSStkWidth
 .rodata.OSTaskCreateEn
                0x000000000800ace2        0x2 Micrium/Software/uCOS-II/Ports/ARM-Cortex-M/ARMv7-M/GNU/os_dbg.o
                0x000000000800ace2                OSTaskCreateEn
 .rodata.OSTaskCreateExtEn
                0x000000000800ace4        0x2 Micrium/Software/uCOS-II/Ports/ARM-Cortex-M/ARMv7-M/GNU/os_dbg.o
                0x000000000800ace4                OSTaskCreateExtEn
 .rodata.OSTaskDelEn
                0x000000000800ace6        0x2 Micrium/Software/uCOS-II/Ports/ARM-Cortex-M/ARMv7-M/GNU/os_dbg.o
                0x000000000800ace6                OSTaskDelEn
 .rodata.OSTaskIdleStkSize
                0x000000000800ace8        0x2 Micrium/Software/uCOS-II/Ports/ARM-Cortex-M/ARMv7-M/GNU/os_dbg.o
                0x000000000800ace8                OSTaskIdleStkSize
 .rodata.OSTaskProfileEn
                0x000000000800acea        0x2 Micrium/Software/uCOS-II/Ports/ARM-Cortex-M/ARMv7-M/GNU/os_dbg.o
                0x000000000800acea                OSTaskProfileEn
 .rodata.OSTaskMax
                0x000000000800acec        0x2 Micrium/Software/uCOS-II/Ports/ARM-Cortex-M/ARMv7-M/GNU/os_dbg.o
                0x000000000800acec                OSTaskMax
 .rodata.OSTaskNameEn
                0x000000000800acee        0x2 Micrium/Software/uCOS-II/Ports/ARM-Cortex-M/ARMv7-M/GNU/os_dbg.o
                0x000000000800acee                OSTaskNameEn
 .rodata.OSTaskStatEn
                0x000000000800acf0        0x2 Micrium/Software/uCOS-II/Ports/ARM-Cortex-M/ARMv7-M/GNU/os_dbg.o
                0x000000000800acf0                OSTaskStatEn
 .rodata.OSTaskStatStkSize
                0x000000000800acf2        0x2 Micrium/Software/uCOS-II/Ports/ARM-Cortex-M/ARMv7-M/GNU/os_dbg.o
                0x000000000800acf2                OSTaskStatStkSize
 .rodata.OSTaskStatStkChkEn
                0x000000000800acf4        0x2 Micrium/Software/uCOS-II/Ports/ARM-Cortex-M/ARMv7-M/GNU/os_dbg.o
                0x000000000800acf4                OSTaskStatStkChkEn
 .rodata.OSTaskSwHookEn
                0x000000000800acf6        0x2 Micrium/Software/uCOS-II/Ports/ARM-Cortex-M/ARMv7-M/GNU/os_dbg.o
                0x000000000800acf6                OSTaskSwHookEn
 .rodata.OSTCBPrioTblMax
                0x000000000800acf8        0x2 Micrium/Software/uCOS-II/Ports/ARM-Cortex-M/ARMv7-M/GNU/os_dbg.o
                0x000000000800acf8                OSTCBPrioTblMax
 .rodata.OSTCBSize
                0x000000000800acfa        0x2 Micrium/Software/uCOS-II/Ports/ARM-Cortex-M/ARMv7-M/GNU/os_dbg.o
                0x000000000800acfa                OSTCBSize
 .rodata.OSTicksPerSec
                0x000000000800acfc        0x2 Micrium/Software/uCOS-II/Ports/ARM-Cortex-M/ARMv7-M/GNU/os_dbg.o
                0x000000000800acfc                OSTicksPerSec
 .rodata.OSTimeTickHookEn
                0x000000000800acfe        0x2 Micrium/Software/uCOS-II/Ports/ARM-Cortex-M/ARMv7-M/GNU/os_dbg.o
                0x000000000800acfe                OSTimeTickHookEn
 .rodata.OSVersionNbr
                0x000000000800ad00        0x2 Micrium/Software/uCOS-II/Ports/ARM-Cortex-M/ARMv7-M/GNU/os_dbg.o
                0x000000000800ad00                OSVersionNbr
 .rodata.OSTmrEn
                0x000000000800ad02        0x2 Micrium/Software/uCOS-II/Ports/ARM-Cortex-M/ARMv7-M/GNU/os_dbg.o
                0x000000000800ad02                OSTmrEn
 .rodata.OSTmrCfgMax
                0x000000000800ad04        0x2 Micrium/Software/uCOS-II/Ports/ARM-Cortex-M/ARMv7-M/GNU/os_dbg.o
                0x000000000800ad04                OSTmrCfgMax
 .rodata.OSTmrCfgNameEn
                0x000000000800ad06        0x2 Micrium/Software/uCOS-II/Ports/ARM-Cortex-M/ARMv7-M/GNU/os_dbg.o
                0x000000000800ad06                OSTmrCfgNameEn
 .rodata.OSTmrCfgWheelSize
                0x000000000800ad08        0x2 Micrium/Software/uCOS-II/Ports/ARM-Cortex-M/ARMv7-M/GNU/os_dbg.o
                0x000000000800ad08                OSTmrCfgWheelSize
 .rodata.OSTmrCfgTicksPerSec
                0x000000000800ad0a        0x2 Micrium/Software/uCOS-II/Ports/ARM-Cortex-M/ARMv7-M/GNU/os_dbg.o
                0x000000000800ad0a                OSTmrCfgTicksPerSec
 .rodata.OSTmrSize
                0x000000000800ad0c        0x2 Micrium/Software/uCOS-II/Ports/ARM-Cortex-M/ARMv7-M/GNU/os_dbg.o
                0x000000000800ad0c                OSTmrSize
 .rodata.OSTmrTblSize
                0x000000000800ad0e        0x2 Micrium/Software/uCOS-II/Ports/ARM-Cortex-M/ARMv7-M/GNU/os_dbg.o
                0x000000000800ad0e                OSTmrTblSize
 .rodata.OSTmrWheelSize
                0x000000000800ad10        0x2 Micrium/Software/uCOS-II/Ports/ARM-Cortex-M/ARMv7-M/GNU/os_dbg.o
                0x000000000800ad10                OSTmrWheelSize
 .rodata.OSTmrWheelTblSize
                0x000000000800ad12        0x2 Micrium/Software/uCOS-II/Ports/ARM-Cortex-M/ARMv7-M/GNU/os_dbg.o
                0x000000000800ad12                OSTmrWheelTblSize
 .rodata.OSDataSize
                0x000000000800ad14        0x2 Micrium/Software/uCOS-II/Ports/ARM-Cortex-M/ARMv7-M/GNU/os_dbg.o
                0x000000000800ad14                OSDataSize
 *fill*         0x000000000800ad16        0x2 
 .rodata.OSUnMapTbl
                0x000000000800ad18      0x100 Micrium/Software/uCOS-II/Source/os_core.o
                0x000000000800ad18                OSUnMapTbl
 .rodata._svfprintf_r.str1.1
                0x000000000800ae18       0x11 c:/st/stm32cubeide_1.6.0/stm32cubeide/plugins/com.st.stm32cube.ide.mcu.externaltools.gnu-tools-for-stm32.9-2020-q2-update.win32_1.5.0.202011040924/tools/bin/../lib/gcc/arm-none-eabi/9.3.1/../../../../arm-none-eabi/lib/thumb/v7-m/nofp\libc_nano.a(lib_a-nano-svfprintf.o)
 .rodata._printf_i.str1.1
                0x000000000800ae29       0x22 c:/st/stm32cubeide_1.6.0/stm32cubeide/plugins/com.st.stm32cube.ide.mcu.externaltools.gnu-tools-for-stm32.9-2020-q2-update.win32_1.5.0.202011040924/tools/bin/../lib/gcc/arm-none-eabi/9.3.1/../../../../arm-none-eabi/lib/thumb/v7-m/nofp\libc_nano.a(lib_a-nano-vfprintf_i.o)
 .rodata.__ieee754_pow.str1.1
                0x000000000800ae4b       0x22 c:/st/stm32cubeide_1.6.0/stm32cubeide/plugins/com.st.stm32cube.ide.mcu.externaltools.gnu-tools-for-stm32.9-2020-q2-update.win32_1.5.0.202011040924/tools/bin/../lib/gcc/arm-none-eabi/9.3.1/../../../../arm-none-eabi/lib/thumb/v7-m/nofp\libm.a(lib_a-e_pow.o)
                                          0x1 (size before relaxing)
 *fill*         0x000000000800ae4b        0x5 
 .rodata.bp     0x000000000800ae50       0x10 c:/st/stm32cubeide_1.6.0/stm32cubeide/plugins/com.st.stm32cube.ide.mcu.externaltools.gnu-tools-for-stm32.9-2020-q2-update.win32_1.5.0.202011040924/tools/bin/../lib/gcc/arm-none-eabi/9.3.1/../../../../arm-none-eabi/lib/thumb/v7-m/nofp\libm.a(lib_a-e_pow.o)
 .rodata.dp_h   0x000000000800ae60       0x10 c:/st/stm32cubeide_1.6.0/stm32cubeide/plugins/com.st.stm32cube.ide.mcu.externaltools.gnu-tools-for-stm32.9-2020-q2-update.win32_1.5.0.202011040924/tools/bin/../lib/gcc/arm-none-eabi/9.3.1/../../../../arm-none-eabi/lib/thumb/v7-m/nofp\libm.a(lib_a-e_pow.o)
 .rodata.dp_l   0x000000000800ae70       0x10 c:/st/stm32cubeide_1.6.0/stm32cubeide/plugins/com.st.stm32cube.ide.mcu.externaltools.gnu-tools-for-stm32.9-2020-q2-update.win32_1.5.0.202011040924/tools/bin/../lib/gcc/arm-none-eabi/9.3.1/../../../../arm-none-eabi/lib/thumb/v7-m/nofp\libm.a(lib_a-e_pow.o)
 .rodata.TWO52  0x000000000800ae80       0x10 c:/st/stm32cubeide_1.6.0/stm32cubeide/plugins/com.st.stm32cube.ide.mcu.externaltools.gnu-tools-for-stm32.9-2020-q2-update.win32_1.5.0.202011040924/tools/bin/../lib/gcc/arm-none-eabi/9.3.1/../../../../arm-none-eabi/lib/thumb/v7-m/nofp\libm.a(lib_a-s_rint.o)
                0x000000000800ae90                . = ALIGN (0x4)

.rel.dyn        0x000000000800ae90        0x0
 .rel.iplt      0x000000000800ae90        0x0 c:/st/stm32cubeide_1.6.0/stm32cubeide/plugins/com.st.stm32cube.ide.mcu.externaltools.gnu-tools-for-stm32.9-2020-q2-update.win32_1.5.0.202011040924/tools/bin/../lib/gcc/arm-none-eabi/9.3.1/thumb/v7-m/nofp/crtbegin.o

.ARM.extab      0x000000000800ae90        0x0
                0x000000000800ae90                . = ALIGN (0x4)
 *(.ARM.extab* .gnu.linkonce.armextab.*)
                0x000000000800ae90                . = ALIGN (0x4)

.ARM            0x000000000800ae90        0x0
                0x000000000800ae90                . = ALIGN (0x4)
                0x000000000800ae90                __exidx_start = .
 *(.ARM.exidx*)
                0x000000000800ae90                __exidx_end = .
                0x000000000800ae90                . = ALIGN (0x4)

.preinit_array  0x000000000800ae90        0x0
                0x000000000800ae90                . = ALIGN (0x4)
                0x000000000800ae90                PROVIDE (__preinit_array_start = .)
 *(.preinit_array*)
                0x000000000800ae90                PROVIDE (__preinit_array_end = .)
                0x000000000800ae90                . = ALIGN (0x4)

.init_array     0x000000000800ae90        0x4
                0x000000000800ae90                . = ALIGN (0x4)
                0x000000000800ae90                PROVIDE (__init_array_start = .)
 *(SORT_BY_NAME(.init_array.*))
 *(.init_array*)
 .init_array    0x000000000800ae90        0x4 c:/st/stm32cubeide_1.6.0/stm32cubeide/plugins/com.st.stm32cube.ide.mcu.externaltools.gnu-tools-for-stm32.9-2020-q2-update.win32_1.5.0.202011040924/tools/bin/../lib/gcc/arm-none-eabi/9.3.1/thumb/v7-m/nofp/crtbegin.o
                0x000000000800ae94                PROVIDE (__init_array_end = .)
                0x000000000800ae94                . = ALIGN (0x4)

.fini_array     0x000000000800ae94        0x4
                0x000000000800ae94                . = ALIGN (0x4)
                [!provide]                        PROVIDE (__fini_array_start = .)
 *(SORT_BY_NAME(.fini_array.*))
 *(.fini_array*)
 .fini_array    0x000000000800ae94        0x4 c:/st/stm32cubeide_1.6.0/stm32cubeide/plugins/com.st.stm32cube.ide.mcu.externaltools.gnu-tools-for-stm32.9-2020-q2-update.win32_1.5.0.202011040924/tools/bin/../lib/gcc/arm-none-eabi/9.3.1/thumb/v7-m/nofp/crtbegin.o
                [!provide]                        PROVIDE (__fini_array_end = .)
                0x000000000800ae98                . = ALIGN (0x4)
                0x000000000800ae98                _sidata = LOADADDR (.data)

.data           0x0000000020000000       0x70 load address 0x000000000800ae98
                0x0000000020000000                . = ALIGN (0x4)
                0x0000000020000000                _sdata = .
 *(.data)
 *(.data*)
 .data.SystemCoreClock
                0x0000000020000000        0x4 Core/Src/system_stm32f1xx.o
                0x0000000020000000                SystemCoreClock
 .data.uwTickPrio
                0x0000000020000004        0x4 Drivers/STM32F1xx_HAL_Driver/Src/stm32f1xx_hal.o
                0x0000000020000004                uwTickPrio
 .data._impure_ptr
                0x0000000020000008        0x4 c:/st/stm32cubeide_1.6.0/stm32cubeide/plugins/com.st.stm32cube.ide.mcu.externaltools.gnu-tools-for-stm32.9-2020-q2-update.win32_1.5.0.202011040924/tools/bin/../lib/gcc/arm-none-eabi/9.3.1/../../../../arm-none-eabi/lib/thumb/v7-m/nofp\libc_nano.a(lib_a-impure.o)
                0x0000000020000008                _impure_ptr
 .data.impure_data
                0x000000002000000c       0x60 c:/st/stm32cubeide_1.6.0/stm32cubeide/plugins/com.st.stm32cube.ide.mcu.externaltools.gnu-tools-for-stm32.9-2020-q2-update.win32_1.5.0.202011040924/tools/bin/../lib/gcc/arm-none-eabi/9.3.1/../../../../arm-none-eabi/lib/thumb/v7-m/nofp\libc_nano.a(lib_a-impure.o)
 .data.__fdlib_version
                0x000000002000006c        0x1 c:/st/stm32cubeide_1.6.0/stm32cubeide/plugins/com.st.stm32cube.ide.mcu.externaltools.gnu-tools-for-stm32.9-2020-q2-update.win32_1.5.0.202011040924/tools/bin/../lib/gcc/arm-none-eabi/9.3.1/../../../../arm-none-eabi/lib/thumb/v7-m/nofp\libm.a(lib_a-s_lib_ver.o)
                0x000000002000006c                __fdlib_version
                0x0000000020000070                . = ALIGN (0x4)
 *fill*         0x000000002000006d        0x3 
                0x0000000020000070                _edata = .

.igot.plt       0x0000000020000070        0x0 load address 0x000000000800af08
 .igot.plt      0x0000000020000070        0x0 c:/st/stm32cubeide_1.6.0/stm32cubeide/plugins/com.st.stm32cube.ide.mcu.externaltools.gnu-tools-for-stm32.9-2020-q2-update.win32_1.5.0.202011040924/tools/bin/../lib/gcc/arm-none-eabi/9.3.1/thumb/v7-m/nofp/crtbegin.o
                0x0000000020000070                . = ALIGN (0x4)

.bss            0x0000000020000070     0x3938 load address 0x000000000800af08
                0x0000000020000070                _sbss = .
                0x0000000020000070                __bss_start__ = _sbss
 *(.bss)
 .bss           0x0000000020000070       0x1c c:/st/stm32cubeide_1.6.0/stm32cubeide/plugins/com.st.stm32cube.ide.mcu.externaltools.gnu-tools-for-stm32.9-2020-q2-update.win32_1.5.0.202011040924/tools/bin/../lib/gcc/arm-none-eabi/9.3.1/thumb/v7-m/nofp/crtbegin.o
 *(.bss*)
 .bss.LCD_I2CHandle
                0x000000002000008c        0x4 Core/Src/lcd_i2c.o
 .bss.LCD_I2C_SLAVE_ADDRESS
                0x0000000020000090        0x1 Core/Src/lcd_i2c.o
 *fill*         0x0000000020000091        0x3 
 .bss.StartupTaskStk
                0x0000000020000094      0x200 Core/Src/main.o
 .bss.TiempoStk
                0x0000000020000294      0x200 Core/Src/main.o
 .bss.TeclasStk
                0x0000000020000494      0x200 Core/Src/main.o
 .bss.DisplayStk
                0x0000000020000694      0x4b0 Core/Src/main.o
 .bss.Sensores_1Stk
                0x0000000020000b44      0x200 Core/Src/main.o
 .bss.Sensores_2Stk
                0x0000000020000d44      0x320 Core/Src/main.o
 .bss.LedStk    0x0000000020001064      0x200 Core/Src/main.o
 .bss.Bomba_filtradoStk
                0x0000000020001264      0x200 Core/Src/main.o
 .bss.Bomba_dosif_1Stk
                0x0000000020001464      0x200 Core/Src/main.o
 .bss.Bomba_dosif_2Stk
                0x0000000020001664      0x200 Core/Src/main.o
 .bss.IonizacionStk
                0x0000000020001864      0x200 Core/Src/main.o
 .bss.MenuStk   0x0000000020001a64      0x200 Core/Src/main.o
 .bss.Manejo_salidasStk
                0x0000000020001c64      0x200 Core/Src/main.o
 .bss.medicion_pHStk
                0x0000000020001e64      0x200 Core/Src/main.o
 .bss.pH_adc    0x0000000020002064        0x4 Core/Src/main.o
                0x0000000020002064                pH_adc
 .bss.pH        0x0000000020002068        0x4 Core/Src/main.o
                0x0000000020002068                pH
 .bss.nivel_pileta
                0x000000002000206c        0x4 Core/Src/main.o
                0x000000002000206c                nivel_pileta
 .bss.temperatura
                0x0000000020002070        0x4 Core/Src/main.o
                0x0000000020002070                temperatura
 .bss.nivel_pH  0x0000000020002074        0x4 Core/Src/main.o
                0x0000000020002074                nivel_pH
 .bss.nivel_clarif
                0x0000000020002078        0x4 Core/Src/main.o
                0x0000000020002078                nivel_clarif
 .bss.seg       0x000000002000207c        0x1 Core/Src/main.o
                0x000000002000207c                seg
 .bss.min       0x000000002000207d        0x1 Core/Src/main.o
                0x000000002000207d                min
 .bss.hora      0x000000002000207e        0x1 Core/Src/main.o
                0x000000002000207e                hora
 .bss.pres_tecla
                0x000000002000207f        0x1 Core/Src/main.o
                0x000000002000207f                pres_tecla
 .bss.tecla_pres
                0x0000000020002080        0x1 Core/Src/main.o
                0x0000000020002080                tecla_pres
 *fill*         0x0000000020002081        0x3 
 .bss.litros_pileta
                0x0000000020002084        0x4 Core/Src/main.o
                0x0000000020002084                litros_pileta
 .bss.indice    0x0000000020002088        0x1 Core/Src/main.o
                0x0000000020002088                indice
 .bss.menu      0x0000000020002089        0x1 Core/Src/main.o
                0x0000000020002089                menu
 .bss.hora_activa
                0x000000002000208a        0x1 Core/Src/main.o
                0x000000002000208a                hora_activa
 .bss.minutos_activa
                0x000000002000208b        0x1 Core/Src/main.o
                0x000000002000208b                minutos_activa
 .bss.Temperature
                0x000000002000208c        0x4 Core/Src/sensores.o
                0x000000002000208c                Temperature
 .bss.Presence  0x0000000020002090        0x1 Core/Src/sensores.o
                0x0000000020002090                Presence
 *fill*         0x0000000020002091        0x3 
 .bss.IC_Val1   0x0000000020002094        0x4 Core/Src/sensores.o
                0x0000000020002094                IC_Val1
 .bss.IC_Val2   0x0000000020002098        0x4 Core/Src/sensores.o
                0x0000000020002098                IC_Val2
 .bss.Difference
                0x000000002000209c        0x4 Core/Src/sensores.o
                0x000000002000209c                Difference
 .bss.Is_First_Captured
                0x00000000200020a0        0x1 Core/Src/sensores.o
                0x00000000200020a0                Is_First_Captured
 .bss.Distance_1
                0x00000000200020a1        0x1 Core/Src/sensores.o
                0x00000000200020a1                Distance_1
 .bss.Distance_2
                0x00000000200020a2        0x1 Core/Src/sensores.o
                0x00000000200020a2                Distance_2
 *fill*         0x00000000200020a3        0x1 
 .bss.heap_end.5222
                0x00000000200020a4        0x4 Core/Src/sysmem.o
 .bss.OSTmrCtr  0x00000000200020a8        0x2 Micrium/Software/uCOS-II/Ports/ARM-Cortex-M/ARMv7-M/os_cpu_c.o
 *fill*         0x00000000200020aa        0x2 
 .bss.__malloc_free_list
                0x00000000200020ac        0x4 c:/st/stm32cubeide_1.6.0/stm32cubeide/plugins/com.st.stm32cube.ide.mcu.externaltools.gnu-tools-for-stm32.9-2020-q2-update.win32_1.5.0.202011040924/tools/bin/../lib/gcc/arm-none-eabi/9.3.1/../../../../arm-none-eabi/lib/thumb/v7-m/nofp\libc_nano.a(lib_a-nano-mallocr.o)
                0x00000000200020ac                __malloc_free_list
 .bss.__malloc_sbrk_start
                0x00000000200020b0        0x4 c:/st/stm32cubeide_1.6.0/stm32cubeide/plugins/com.st.stm32cube.ide.mcu.externaltools.gnu-tools-for-stm32.9-2020-q2-update.win32_1.5.0.202011040924/tools/bin/../lib/gcc/arm-none-eabi/9.3.1/../../../../arm-none-eabi/lib/thumb/v7-m/nofp\libc_nano.a(lib_a-nano-mallocr.o)
                0x00000000200020b0                __malloc_sbrk_start
 *(COMMON)
 COMMON         0x00000000200020b4       0xfc Core/Src/main.o
                0x00000000200020b4                hi2c1
                0x0000000020002108                litros
                0x0000000020002128                hadc1
                0x0000000020002158                htim1
                0x00000000200021a0                hora_button
                0x00000000200021a8                minutos_button
 COMMON         0x00000000200021b0        0xb Core/Src/sensores.o
                0x00000000200021b0                Rh_byte1
                0x00000000200021b2                RH
                0x00000000200021b4                TEMP
                0x00000000200021b6                Temp_byte1
                0x00000000200021b7                Rh_byte2
                0x00000000200021b8                SUM
                0x00000000200021ba                Temp_byte2
 *fill*         0x00000000200021bb        0x1 
 COMMON         0x00000000200021bc      0x408 Micrium/Software/uCOS-II/Ports/ARM-Cortex-M/ARMv7-M/os_cpu_c.o
                0x00000000200021bc                OS_CPU_ExceptStkBase
                0x00000000200021c0                OS_KA_BASEPRI_Boundary
                0x00000000200021c4                OS_CPU_ExceptStk
 COMMON         0x00000000200025c4     0x13d4 Micrium/Software/uCOS-II/Source/os_core.o
                0x00000000200025c4                OSTmrFreeList
                0x00000000200025c8                OSTmrWheelTbl
                0x0000000020002600                OSLockNesting
                0x0000000020002604                OSTmrSemSignal
                0x0000000020002608                OSTaskRegNextAvailID
                0x0000000020002609                OSRunning
                0x000000002000260c                OSIdleCtr
                0x0000000020002610                OSTmrUsed
                0x0000000020002612                OSPrioHighRdy
                0x0000000020002614                OSFlagTbl
                0x0000000020002664                OSTmrTbl
                0x00000000200028e4                OSPrioCur
                0x00000000200028e8                OSTCBList
                0x00000000200028ec                OSMemTbl
                0x0000000020002964                OSTickStepState
                0x0000000020002968                OSTaskStatStk
                0x0000000020002b68                OSCtxSwCtr
                0x0000000020002b6c                OSTmrFree
                0x0000000020002b70                OSIdleCtrMax
                0x0000000020002b74                OSTCBFreeList
                0x0000000020002b78                OSCPUUsage
                0x0000000020002b79                OSTaskCtr
                0x0000000020002b7c                OSMemFreeList
                0x0000000020002b80                OSQTbl
                0x0000000020002be0                OSTCBHighRdy
                0x0000000020002be4                OSQFreeList
                0x0000000020002be8                OSRdyGrp
                0x0000000020002bec                OSRdyTbl
                0x0000000020002bf4                OSTmrTaskStk
                0x0000000020002df4                OSEventFreeList
                0x0000000020002df8                OSIntNesting
                0x0000000020002dfc                OSTCBCur
                0x0000000020002e00                OSTmrTime
                0x0000000020002e04                OSTime
                0x0000000020002e08                OSTmrSem
                0x0000000020002e0c                OSTaskIdleStk
                0x000000002000300c                OSEventTbl
                0x00000000200030fc                OSTCBTbl
                0x000000002000388c                OSFlagFreeList
                0x0000000020003890                OSStatRdy
                0x0000000020003894                OSTCBPrioTbl
                0x0000000020003994                OSIdleCtrRun
 COMMON         0x0000000020003998        0x4 c:/st/stm32cubeide_1.6.0/stm32cubeide/plugins/com.st.stm32cube.ide.mcu.externaltools.gnu-tools-for-stm32.9-2020-q2-update.win32_1.5.0.202011040924/tools/bin/../lib/gcc/arm-none-eabi/9.3.1/../../../../arm-none-eabi/lib/thumb/v7-m/nofp\libc_nano.a(lib_a-reent.o)
                0x0000000020003998                errno
 COMMON         0x000000002000399c        0x9 c:/st/stm32cubeide_1.6.0/stm32cubeide/plugins/com.st.stm32cube.ide.mcu.externaltools.gnu-tools-for-stm32.9-2020-q2-update.win32_1.5.0.202011040924/tools/bin/../lib/gcc/arm-none-eabi/9.3.1/../../../../arm-none-eabi/lib/thumb/v7-m/nofp\libc_nano.a(lib_a-lock.o)
                0x000000002000399c                __lock___atexit_recursive_mutex
                0x000000002000399d                __lock___arc4random_mutex
                0x000000002000399e                __lock___env_recursive_mutex
                0x000000002000399f                __lock___sinit_recursive_mutex
                0x00000000200039a0                __lock___malloc_recursive_mutex
                0x00000000200039a1                __lock___at_quick_exit_mutex
                0x00000000200039a2                __lock___dd_hash_mutex
                0x00000000200039a3                __lock___tz_mutex
                0x00000000200039a4                __lock___sfp_recursive_mutex
                0x00000000200039a8                . = ALIGN (0x4)
 *fill*         0x00000000200039a5        0x3 
                0x00000000200039a8                _ebss = .
                0x00000000200039a8                __bss_end__ = _ebss

._user_heap_stack
                0x00000000200039a8      0x600 load address 0x000000000800af08
                0x00000000200039a8                . = ALIGN (0x8)
                0x00000000200039a8                PROVIDE (end = .)
                [!provide]                        PROVIDE (_end = .)
                0x0000000020003ba8                . = (. + _Min_Heap_Size)
 *fill*         0x00000000200039a8      0x200 
                0x0000000020003fa8                . = (. + _Min_Stack_Size)
 *fill*         0x0000000020003ba8      0x400 
                0x0000000020003fa8                . = ALIGN (0x8)

/DISCARD/
 libc.a(*)
 libm.a(*)
 libgcc.a(*)

.ARM.attributes
                0x0000000000000000       0x29
 *(.ARM.attributes)
 .ARM.attributes
                0x0000000000000000       0x1d c:/st/stm32cubeide_1.6.0/stm32cubeide/plugins/com.st.stm32cube.ide.mcu.externaltools.gnu-tools-for-stm32.9-2020-q2-update.win32_1.5.0.202011040924/tools/bin/../lib/gcc/arm-none-eabi/9.3.1/thumb/v7-m/nofp/crti.o
 .ARM.attributes
                0x000000000000001d       0x2d c:/st/stm32cubeide_1.6.0/stm32cubeide/plugins/com.st.stm32cube.ide.mcu.externaltools.gnu-tools-for-stm32.9-2020-q2-update.win32_1.5.0.202011040924/tools/bin/../lib/gcc/arm-none-eabi/9.3.1/thumb/v7-m/nofp/crtbegin.o
 .ARM.attributes
                0x000000000000004a       0x2d Core/Src/lcd_i2c.o
 .ARM.attributes
                0x0000000000000077       0x2d Core/Src/main.o
 .ARM.attributes
                0x00000000000000a4       0x2d Core/Src/sensores.o
 .ARM.attributes
                0x00000000000000d1       0x2d Core/Src/stm32f1xx_hal_msp.o
 .ARM.attributes
                0x00000000000000fe       0x2d Core/Src/stm32f1xx_it.o
 .ARM.attributes
                0x000000000000012b       0x2d Core/Src/sysmem.o
 .ARM.attributes
                0x0000000000000158       0x2d Core/Src/system_stm32f1xx.o
 .ARM.attributes
                0x0000000000000185       0x21 Core/Startup/startup_stm32f103c8tx.o
 .ARM.attributes
                0x00000000000001a6       0x2d Drivers/STM32F1xx_HAL_Driver/Src/stm32f1xx_hal.o
 .ARM.attributes
                0x00000000000001d3       0x2d Drivers/STM32F1xx_HAL_Driver/Src/stm32f1xx_hal_adc.o
 .ARM.attributes
                0x0000000000000200       0x2d Drivers/STM32F1xx_HAL_Driver/Src/stm32f1xx_hal_cortex.o
 .ARM.attributes
                0x000000000000022d       0x2d Drivers/STM32F1xx_HAL_Driver/Src/stm32f1xx_hal_gpio.o
 .ARM.attributes
                0x000000000000025a       0x2d Drivers/STM32F1xx_HAL_Driver/Src/stm32f1xx_hal_i2c.o
 .ARM.attributes
                0x0000000000000287       0x2d Drivers/STM32F1xx_HAL_Driver/Src/stm32f1xx_hal_rcc.o
 .ARM.attributes
                0x00000000000002b4       0x2d Drivers/STM32F1xx_HAL_Driver/Src/stm32f1xx_hal_rcc_ex.o
 .ARM.attributes
                0x00000000000002e1       0x2d Drivers/STM32F1xx_HAL_Driver/Src/stm32f1xx_hal_tim.o
 .ARM.attributes
                0x000000000000030e       0x2d Drivers/STM32F1xx_HAL_Driver/Src/stm32f1xx_hal_tim_ex.o
 .ARM.attributes
                0x000000000000033b       0x1b Micrium/Software/uC-CPU/ARM-Cortex-M/ARMv7-M/GNU/cpu_a.o
 .ARM.attributes
                0x0000000000000356       0x2d Micrium/Software/uC-CPU/ARM-Cortex-M/ARMv7-M/cpu_c.o
 .ARM.attributes
                0x0000000000000383       0x2d Micrium/Software/uC-CPU/cpu_core.o
 .ARM.attributes
                0x00000000000003b0       0x1b Micrium/Software/uCOS-II/Ports/ARM-Cortex-M/ARMv7-M/GNU/os_cpu_a.o
 .ARM.attributes
                0x00000000000003cb       0x2d Micrium/Software/uCOS-II/Ports/ARM-Cortex-M/ARMv7-M/GNU/os_dbg.o
 .ARM.attributes
                0x00000000000003f8       0x2d Micrium/Software/uCOS-II/Ports/ARM-Cortex-M/ARMv7-M/os_cpu_c.o
 .ARM.attributes
                0x0000000000000425       0x2d Micrium/Software/uCOS-II/Source/os_core.o
 .ARM.attributes
                0x0000000000000452       0x2d Micrium/Software/uCOS-II/Source/os_flag.o
 .ARM.attributes
                0x000000000000047f       0x2d Micrium/Software/uCOS-II/Source/os_mem.o
 .ARM.attributes
                0x00000000000004ac       0x2d Micrium/Software/uCOS-II/Source/os_q.o
 .ARM.attributes
                0x00000000000004d9       0x2d Micrium/Software/uCOS-II/Source/os_sem.o
 .ARM.attributes
                0x0000000000000506       0x2d Micrium/Software/uCOS-II/Source/os_task.o
 .ARM.attributes
                0x0000000000000533       0x2d Micrium/Software/uCOS-II/Source/os_time.o
 .ARM.attributes
                0x0000000000000560       0x2d Micrium/Software/uCOS-II/Source/os_tmr.o
 .ARM.attributes
                0x000000000000058d       0x2d Micrium/Template/OS2/app_hooks.o
 .ARM.attributes
                0x00000000000005ba       0x2d c:/st/stm32cubeide_1.6.0/stm32cubeide/plugins/com.st.stm32cube.ide.mcu.externaltools.gnu-tools-for-stm32.9-2020-q2-update.win32_1.5.0.202011040924/tools/bin/../lib/gcc/arm-none-eabi/9.3.1/../../../../arm-none-eabi/lib/thumb/v7-m/nofp\libc_nano.a(lib_a-errno.o)
 .ARM.attributes
                0x00000000000005e7       0x2d c:/st/stm32cubeide_1.6.0/stm32cubeide/plugins/com.st.stm32cube.ide.mcu.externaltools.gnu-tools-for-stm32.9-2020-q2-update.win32_1.5.0.202011040924/tools/bin/../lib/gcc/arm-none-eabi/9.3.1/../../../../arm-none-eabi/lib/thumb/v7-m/nofp\libc_nano.a(lib_a-impure.o)
 .ARM.attributes
                0x0000000000000614       0x2d c:/st/stm32cubeide_1.6.0/stm32cubeide/plugins/com.st.stm32cube.ide.mcu.externaltools.gnu-tools-for-stm32.9-2020-q2-update.win32_1.5.0.202011040924/tools/bin/../lib/gcc/arm-none-eabi/9.3.1/../../../../arm-none-eabi/lib/thumb/v7-m/nofp\libc_nano.a(lib_a-init.o)
 .ARM.attributes
                0x0000000000000641       0x2d c:/st/stm32cubeide_1.6.0/stm32cubeide/plugins/com.st.stm32cube.ide.mcu.externaltools.gnu-tools-for-stm32.9-2020-q2-update.win32_1.5.0.202011040924/tools/bin/../lib/gcc/arm-none-eabi/9.3.1/../../../../arm-none-eabi/lib/thumb/v7-m/nofp\libc_nano.a(lib_a-memset.o)
 .ARM.attributes
                0x000000000000066e       0x17 c:/st/stm32cubeide_1.6.0/stm32cubeide/plugins/com.st.stm32cube.ide.mcu.externaltools.gnu-tools-for-stm32.9-2020-q2-update.win32_1.5.0.202011040924/tools/bin/../lib/gcc/arm-none-eabi/9.3.1/../../../../arm-none-eabi/lib/thumb/v7-m/nofp\libc_nano.a(lib_a-strlen.o)
 .ARM.attributes
                0x0000000000000685       0x2d c:/st/stm32cubeide_1.6.0/stm32cubeide/plugins/com.st.stm32cube.ide.mcu.externaltools.gnu-tools-for-stm32.9-2020-q2-update.win32_1.5.0.202011040924/tools/bin/../lib/gcc/arm-none-eabi/9.3.1/../../../../arm-none-eabi/lib/thumb/v7-m/nofp\libc_nano.a(lib_a-vsprintf.o)
 .ARM.attributes
                0x00000000000006b2       0x2d c:/st/stm32cubeide_1.6.0/stm32cubeide/plugins/com.st.stm32cube.ide.mcu.externaltools.gnu-tools-for-stm32.9-2020-q2-update.win32_1.5.0.202011040924/tools/bin/../lib/gcc/arm-none-eabi/9.3.1/../../../../arm-none-eabi/lib/thumb/v7-m/nofp\libc_nano.a(lib_a-nano-svfprintf.o)
 .ARM.attributes
                0x00000000000006df       0x2d c:/st/stm32cubeide_1.6.0/stm32cubeide/plugins/com.st.stm32cube.ide.mcu.externaltools.gnu-tools-for-stm32.9-2020-q2-update.win32_1.5.0.202011040924/tools/bin/../lib/gcc/arm-none-eabi/9.3.1/../../../../arm-none-eabi/lib/thumb/v7-m/nofp\libc_nano.a(lib_a-nano-vfprintf_i.o)
 .ARM.attributes
                0x000000000000070c       0x2d c:/st/stm32cubeide_1.6.0/stm32cubeide/plugins/com.st.stm32cube.ide.mcu.externaltools.gnu-tools-for-stm32.9-2020-q2-update.win32_1.5.0.202011040924/tools/bin/../lib/gcc/arm-none-eabi/9.3.1/../../../../arm-none-eabi/lib/thumb/v7-m/nofp\libc_nano.a(lib_a-memchr-stub.o)
 .ARM.attributes
                0x0000000000000739       0x2d c:/st/stm32cubeide_1.6.0/stm32cubeide/plugins/com.st.stm32cube.ide.mcu.externaltools.gnu-tools-for-stm32.9-2020-q2-update.win32_1.5.0.202011040924/tools/bin/../lib/gcc/arm-none-eabi/9.3.1/../../../../arm-none-eabi/lib/thumb/v7-m/nofp\libc_nano.a(lib_a-memcpy-stub.o)
 .ARM.attributes
                0x0000000000000766       0x2d c:/st/stm32cubeide_1.6.0/stm32cubeide/plugins/com.st.stm32cube.ide.mcu.externaltools.gnu-tools-for-stm32.9-2020-q2-update.win32_1.5.0.202011040924/tools/bin/../lib/gcc/arm-none-eabi/9.3.1/../../../../arm-none-eabi/lib/thumb/v7-m/nofp\libc_nano.a(lib_a-memmove.o)
 .ARM.attributes
                0x0000000000000793       0x2d c:/st/stm32cubeide_1.6.0/stm32cubeide/plugins/com.st.stm32cube.ide.mcu.externaltools.gnu-tools-for-stm32.9-2020-q2-update.win32_1.5.0.202011040924/tools/bin/../lib/gcc/arm-none-eabi/9.3.1/../../../../arm-none-eabi/lib/thumb/v7-m/nofp\libc_nano.a(lib_a-nano-freer.o)
 .ARM.attributes
                0x00000000000007c0       0x2d c:/st/stm32cubeide_1.6.0/stm32cubeide/plugins/com.st.stm32cube.ide.mcu.externaltools.gnu-tools-for-stm32.9-2020-q2-update.win32_1.5.0.202011040924/tools/bin/../lib/gcc/arm-none-eabi/9.3.1/../../../../arm-none-eabi/lib/thumb/v7-m/nofp\libc_nano.a(lib_a-nano-mallocr.o)
 .ARM.attributes
                0x00000000000007ed       0x2d c:/st/stm32cubeide_1.6.0/stm32cubeide/plugins/com.st.stm32cube.ide.mcu.externaltools.gnu-tools-for-stm32.9-2020-q2-update.win32_1.5.0.202011040924/tools/bin/../lib/gcc/arm-none-eabi/9.3.1/../../../../arm-none-eabi/lib/thumb/v7-m/nofp\libc_nano.a(lib_a-nano-reallocr.o)
 .ARM.attributes
                0x000000000000081a       0x2d c:/st/stm32cubeide_1.6.0/stm32cubeide/plugins/com.st.stm32cube.ide.mcu.externaltools.gnu-tools-for-stm32.9-2020-q2-update.win32_1.5.0.202011040924/tools/bin/../lib/gcc/arm-none-eabi/9.3.1/../../../../arm-none-eabi/lib/thumb/v7-m/nofp\libc_nano.a(lib_a-sbrkr.o)
 .ARM.attributes
                0x0000000000000847       0x2d c:/st/stm32cubeide_1.6.0/stm32cubeide/plugins/com.st.stm32cube.ide.mcu.externaltools.gnu-tools-for-stm32.9-2020-q2-update.win32_1.5.0.202011040924/tools/bin/../lib/gcc/arm-none-eabi/9.3.1/../../../../arm-none-eabi/lib/thumb/v7-m/nofp\libc_nano.a(lib_a-mlock.o)
 .ARM.attributes
                0x0000000000000874       0x2d c:/st/stm32cubeide_1.6.0/stm32cubeide/plugins/com.st.stm32cube.ide.mcu.externaltools.gnu-tools-for-stm32.9-2020-q2-update.win32_1.5.0.202011040924/tools/bin/../lib/gcc/arm-none-eabi/9.3.1/../../../../arm-none-eabi/lib/thumb/v7-m/nofp\libc_nano.a(lib_a-nano-msizer.o)
 .ARM.attributes
                0x00000000000008a1       0x2d c:/st/stm32cubeide_1.6.0/stm32cubeide/plugins/com.st.stm32cube.ide.mcu.externaltools.gnu-tools-for-stm32.9-2020-q2-update.win32_1.5.0.202011040924/tools/bin/../lib/gcc/arm-none-eabi/9.3.1/../../../../arm-none-eabi/lib/thumb/v7-m/nofp\libc_nano.a(lib_a-reent.o)
 .ARM.attributes
                0x00000000000008ce       0x2d c:/st/stm32cubeide_1.6.0/stm32cubeide/plugins/com.st.stm32cube.ide.mcu.externaltools.gnu-tools-for-stm32.9-2020-q2-update.win32_1.5.0.202011040924/tools/bin/../lib/gcc/arm-none-eabi/9.3.1/../../../../arm-none-eabi/lib/thumb/v7-m/nofp\libc_nano.a(lib_a-lock.o)
 .ARM.attributes
                0x00000000000008fb       0x2d c:/st/stm32cubeide_1.6.0/stm32cubeide/plugins/com.st.stm32cube.ide.mcu.externaltools.gnu-tools-for-stm32.9-2020-q2-update.win32_1.5.0.202011040924/tools/bin/../lib/gcc/arm-none-eabi/9.3.1/../../../../arm-none-eabi/lib/thumb/v7-m/nofp\libm.a(lib_a-w_pow.o)
 .ARM.attributes
                0x0000000000000928       0x2d c:/st/stm32cubeide_1.6.0/stm32cubeide/plugins/com.st.stm32cube.ide.mcu.externaltools.gnu-tools-for-stm32.9-2020-q2-update.win32_1.5.0.202011040924/tools/bin/../lib/gcc/arm-none-eabi/9.3.1/../../../../arm-none-eabi/lib/thumb/v7-m/nofp\libm.a(lib_a-e_pow.o)
 .ARM.attributes
                0x0000000000000955       0x2d c:/st/stm32cubeide_1.6.0/stm32cubeide/plugins/com.st.stm32cube.ide.mcu.externaltools.gnu-tools-for-stm32.9-2020-q2-update.win32_1.5.0.202011040924/tools/bin/../lib/gcc/arm-none-eabi/9.3.1/../../../../arm-none-eabi/lib/thumb/v7-m/nofp\libm.a(lib_a-e_sqrt.o)
 .ARM.attributes
                0x0000000000000982       0x2d c:/st/stm32cubeide_1.6.0/stm32cubeide/plugins/com.st.stm32cube.ide.mcu.externaltools.gnu-tools-for-stm32.9-2020-q2-update.win32_1.5.0.202011040924/tools/bin/../lib/gcc/arm-none-eabi/9.3.1/../../../../arm-none-eabi/lib/thumb/v7-m/nofp\libm.a(lib_a-s_fabs.o)
 .ARM.attributes
                0x00000000000009af       0x2d c:/st/stm32cubeide_1.6.0/stm32cubeide/plugins/com.st.stm32cube.ide.mcu.externaltools.gnu-tools-for-stm32.9-2020-q2-update.win32_1.5.0.202011040924/tools/bin/../lib/gcc/arm-none-eabi/9.3.1/../../../../arm-none-eabi/lib/thumb/v7-m/nofp\libm.a(lib_a-s_finite.o)
 .ARM.attributes
                0x00000000000009dc       0x2d c:/st/stm32cubeide_1.6.0/stm32cubeide/plugins/com.st.stm32cube.ide.mcu.externaltools.gnu-tools-for-stm32.9-2020-q2-update.win32_1.5.0.202011040924/tools/bin/../lib/gcc/arm-none-eabi/9.3.1/../../../../arm-none-eabi/lib/thumb/v7-m/nofp\libm.a(lib_a-s_lib_ver.o)
 .ARM.attributes
                0x0000000000000a09       0x2d c:/st/stm32cubeide_1.6.0/stm32cubeide/plugins/com.st.stm32cube.ide.mcu.externaltools.gnu-tools-for-stm32.9-2020-q2-update.win32_1.5.0.202011040924/tools/bin/../lib/gcc/arm-none-eabi/9.3.1/../../../../arm-none-eabi/lib/thumb/v7-m/nofp\libm.a(lib_a-s_nan.o)
 .ARM.attributes
                0x0000000000000a36       0x2d c:/st/stm32cubeide_1.6.0/stm32cubeide/plugins/com.st.stm32cube.ide.mcu.externaltools.gnu-tools-for-stm32.9-2020-q2-update.win32_1.5.0.202011040924/tools/bin/../lib/gcc/arm-none-eabi/9.3.1/../../../../arm-none-eabi/lib/thumb/v7-m/nofp\libm.a(lib_a-s_rint.o)
 .ARM.attributes
                0x0000000000000a63       0x2d c:/st/stm32cubeide_1.6.0/stm32cubeide/plugins/com.st.stm32cube.ide.mcu.externaltools.gnu-tools-for-stm32.9-2020-q2-update.win32_1.5.0.202011040924/tools/bin/../lib/gcc/arm-none-eabi/9.3.1/../../../../arm-none-eabi/lib/thumb/v7-m/nofp\libm.a(lib_a-s_scalbn.o)
 .ARM.attributes
                0x0000000000000a90       0x1d c:/st/stm32cubeide_1.6.0/stm32cubeide/plugins/com.st.stm32cube.ide.mcu.externaltools.gnu-tools-for-stm32.9-2020-q2-update.win32_1.5.0.202011040924/tools/bin/../lib/gcc/arm-none-eabi/9.3.1/thumb/v7-m/nofp\libgcc.a(_arm_mulsf3.o)
 .ARM.attributes
                0x0000000000000aad       0x1d c:/st/stm32cubeide_1.6.0/stm32cubeide/plugins/com.st.stm32cube.ide.mcu.externaltools.gnu-tools-for-stm32.9-2020-q2-update.win32_1.5.0.202011040924/tools/bin/../lib/gcc/arm-none-eabi/9.3.1/thumb/v7-m/nofp\libgcc.a(_arm_addsubdf3.o)
 .ARM.attributes
                0x0000000000000aca       0x1d c:/st/stm32cubeide_1.6.0/stm32cubeide/plugins/com.st.stm32cube.ide.mcu.externaltools.gnu-tools-for-stm32.9-2020-q2-update.win32_1.5.0.202011040924/tools/bin/../lib/gcc/arm-none-eabi/9.3.1/thumb/v7-m/nofp\libgcc.a(_arm_muldivdf3.o)
 .ARM.attributes
                0x0000000000000ae7       0x1d c:/st/stm32cubeide_1.6.0/stm32cubeide/plugins/com.st.stm32cube.ide.mcu.externaltools.gnu-tools-for-stm32.9-2020-q2-update.win32_1.5.0.202011040924/tools/bin/../lib/gcc/arm-none-eabi/9.3.1/thumb/v7-m/nofp\libgcc.a(_arm_cmpdf2.o)
 .ARM.attributes
                0x0000000000000b04       0x1d c:/st/stm32cubeide_1.6.0/stm32cubeide/plugins/com.st.stm32cube.ide.mcu.externaltools.gnu-tools-for-stm32.9-2020-q2-update.win32_1.5.0.202011040924/tools/bin/../lib/gcc/arm-none-eabi/9.3.1/thumb/v7-m/nofp\libgcc.a(_arm_unorddf2.o)
 .ARM.attributes
                0x0000000000000b21       0x1d c:/st/stm32cubeide_1.6.0/stm32cubeide/plugins/com.st.stm32cube.ide.mcu.externaltools.gnu-tools-for-stm32.9-2020-q2-update.win32_1.5.0.202011040924/tools/bin/../lib/gcc/arm-none-eabi/9.3.1/thumb/v7-m/nofp\libgcc.a(_arm_fixunsdfsi.o)
 .ARM.attributes
                0x0000000000000b3e       0x1d c:/st/stm32cubeide_1.6.0/stm32cubeide/plugins/com.st.stm32cube.ide.mcu.externaltools.gnu-tools-for-stm32.9-2020-q2-update.win32_1.5.0.202011040924/tools/bin/../lib/gcc/arm-none-eabi/9.3.1/thumb/v7-m/nofp\libgcc.a(_arm_truncdfsf2.o)
 .ARM.attributes
                0x0000000000000b5b       0x1d c:/st/stm32cubeide_1.6.0/stm32cubeide/plugins/com.st.stm32cube.ide.mcu.externaltools.gnu-tools-for-stm32.9-2020-q2-update.win32_1.5.0.202011040924/tools/bin/../lib/gcc/arm-none-eabi/9.3.1/thumb/v7-m/nofp\libgcc.a(_arm_addsubsf3.o)
 .ARM.attributes
                0x0000000000000b78       0x1d c:/st/stm32cubeide_1.6.0/stm32cubeide/plugins/com.st.stm32cube.ide.mcu.externaltools.gnu-tools-for-stm32.9-2020-q2-update.win32_1.5.0.202011040924/tools/bin/../lib/gcc/arm-none-eabi/9.3.1/thumb/v7-m/nofp\libgcc.a(_arm_cmpsf2.o)
 .ARM.attributes
                0x0000000000000b95       0x1d c:/st/stm32cubeide_1.6.0/stm32cubeide/plugins/com.st.stm32cube.ide.mcu.externaltools.gnu-tools-for-stm32.9-2020-q2-update.win32_1.5.0.202011040924/tools/bin/../lib/gcc/arm-none-eabi/9.3.1/thumb/v7-m/nofp\libgcc.a(_arm_fixsfsi.o)
 .ARM.attributes
                0x0000000000000bb2       0x1d c:/st/stm32cubeide_1.6.0/stm32cubeide/plugins/com.st.stm32cube.ide.mcu.externaltools.gnu-tools-for-stm32.9-2020-q2-update.win32_1.5.0.202011040924/tools/bin/../lib/gcc/arm-none-eabi/9.3.1/thumb/v7-m/nofp/crtn.o
OUTPUT(uCOSII.elf elf32-littlearm)
LOAD linker stubs
LOAD c:/st/stm32cubeide_1.6.0/stm32cubeide/plugins/com.st.stm32cube.ide.mcu.externaltools.gnu-tools-for-stm32.9-2020-q2-update.win32_1.5.0.202011040924/tools/bin/../lib/gcc/arm-none-eabi/9.3.1/../../../../arm-none-eabi/lib/thumb/v7-m/nofp\libc.a
LOAD c:/st/stm32cubeide_1.6.0/stm32cubeide/plugins/com.st.stm32cube.ide.mcu.externaltools.gnu-tools-for-stm32.9-2020-q2-update.win32_1.5.0.202011040924/tools/bin/../lib/gcc/arm-none-eabi/9.3.1/../../../../arm-none-eabi/lib/thumb/v7-m/nofp\libm.a
LOAD c:/st/stm32cubeide_1.6.0/stm32cubeide/plugins/com.st.stm32cube.ide.mcu.externaltools.gnu-tools-for-stm32.9-2020-q2-update.win32_1.5.0.202011040924/tools/bin/../lib/gcc/arm-none-eabi/9.3.1/thumb/v7-m/nofp\libgcc.a

.debug_info     0x0000000000000000    0x247c3
 .debug_info    0x0000000000000000     0x1bde Core/Src/lcd_i2c.o
 .debug_info    0x0000000000001bde     0x2932 Core/Src/main.o
 .debug_info    0x0000000000004510     0x1f0e Core/Src/sensores.o
 .debug_info    0x000000000000641e     0x22a8 Core/Src/stm32f1xx_hal_msp.o
 .debug_info    0x00000000000086c6     0x1b47 Core/Src/stm32f1xx_it.o
 .debug_info    0x000000000000a20d      0x9b5 Core/Src/sysmem.o
 .debug_info    0x000000000000abc2      0x479 Core/Src/system_stm32f1xx.o
 .debug_info    0x000000000000b03b       0x22 Core/Startup/startup_stm32f103c8tx.o
 .debug_info    0x000000000000b05d      0x76a Drivers/STM32F1xx_HAL_Driver/Src/stm32f1xx_hal.o
 .debug_info    0x000000000000b7c7      0xd2d Drivers/STM32F1xx_HAL_Driver/Src/stm32f1xx_hal_adc.o
 .debug_info    0x000000000000c4f4      0xbdc Drivers/STM32F1xx_HAL_Driver/Src/stm32f1xx_hal_cortex.o
 .debug_info    0x000000000000d0d0      0x701 Drivers/STM32F1xx_HAL_Driver/Src/stm32f1xx_hal_gpio.o
 .debug_info    0x000000000000d7d1     0x2774 Drivers/STM32F1xx_HAL_Driver/Src/stm32f1xx_hal_i2c.o
 .debug_info    0x000000000000ff45      0x88e Drivers/STM32F1xx_HAL_Driver/Src/stm32f1xx_hal_rcc.o
 .debug_info    0x00000000000107d3      0x480 Drivers/STM32F1xx_HAL_Driver/Src/stm32f1xx_hal_rcc_ex.o
 .debug_info    0x0000000000010c53     0x2a43 Drivers/STM32F1xx_HAL_Driver/Src/stm32f1xx_hal_tim.o
 .debug_info    0x0000000000013696     0x1495 Drivers/STM32F1xx_HAL_Driver/Src/stm32f1xx_hal_tim_ex.o
 .debug_info    0x0000000000014b2b       0x26 Micrium/Software/uC-CPU/ARM-Cortex-M/ARMv7-M/GNU/cpu_a.o
 .debug_info    0x0000000000014b51      0x3d9 Micrium/Software/uC-CPU/ARM-Cortex-M/ARMv7-M/cpu_c.o
 .debug_info    0x0000000000014f2a      0x385 Micrium/Software/uC-CPU/cpu_core.o
 .debug_info    0x00000000000152af       0x26 Micrium/Software/uCOS-II/Ports/ARM-Cortex-M/ARMv7-M/GNU/os_cpu_a.o
 .debug_info    0x00000000000152d5     0x15f2 Micrium/Software/uCOS-II/Ports/ARM-Cortex-M/ARMv7-M/GNU/os_dbg.o
 .debug_info    0x00000000000168c7     0x1461 Micrium/Software/uCOS-II/Ports/ARM-Cortex-M/ARMv7-M/os_cpu_c.o
 .debug_info    0x0000000000017d28     0x1c0d Micrium/Software/uCOS-II/Source/os_core.o
 .debug_info    0x0000000000019935     0x17ef Micrium/Software/uCOS-II/Source/os_flag.o
 .debug_info    0x000000000001b124     0x14ec Micrium/Software/uCOS-II/Source/os_mem.o
 .debug_info    0x000000000001c610     0x16cc Micrium/Software/uCOS-II/Source/os_q.o
 .debug_info    0x000000000001dcdc     0x1507 Micrium/Software/uCOS-II/Source/os_sem.o
 .debug_info    0x000000000001f1e3     0x1942 Micrium/Software/uCOS-II/Source/os_task.o
 .debug_info    0x0000000000020b25     0x133e Micrium/Software/uCOS-II/Source/os_time.o
 .debug_info    0x0000000000021e63     0x16ad Micrium/Software/uCOS-II/Source/os_tmr.o
 .debug_info    0x0000000000023510     0x12b3 Micrium/Template/OS2/app_hooks.o

.debug_abbrev   0x0000000000000000     0x42fc
 .debug_abbrev  0x0000000000000000      0x30d Core/Src/lcd_i2c.o
 .debug_abbrev  0x000000000000030d      0x33e Core/Src/main.o
 .debug_abbrev  0x000000000000064b      0x2e1 Core/Src/sensores.o
 .debug_abbrev  0x000000000000092c      0x247 Core/Src/stm32f1xx_hal_msp.o
 .debug_abbrev  0x0000000000000b73      0x206 Core/Src/stm32f1xx_it.o
 .debug_abbrev  0x0000000000000d79      0x1e3 Core/Src/sysmem.o
 .debug_abbrev  0x0000000000000f5c      0x14e Core/Src/system_stm32f1xx.o
 .debug_abbrev  0x00000000000010aa       0x12 Core/Startup/startup_stm32f103c8tx.o
 .debug_abbrev  0x00000000000010bc      0x1ed Drivers/STM32F1xx_HAL_Driver/Src/stm32f1xx_hal.o
 .debug_abbrev  0x00000000000012a9      0x1fb Drivers/STM32F1xx_HAL_Driver/Src/stm32f1xx_hal_adc.o
 .debug_abbrev  0x00000000000014a4      0x313 Drivers/STM32F1xx_HAL_Driver/Src/stm32f1xx_hal_cortex.o
 .debug_abbrev  0x00000000000017b7      0x1e8 Drivers/STM32F1xx_HAL_Driver/Src/stm32f1xx_hal_gpio.o
 .debug_abbrev  0x000000000000199f      0x288 Drivers/STM32F1xx_HAL_Driver/Src/stm32f1xx_hal_i2c.o
 .debug_abbrev  0x0000000000001c27      0x273 Drivers/STM32F1xx_HAL_Driver/Src/stm32f1xx_hal_rcc.o
 .debug_abbrev  0x0000000000001e9a      0x193 Drivers/STM32F1xx_HAL_Driver/Src/stm32f1xx_hal_rcc_ex.o
 .debug_abbrev  0x000000000000202d      0x25e Drivers/STM32F1xx_HAL_Driver/Src/stm32f1xx_hal_tim.o
 .debug_abbrev  0x000000000000228b      0x266 Drivers/STM32F1xx_HAL_Driver/Src/stm32f1xx_hal_tim_ex.o
 .debug_abbrev  0x00000000000024f1       0x14 Micrium/Software/uC-CPU/ARM-Cortex-M/ARMv7-M/GNU/cpu_a.o
 .debug_abbrev  0x0000000000002505      0x166 Micrium/Software/uC-CPU/ARM-Cortex-M/ARMv7-M/cpu_c.o
 .debug_abbrev  0x000000000000266b      0x113 Micrium/Software/uC-CPU/cpu_core.o
 .debug_abbrev  0x000000000000277e       0x14 Micrium/Software/uCOS-II/Ports/ARM-Cortex-M/ARMv7-M/GNU/os_cpu_a.o
 .debug_abbrev  0x0000000000002792      0x1bf Micrium/Software/uCOS-II/Ports/ARM-Cortex-M/ARMv7-M/GNU/os_dbg.o
 .debug_abbrev  0x0000000000002951      0x2b0 Micrium/Software/uCOS-II/Ports/ARM-Cortex-M/ARMv7-M/os_cpu_c.o
 .debug_abbrev  0x0000000000002c01      0x364 Micrium/Software/uCOS-II/Source/os_core.o
 .debug_abbrev  0x0000000000002f65      0x2ad Micrium/Software/uCOS-II/Source/os_flag.o
 .debug_abbrev  0x0000000000003212      0x25b Micrium/Software/uCOS-II/Source/os_mem.o
 .debug_abbrev  0x000000000000346d      0x27d Micrium/Software/uCOS-II/Source/os_q.o
 .debug_abbrev  0x00000000000036ea      0x27d Micrium/Software/uCOS-II/Source/os_sem.o
 .debug_abbrev  0x0000000000003967      0x2a2 Micrium/Software/uCOS-II/Source/os_task.o
 .debug_abbrev  0x0000000000003c09      0x23b Micrium/Software/uCOS-II/Source/os_time.o
 .debug_abbrev  0x0000000000003e44      0x2bc Micrium/Software/uCOS-II/Source/os_tmr.o
 .debug_abbrev  0x0000000000004100      0x1fc Micrium/Template/OS2/app_hooks.o

.debug_aranges  0x0000000000000000     0x1500
 .debug_aranges
                0x0000000000000000       0x98 Core/Src/lcd_i2c.o
 .debug_aranges
                0x0000000000000098       0xd8 Core/Src/main.o
 .debug_aranges
                0x0000000000000170       0x80 Core/Src/sensores.o
 .debug_aranges
                0x00000000000001f0       0x50 Core/Src/stm32f1xx_hal_msp.o
 .debug_aranges
                0x0000000000000240       0x68 Core/Src/stm32f1xx_it.o
 .debug_aranges
                0x00000000000002a8       0x20 Core/Src/sysmem.o
 .debug_aranges
                0x00000000000002c8       0x28 Core/Src/system_stm32f1xx.o
 .debug_aranges
                0x00000000000002f0       0x28 Core/Startup/startup_stm32f103c8tx.o
 .debug_aranges
                0x0000000000000318       0xe0 Drivers/STM32F1xx_HAL_Driver/Src/stm32f1xx_hal.o
 .debug_aranges
                0x00000000000003f8       0xf0 Drivers/STM32F1xx_HAL_Driver/Src/stm32f1xx_hal_adc.o
 .debug_aranges
                0x00000000000004e8      0x100 Drivers/STM32F1xx_HAL_Driver/Src/stm32f1xx_hal_cortex.o
 .debug_aranges
                0x00000000000005e8       0x58 Drivers/STM32F1xx_HAL_Driver/Src/stm32f1xx_hal_gpio.o
 .debug_aranges
                0x0000000000000640      0x2a0 Drivers/STM32F1xx_HAL_Driver/Src/stm32f1xx_hal_i2c.o
 .debug_aranges
                0x00000000000008e0       0x90 Drivers/STM32F1xx_HAL_Driver/Src/stm32f1xx_hal_rcc.o
 .debug_aranges
                0x0000000000000970       0x30 Drivers/STM32F1xx_HAL_Driver/Src/stm32f1xx_hal_rcc_ex.o
 .debug_aranges
                0x00000000000009a0      0x3d0 Drivers/STM32F1xx_HAL_Driver/Src/stm32f1xx_hal_tim.o
 .debug_aranges
                0x0000000000000d70      0x168 Drivers/STM32F1xx_HAL_Driver/Src/stm32f1xx_hal_tim_ex.o
 .debug_aranges
                0x0000000000000ed8       0x20 Micrium/Software/uC-CPU/ARM-Cortex-M/ARMv7-M/GNU/cpu_a.o
 .debug_aranges
                0x0000000000000ef8       0x50 Micrium/Software/uC-CPU/ARM-Cortex-M/ARMv7-M/cpu_c.o
 .debug_aranges
                0x0000000000000f48       0x70 Micrium/Software/uC-CPU/cpu_core.o
 .debug_aranges
                0x0000000000000fb8       0x20 Micrium/Software/uCOS-II/Ports/ARM-Cortex-M/ARMv7-M/GNU/os_cpu_a.o
 .debug_aranges
                0x0000000000000fd8       0x20 Micrium/Software/uCOS-II/Ports/ARM-Cortex-M/ARMv7-M/GNU/os_dbg.o
 .debug_aranges
                0x0000000000000ff8       0x88 Micrium/Software/uCOS-II/Ports/ARM-Cortex-M/ARMv7-M/os_cpu_c.o
 .debug_aranges
                0x0000000000001080      0x128 Micrium/Software/uCOS-II/Source/os_core.o
 .debug_aranges
                0x00000000000011a8       0x80 Micrium/Software/uCOS-II/Source/os_flag.o
 .debug_aranges
                0x0000000000001228       0x50 Micrium/Software/uCOS-II/Source/os_mem.o
 .debug_aranges
                0x0000000000001278       0x70 Micrium/Software/uCOS-II/Source/os_q.o
 .debug_aranges
                0x00000000000012e8       0x58 Micrium/Software/uCOS-II/Source/os_sem.o
 .debug_aranges
                0x0000000000001340       0x98 Micrium/Software/uCOS-II/Source/os_task.o
 .debug_aranges
                0x00000000000013d8       0x40 Micrium/Software/uCOS-II/Source/os_time.o
 .debug_aranges
                0x0000000000001418       0x90 Micrium/Software/uCOS-II/Source/os_tmr.o
 .debug_aranges
                0x00000000000014a8       0x58 Micrium/Template/OS2/app_hooks.o

.debug_ranges   0x0000000000000000     0x1310
 .debug_ranges  0x0000000000000000       0x88 Core/Src/lcd_i2c.o
 .debug_ranges  0x0000000000000088       0xc8 Core/Src/main.o
 .debug_ranges  0x0000000000000150       0x70 Core/Src/sensores.o
 .debug_ranges  0x00000000000001c0       0x40 Core/Src/stm32f1xx_hal_msp.o
 .debug_ranges  0x0000000000000200       0x58 Core/Src/stm32f1xx_it.o
 .debug_ranges  0x0000000000000258       0x10 Core/Src/sysmem.o
 .debug_ranges  0x0000000000000268       0x18 Core/Src/system_stm32f1xx.o
 .debug_ranges  0x0000000000000280       0x20 Core/Startup/startup_stm32f103c8tx.o
 .debug_ranges  0x00000000000002a0       0xd0 Drivers/STM32F1xx_HAL_Driver/Src/stm32f1xx_hal.o
 .debug_ranges  0x0000000000000370       0xe0 Drivers/STM32F1xx_HAL_Driver/Src/stm32f1xx_hal_adc.o
 .debug_ranges  0x0000000000000450       0xf0 Drivers/STM32F1xx_HAL_Driver/Src/stm32f1xx_hal_cortex.o
 .debug_ranges  0x0000000000000540       0x48 Drivers/STM32F1xx_HAL_Driver/Src/stm32f1xx_hal_gpio.o
 .debug_ranges  0x0000000000000588      0x2b8 Drivers/STM32F1xx_HAL_Driver/Src/stm32f1xx_hal_i2c.o
 .debug_ranges  0x0000000000000840       0x80 Drivers/STM32F1xx_HAL_Driver/Src/stm32f1xx_hal_rcc.o
 .debug_ranges  0x00000000000008c0       0x20 Drivers/STM32F1xx_HAL_Driver/Src/stm32f1xx_hal_rcc_ex.o
 .debug_ranges  0x00000000000008e0      0x3c0 Drivers/STM32F1xx_HAL_Driver/Src/stm32f1xx_hal_tim.o
 .debug_ranges  0x0000000000000ca0      0x158 Drivers/STM32F1xx_HAL_Driver/Src/stm32f1xx_hal_tim_ex.o
 .debug_ranges  0x0000000000000df8       0x40 Micrium/Software/uC-CPU/ARM-Cortex-M/ARMv7-M/cpu_c.o
 .debug_ranges  0x0000000000000e38       0x60 Micrium/Software/uC-CPU/cpu_core.o
 .debug_ranges  0x0000000000000e98       0x10 Micrium/Software/uCOS-II/Ports/ARM-Cortex-M/ARMv7-M/GNU/os_dbg.o
 .debug_ranges  0x0000000000000ea8       0x78 Micrium/Software/uCOS-II/Ports/ARM-Cortex-M/ARMv7-M/os_cpu_c.o
 .debug_ranges  0x0000000000000f20      0x118 Micrium/Software/uCOS-II/Source/os_core.o
 .debug_ranges  0x0000000000001038       0x70 Micrium/Software/uCOS-II/Source/os_flag.o
 .debug_ranges  0x00000000000010a8       0x40 Micrium/Software/uCOS-II/Source/os_mem.o
 .debug_ranges  0x00000000000010e8       0x60 Micrium/Software/uCOS-II/Source/os_q.o
 .debug_ranges  0x0000000000001148       0x48 Micrium/Software/uCOS-II/Source/os_sem.o
 .debug_ranges  0x0000000000001190       0x88 Micrium/Software/uCOS-II/Source/os_task.o
 .debug_ranges  0x0000000000001218       0x30 Micrium/Software/uCOS-II/Source/os_time.o
 .debug_ranges  0x0000000000001248       0x80 Micrium/Software/uCOS-II/Source/os_tmr.o
 .debug_ranges  0x00000000000012c8       0x48 Micrium/Template/OS2/app_hooks.o

.debug_macro    0x0000000000000000    0x1d807
 .debug_macro   0x0000000000000000      0x42d Core/Src/lcd_i2c.o
 .debug_macro   0x000000000000042d      0xa9c Core/Src/lcd_i2c.o
 .debug_macro   0x0000000000000ec9       0x22 Core/Src/lcd_i2c.o
 .debug_macro   0x0000000000000eeb       0x22 Core/Src/lcd_i2c.o
 .debug_macro   0x0000000000000f0d       0x4c Core/Src/lcd_i2c.o
 .debug_macro   0x0000000000000f59       0x18 Core/Src/lcd_i2c.o
 .debug_macro   0x0000000000000f71       0x94 Core/Src/lcd_i2c.o
 .debug_macro   0x0000000000001005       0x3c Core/Src/lcd_i2c.o
 .debug_macro   0x0000000000001041       0x34 Core/Src/lcd_i2c.o
 .debug_macro   0x0000000000001075       0x16 Core/Src/lcd_i2c.o
 .debug_macro   0x000000000000108b       0x57 Core/Src/lcd_i2c.o
 .debug_macro   0x00000000000010e2       0x97 Core/Src/lcd_i2c.o
 .debug_macro   0x0000000000001179      0x339 Core/Src/lcd_i2c.o
 .debug_macro   0x00000000000014b2       0xfd Core/Src/lcd_i2c.o
 .debug_macro   0x00000000000015af       0x10 Core/Src/lcd_i2c.o
 .debug_macro   0x00000000000015bf       0x16 Core/Src/lcd_i2c.o
 .debug_macro   0x00000000000015d5       0x43 Core/Src/lcd_i2c.o
 .debug_macro   0x0000000000001618       0x34 Core/Src/lcd_i2c.o
 .debug_macro   0x000000000000164c       0x10 Core/Src/lcd_i2c.o
 .debug_macro   0x000000000000165c       0x58 Core/Src/lcd_i2c.o
 .debug_macro   0x00000000000016b4       0x71 Core/Src/lcd_i2c.o
 .debug_macro   0x0000000000001725       0x1c Core/Src/lcd_i2c.o
 .debug_macro   0x0000000000001741      0x12a Core/Src/lcd_i2c.o
 .debug_macro   0x000000000000186b       0x10 Core/Src/lcd_i2c.o
 .debug_macro   0x000000000000187b       0x6a Core/Src/lcd_i2c.o
 .debug_macro   0x00000000000018e5       0x1c Core/Src/lcd_i2c.o
 .debug_macro   0x0000000000001901       0x52 Core/Src/lcd_i2c.o
 .debug_macro   0x0000000000001953       0x22 Core/Src/lcd_i2c.o
 .debug_macro   0x0000000000001975       0x10 Core/Src/lcd_i2c.o
 .debug_macro   0x0000000000001985       0x40 Core/Src/lcd_i2c.o
 .debug_macro   0x00000000000019c5       0xd5 Core/Src/lcd_i2c.o
 .debug_macro   0x0000000000001a9a       0x1c Core/Src/lcd_i2c.o
 .debug_macro   0x0000000000001ab6       0x3d Core/Src/lcd_i2c.o
 .debug_macro   0x0000000000001af3       0x16 Core/Src/lcd_i2c.o
 .debug_macro   0x0000000000001b09      0x145 Core/Src/lcd_i2c.o
 .debug_macro   0x0000000000001c4e       0x16 Core/Src/lcd_i2c.o
 .debug_macro   0x0000000000001c64       0x35 Core/Src/lcd_i2c.o
 .debug_macro   0x0000000000001c99       0x20 Core/Src/lcd_i2c.o
 .debug_macro   0x0000000000001cb9       0x4c Core/Src/lcd_i2c.o
 .debug_macro   0x0000000000001d05      0x221 Core/Src/lcd_i2c.o
 .debug_macro   0x0000000000001f26       0x2e Core/Src/lcd_i2c.o
 .debug_macro   0x0000000000001f54       0x22 Core/Src/lcd_i2c.o
 .debug_macro   0x0000000000001f76      0x103 Core/Src/lcd_i2c.o
 .debug_macro   0x0000000000002079      0x1df Core/Src/lcd_i2c.o
 .debug_macro   0x0000000000002258       0x1c Core/Src/lcd_i2c.o
 .debug_macro   0x0000000000002274       0x22 Core/Src/lcd_i2c.o
 .debug_macro   0x0000000000002296       0xbd Core/Src/lcd_i2c.o
 .debug_macro   0x0000000000002353      0xd23 Core/Src/lcd_i2c.o
 .debug_macro   0x0000000000003076     0xe097 Core/Src/lcd_i2c.o
 .debug_macro   0x000000000001110d       0x43 Core/Src/lcd_i2c.o
 .debug_macro   0x0000000000011150     0x3468 Core/Src/lcd_i2c.o
 .debug_macro   0x00000000000145b8       0x56 Core/Src/lcd_i2c.o
 .debug_macro   0x000000000001460e      0x5be Core/Src/lcd_i2c.o
 .debug_macro   0x0000000000014bcc      0x289 Core/Src/lcd_i2c.o
 .debug_macro   0x0000000000014e55      0x1cb Core/Src/lcd_i2c.o
 .debug_macro   0x0000000000015020      0x114 Core/Src/lcd_i2c.o
 .debug_macro   0x0000000000015134      0x1b2 Core/Src/lcd_i2c.o
 .debug_macro   0x00000000000152e6       0x27 Core/Src/lcd_i2c.o
 .debug_macro   0x000000000001530d      0x136 Core/Src/lcd_i2c.o
 .debug_macro   0x0000000000015443      0x1bc Core/Src/lcd_i2c.o
 .debug_macro   0x00000000000155ff       0x34 Core/Src/lcd_i2c.o
 .debug_macro   0x0000000000015633       0x3c Core/Src/lcd_i2c.o
 .debug_macro   0x000000000001566f       0x57 Core/Src/lcd_i2c.o
 .debug_macro   0x00000000000156c6      0x46a Core/Src/lcd_i2c.o
 .debug_macro   0x0000000000015b30      0x1b5 Core/Src/lcd_i2c.o
 .debug_macro   0x0000000000015ce5       0x88 Core/Src/lcd_i2c.o
 .debug_macro   0x0000000000015d6d      0x241 Core/Src/lcd_i2c.o
 .debug_macro   0x0000000000015fae      0x287 Core/Src/lcd_i2c.o
 .debug_macro   0x0000000000016235      0x141 Core/Src/lcd_i2c.o
 .debug_macro   0x0000000000016376      0x8d1 Core/Src/lcd_i2c.o
 .debug_macro   0x0000000000016c47       0x83 Core/Src/lcd_i2c.o
 .debug_macro   0x0000000000016cca       0x10 Core/Src/lcd_i2c.o
 .debug_macro   0x0000000000016cda       0x4b Core/Src/lcd_i2c.o
 .debug_macro   0x0000000000016d25       0xdc Core/Src/lcd_i2c.o
 .debug_macro   0x0000000000016e01      0x1f8 Core/Src/lcd_i2c.o
 .debug_macro   0x0000000000016ff9       0x3f Core/Src/lcd_i2c.o
 .debug_macro   0x0000000000017038      0x2e4 Core/Src/lcd_i2c.o
 .debug_macro   0x000000000001731c      0x43d Core/Src/lcd_i2c.o
 .debug_macro   0x0000000000017759      0x430 Core/Src/main.o
 .debug_macro   0x0000000000017b89       0x8e Core/Src/main.o
 .debug_macro   0x0000000000017c17       0x51 Core/Src/main.o
 .debug_macro   0x0000000000017c68       0xc3 Core/Src/main.o
 .debug_macro   0x0000000000017d2b      0x174 Core/Src/main.o
 .debug_macro   0x0000000000017e9f       0x5c Core/Src/main.o
 .debug_macro   0x0000000000017efb       0x58 Core/Src/main.o
 .debug_macro   0x0000000000017f53       0x52 Core/Src/main.o
 .debug_macro   0x0000000000017fa5      0x333 Core/Src/main.o
 .debug_macro   0x00000000000182d8       0x1c Core/Src/main.o
 .debug_macro   0x00000000000182f4      0x124 Core/Src/main.o
 .debug_macro   0x0000000000018418       0x10 Core/Src/main.o
 .debug_macro   0x0000000000018428       0x69 Core/Src/main.o
 .debug_macro   0x0000000000018491      0x464 Core/Src/main.o
 .debug_macro   0x00000000000188f5      0x5e3 Core/Src/main.o
 .debug_macro   0x0000000000018ed8       0x43 Core/Src/main.o
 .debug_macro   0x0000000000018f1b      0x1a9 Core/Src/main.o
 .debug_macro   0x00000000000190c4       0x1c Core/Src/main.o
 .debug_macro   0x00000000000190e0      0x5b3 Core/Src/main.o
 .debug_macro   0x0000000000019693       0x36 Core/Src/main.o
 .debug_macro   0x00000000000196c9       0x51 Core/Src/main.o
 .debug_macro   0x000000000001971a      0x377 Core/Src/sensores.o
 .debug_macro   0x0000000000019a91      0x373 Core/Src/stm32f1xx_hal_msp.o
 .debug_macro   0x0000000000019e04      0x37d Core/Src/stm32f1xx_it.o
 .debug_macro   0x000000000001a181      0x1b1 Core/Src/sysmem.o
 .debug_macro   0x000000000001a332      0x23b Core/Src/sysmem.o
 .debug_macro   0x000000000001a56d      0x1bd Core/Src/system_stm32f1xx.o
 .debug_macro   0x000000000001a72a      0x1db Drivers/STM32F1xx_HAL_Driver/Src/stm32f1xx_hal.o
 .debug_macro   0x000000000001a905      0x1d4 Drivers/STM32F1xx_HAL_Driver/Src/stm32f1xx_hal_adc.o
 .debug_macro   0x000000000001aad9      0x1b7 Drivers/STM32F1xx_HAL_Driver/Src/stm32f1xx_hal_cortex.o
 .debug_macro   0x000000000001ac90      0x222 Drivers/STM32F1xx_HAL_Driver/Src/stm32f1xx_hal_gpio.o
 .debug_macro   0x000000000001aeb2      0x1fe Drivers/STM32F1xx_HAL_Driver/Src/stm32f1xx_hal_i2c.o
 .debug_macro   0x000000000001b0b0      0x1c9 Drivers/STM32F1xx_HAL_Driver/Src/stm32f1xx_hal_rcc.o
 .debug_macro   0x000000000001b279      0x1b7 Drivers/STM32F1xx_HAL_Driver/Src/stm32f1xx_hal_rcc_ex.o
 .debug_macro   0x000000000001b430      0x1b8 Drivers/STM32F1xx_HAL_Driver/Src/stm32f1xx_hal_tim.o
 .debug_macro   0x000000000001b5e8      0x1b7 Drivers/STM32F1xx_HAL_Driver/Src/stm32f1xx_hal_tim_ex.o
 .debug_macro   0x000000000001b79f       0x79 Micrium/Software/uC-CPU/ARM-Cortex-M/ARMv7-M/cpu_c.o
 .debug_macro   0x000000000001b818      0x5f8 Micrium/Software/uC-CPU/ARM-Cortex-M/ARMv7-M/cpu_c.o
 .debug_macro   0x000000000001be10       0x6d Micrium/Software/uC-CPU/cpu_core.o
 .debug_macro   0x000000000001be7d       0x10 Micrium/Software/uC-CPU/cpu_core.o
 .debug_macro   0x000000000001be8d      0x1e0 Micrium/Software/uCOS-II/Ports/ARM-Cortex-M/ARMv7-M/GNU/os_dbg.o
 .debug_macro   0x000000000001c06d      0x22e Micrium/Software/uCOS-II/Ports/ARM-Cortex-M/ARMv7-M/os_cpu_c.o
 .debug_macro   0x000000000001c29b       0x3f Micrium/Software/uCOS-II/Ports/ARM-Cortex-M/ARMv7-M/os_cpu_c.o
 .debug_macro   0x000000000001c2da      0x1e6 Micrium/Software/uCOS-II/Source/os_core.o
 .debug_macro   0x000000000001c4c0      0x43d Micrium/Software/uCOS-II/Source/os_core.o
 .debug_macro   0x000000000001c8fd      0x1e0 Micrium/Software/uCOS-II/Source/os_flag.o
 .debug_macro   0x000000000001cadd      0x1e0 Micrium/Software/uCOS-II/Source/os_mem.o
 .debug_macro   0x000000000001ccbd      0x1e0 Micrium/Software/uCOS-II/Source/os_q.o
 .debug_macro   0x000000000001ce9d      0x1e0 Micrium/Software/uCOS-II/Source/os_sem.o
 .debug_macro   0x000000000001d07d      0x1e0 Micrium/Software/uCOS-II/Source/os_task.o
 .debug_macro   0x000000000001d25d      0x1e0 Micrium/Software/uCOS-II/Source/os_time.o
 .debug_macro   0x000000000001d43d      0x1ec Micrium/Software/uCOS-II/Source/os_tmr.o
 .debug_macro   0x000000000001d629      0x1de Micrium/Template/OS2/app_hooks.o

.debug_line     0x0000000000000000    0x19535
 .debug_line    0x0000000000000000      0xc58 Core/Src/lcd_i2c.o
 .debug_line    0x0000000000000c58     0x1700 Core/Src/main.o
 .debug_line    0x0000000000002358      0xc71 Core/Src/sensores.o
 .debug_line    0x0000000000002fc9      0xa4e Core/Src/stm32f1xx_hal_msp.o
 .debug_line    0x0000000000003a17      0xa47 Core/Src/stm32f1xx_it.o
 .debug_line    0x000000000000445e      0x58a Core/Src/sysmem.o
 .debug_line    0x00000000000049e8      0x748 Core/Src/system_stm32f1xx.o
 .debug_line    0x0000000000005130       0x84 Core/Startup/startup_stm32f103c8tx.o
 .debug_line    0x00000000000051b4      0x958 Drivers/STM32F1xx_HAL_Driver/Src/stm32f1xx_hal.o
 .debug_line    0x0000000000005b0c      0xfb8 Drivers/STM32F1xx_HAL_Driver/Src/stm32f1xx_hal_adc.o
 .debug_line    0x0000000000006ac4      0xb40 Drivers/STM32F1xx_HAL_Driver/Src/stm32f1xx_hal_cortex.o
 .debug_line    0x0000000000007604      0x9ef Drivers/STM32F1xx_HAL_Driver/Src/stm32f1xx_hal_gpio.o
 .debug_line    0x0000000000007ff3     0x395a Drivers/STM32F1xx_HAL_Driver/Src/stm32f1xx_hal_i2c.o
 .debug_line    0x000000000000b94d      0xd66 Drivers/STM32F1xx_HAL_Driver/Src/stm32f1xx_hal_rcc.o
 .debug_line    0x000000000000c6b3      0x8a4 Drivers/STM32F1xx_HAL_Driver/Src/stm32f1xx_hal_rcc_ex.o
 .debug_line    0x000000000000cf57     0x3300 Drivers/STM32F1xx_HAL_Driver/Src/stm32f1xx_hal_tim.o
 .debug_line    0x0000000000010257     0x19fe Drivers/STM32F1xx_HAL_Driver/Src/stm32f1xx_hal_tim_ex.o
 .debug_line    0x0000000000011c55       0x96 Micrium/Software/uC-CPU/ARM-Cortex-M/ARMv7-M/GNU/cpu_a.o
 .debug_line    0x0000000000011ceb      0x529 Micrium/Software/uC-CPU/ARM-Cortex-M/ARMv7-M/cpu_c.o
 .debug_line    0x0000000000012214      0x2d4 Micrium/Software/uC-CPU/cpu_core.o
 .debug_line    0x00000000000124e8       0xdf Micrium/Software/uCOS-II/Ports/ARM-Cortex-M/ARMv7-M/GNU/os_cpu_a.o
 .debug_line    0x00000000000125c7      0x657 Micrium/Software/uCOS-II/Ports/ARM-Cortex-M/ARMv7-M/GNU/os_dbg.o
 .debug_line    0x0000000000012c1e      0x81b Micrium/Software/uCOS-II/Ports/ARM-Cortex-M/ARMv7-M/os_cpu_c.o
 .debug_line    0x0000000000013439     0x10e7 Micrium/Software/uCOS-II/Source/os_core.o
 .debug_line    0x0000000000014520      0xc66 Micrium/Software/uCOS-II/Source/os_flag.o
 .debug_line    0x0000000000015186      0x880 Micrium/Software/uCOS-II/Source/os_mem.o
 .debug_line    0x0000000000015a06      0xb67 Micrium/Software/uCOS-II/Source/os_q.o
 .debug_line    0x000000000001656d      0x940 Micrium/Software/uCOS-II/Source/os_sem.o
 .debug_line    0x0000000000016ead      0xd01 Micrium/Software/uCOS-II/Source/os_task.o
 .debug_line    0x0000000000017bae      0x793 Micrium/Software/uCOS-II/Source/os_time.o
 .debug_line    0x0000000000018341      0xb4a Micrium/Software/uCOS-II/Source/os_tmr.o
 .debug_line    0x0000000000018e8b      0x6aa Micrium/Template/OS2/app_hooks.o

.debug_str      0x0000000000000000    0x9bcb1
 .debug_str     0x0000000000000000    0x8ed2d Core/Src/lcd_i2c.o
                                      0x8f202 (size before relaxing)
 .debug_str     0x000000000008ed2d     0x7fc4 Core/Src/main.o
                                      0x96f02 (size before relaxing)
 .debug_str     0x0000000000096cf1      0x19a Core/Src/sensores.o
                                      0x8f5a0 (size before relaxing)
 .debug_str     0x0000000000096e8b      0x33c Core/Src/stm32f1xx_hal_msp.o
                                      0x8fa4b (size before relaxing)
 .debug_str     0x00000000000971c7       0xd0 Core/Src/stm32f1xx_it.o
                                      0x8f452 (size before relaxing)
 .debug_str     0x0000000000097297      0x502 Core/Src/sysmem.o
                                       0x7b73 (size before relaxing)
 .debug_str     0x0000000000097799       0xc2 Core/Src/system_stm32f1xx.o
                                      0x8775a (size before relaxing)
 .debug_str     0x000000000009785b       0x36 Core/Startup/startup_stm32f103c8tx.o
                                         0x7a (size before relaxing)
 .debug_str     0x0000000000097891      0x2c7 Drivers/STM32F1xx_HAL_Driver/Src/stm32f1xx_hal.o
                                      0x87d71 (size before relaxing)
 .debug_str     0x0000000000097b58      0x34d Drivers/STM32F1xx_HAL_Driver/Src/stm32f1xx_hal_adc.o
                                      0x87d70 (size before relaxing)
 .debug_str     0x0000000000097ea5      0x2ac Drivers/STM32F1xx_HAL_Driver/Src/stm32f1xx_hal_cortex.o
                                      0x87d79 (size before relaxing)
 .debug_str     0x0000000000098151      0x310 Drivers/STM32F1xx_HAL_Driver/Src/stm32f1xx_hal_gpio.o
                                      0x87aa4 (size before relaxing)
 .debug_str     0x0000000000098461      0xb4f Drivers/STM32F1xx_HAL_Driver/Src/stm32f1xx_hal_i2c.o
                                      0x8871c (size before relaxing)
 .debug_str     0x0000000000098fb0      0x244 Drivers/STM32F1xx_HAL_Driver/Src/stm32f1xx_hal_rcc.o
                                      0x87add (size before relaxing)
 .debug_str     0x00000000000991f4       0xb9 Drivers/STM32F1xx_HAL_Driver/Src/stm32f1xx_hal_rcc_ex.o
                                      0x8786a (size before relaxing)
 .debug_str     0x00000000000992ad      0xdfb Drivers/STM32F1xx_HAL_Driver/Src/stm32f1xx_hal_tim.o
                                      0x88aaf (size before relaxing)
 .debug_str     0x000000000009a0a8      0x517 Drivers/STM32F1xx_HAL_Driver/Src/stm32f1xx_hal_tim_ex.o
                                      0x88289 (size before relaxing)
 .debug_str     0x000000000009a5bf       0x3c Micrium/Software/uC-CPU/ARM-Cortex-M/ARMv7-M/GNU/cpu_a.o
                                         0x8e (size before relaxing)
 .debug_str     0x000000000009a5fb      0x22a Micrium/Software/uC-CPU/ARM-Cortex-M/ARMv7-M/cpu_c.o
                                       0x75cc (size before relaxing)
 .debug_str     0x000000000009a825      0x22f Micrium/Software/uC-CPU/cpu_core.o
                                       0x75b9 (size before relaxing)
 .debug_str     0x000000000009aa54       0x46 Micrium/Software/uCOS-II/Ports/ARM-Cortex-M/ARMv7-M/GNU/os_cpu_a.o
                                         0x98 (size before relaxing)
 .debug_str     0x000000000009aa9a      0x32d Micrium/Software/uCOS-II/Ports/ARM-Cortex-M/ARMv7-M/GNU/os_dbg.o
                                       0xab63 (size before relaxing)
 .debug_str     0x000000000009adc7      0x42d Micrium/Software/uCOS-II/Ports/ARM-Cortex-M/ARMv7-M/os_cpu_c.o
                                       0xac68 (size before relaxing)
 .debug_str     0x000000000009b1f4      0x319 Micrium/Software/uCOS-II/Source/os_core.o
                                       0xab96 (size before relaxing)
 .debug_str     0x000000000009b50d      0x14e Micrium/Software/uCOS-II/Source/os_flag.o
                                       0xa9e1 (size before relaxing)
 .debug_str     0x000000000009b65b       0xed Micrium/Software/uCOS-II/Source/os_mem.o
                                       0xa95c (size before relaxing)
 .debug_str     0x000000000009b748       0xd8 Micrium/Software/uCOS-II/Source/os_q.o
                                       0xa974 (size before relaxing)
 .debug_str     0x000000000009b820       0xad Micrium/Software/uCOS-II/Source/os_sem.o
                                       0xa949 (size before relaxing)
 .debug_str     0x000000000009b8cd      0x162 Micrium/Software/uCOS-II/Source/os_task.o
                                       0xaa4e (size before relaxing)
 .debug_str     0x000000000009ba2f       0x7f Micrium/Software/uCOS-II/Source/os_time.o
                                       0xa8e6 (size before relaxing)
 .debug_str     0x000000000009baae      0x157 Micrium/Software/uCOS-II/Source/os_tmr.o
                                       0xa9cd (size before relaxing)
 .debug_str     0x000000000009bc05       0xac Micrium/Template/OS2/app_hooks.o
                                       0xa8e7 (size before relaxing)

.comment        0x0000000000000000       0x53
 .comment       0x0000000000000000       0x53 Core/Src/lcd_i2c.o
                                         0x54 (size before relaxing)
 .comment       0x0000000000000053       0x54 Core/Src/main.o
 .comment       0x0000000000000053       0x54 Core/Src/sensores.o
 .comment       0x0000000000000053       0x54 Core/Src/stm32f1xx_hal_msp.o
 .comment       0x0000000000000053       0x54 Core/Src/stm32f1xx_it.o
 .comment       0x0000000000000053       0x54 Core/Src/sysmem.o
 .comment       0x0000000000000053       0x54 Core/Src/system_stm32f1xx.o
 .comment       0x0000000000000053       0x54 Drivers/STM32F1xx_HAL_Driver/Src/stm32f1xx_hal.o
 .comment       0x0000000000000053       0x54 Drivers/STM32F1xx_HAL_Driver/Src/stm32f1xx_hal_adc.o
 .comment       0x0000000000000053       0x54 Drivers/STM32F1xx_HAL_Driver/Src/stm32f1xx_hal_cortex.o
 .comment       0x0000000000000053       0x54 Drivers/STM32F1xx_HAL_Driver/Src/stm32f1xx_hal_gpio.o
 .comment       0x0000000000000053       0x54 Drivers/STM32F1xx_HAL_Driver/Src/stm32f1xx_hal_i2c.o
 .comment       0x0000000000000053       0x54 Drivers/STM32F1xx_HAL_Driver/Src/stm32f1xx_hal_rcc.o
 .comment       0x0000000000000053       0x54 Drivers/STM32F1xx_HAL_Driver/Src/stm32f1xx_hal_rcc_ex.o
 .comment       0x0000000000000053       0x54 Drivers/STM32F1xx_HAL_Driver/Src/stm32f1xx_hal_tim.o
 .comment       0x0000000000000053       0x54 Drivers/STM32F1xx_HAL_Driver/Src/stm32f1xx_hal_tim_ex.o
 .comment       0x0000000000000053       0x54 Micrium/Software/uC-CPU/ARM-Cortex-M/ARMv7-M/cpu_c.o
 .comment       0x0000000000000053       0x54 Micrium/Software/uC-CPU/cpu_core.o
 .comment       0x0000000000000053       0x54 Micrium/Software/uCOS-II/Ports/ARM-Cortex-M/ARMv7-M/GNU/os_dbg.o
 .comment       0x0000000000000053       0x54 Micrium/Software/uCOS-II/Ports/ARM-Cortex-M/ARMv7-M/os_cpu_c.o
 .comment       0x0000000000000053       0x54 Micrium/Software/uCOS-II/Source/os_core.o
 .comment       0x0000000000000053       0x54 Micrium/Software/uCOS-II/Source/os_flag.o
 .comment       0x0000000000000053       0x54 Micrium/Software/uCOS-II/Source/os_mem.o
 .comment       0x0000000000000053       0x54 Micrium/Software/uCOS-II/Source/os_q.o
 .comment       0x0000000000000053       0x54 Micrium/Software/uCOS-II/Source/os_sem.o
 .comment       0x0000000000000053       0x54 Micrium/Software/uCOS-II/Source/os_task.o
 .comment       0x0000000000000053       0x54 Micrium/Software/uCOS-II/Source/os_time.o
 .comment       0x0000000000000053       0x54 Micrium/Software/uCOS-II/Source/os_tmr.o
 .comment       0x0000000000000053       0x54 Micrium/Template/OS2/app_hooks.o

.debug_frame    0x0000000000000000     0x5d00
 .debug_frame   0x0000000000000000      0x244 Core/Src/lcd_i2c.o
 .debug_frame   0x0000000000000244      0x340 Core/Src/main.o
 .debug_frame   0x0000000000000584      0x1d0 Core/Src/sensores.o
 .debug_frame   0x0000000000000754      0x110 Core/Src/stm32f1xx_hal_msp.o
 .debug_frame   0x0000000000000864      0x128 Core/Src/stm32f1xx_it.o
 .debug_frame   0x000000000000098c       0x34 Core/Src/sysmem.o
 .debug_frame   0x00000000000009c0       0x58 Core/Src/system_stm32f1xx.o
 .debug_frame   0x0000000000000a18      0x334 Drivers/STM32F1xx_HAL_Driver/Src/stm32f1xx_hal.o
 .debug_frame   0x0000000000000d4c      0x40c Drivers/STM32F1xx_HAL_Driver/Src/stm32f1xx_hal_adc.o
 .debug_frame   0x0000000000001158      0x428 Drivers/STM32F1xx_HAL_Driver/Src/stm32f1xx_hal_cortex.o
 .debug_frame   0x0000000000001580      0x14c Drivers/STM32F1xx_HAL_Driver/Src/stm32f1xx_hal_gpio.o
 .debug_frame   0x00000000000016cc      0xc54 Drivers/STM32F1xx_HAL_Driver/Src/stm32f1xx_hal_i2c.o
 .debug_frame   0x0000000000002320      0x21c Drivers/STM32F1xx_HAL_Driver/Src/stm32f1xx_hal_rcc.o
 .debug_frame   0x000000000000253c       0x84 Drivers/STM32F1xx_HAL_Driver/Src/stm32f1xx_hal_rcc_ex.o
 .debug_frame   0x00000000000025c0     0x11b8 Drivers/STM32F1xx_HAL_Driver/Src/stm32f1xx_hal_tim.o
 .debug_frame   0x0000000000003778      0x638 Drivers/STM32F1xx_HAL_Driver/Src/stm32f1xx_hal_tim_ex.o
 .debug_frame   0x0000000000003db0      0x118 Micrium/Software/uC-CPU/ARM-Cortex-M/ARMv7-M/cpu_c.o
 .debug_frame   0x0000000000003ec8      0x198 Micrium/Software/uC-CPU/cpu_core.o
 .debug_frame   0x0000000000004060       0x38 Micrium/Software/uCOS-II/Ports/ARM-Cortex-M/ARMv7-M/GNU/os_dbg.o
 .debug_frame   0x0000000000004098      0x1f0 Micrium/Software/uCOS-II/Ports/ARM-Cortex-M/ARMv7-M/os_cpu_c.o
 .debug_frame   0x0000000000004288      0x4dc Micrium/Software/uCOS-II/Source/os_core.o
 .debug_frame   0x0000000000004764      0x1f0 Micrium/Software/uCOS-II/Source/os_flag.o
 .debug_frame   0x0000000000004954      0x10c Micrium/Software/uCOS-II/Source/os_mem.o
 .debug_frame   0x0000000000004a60      0x19c Micrium/Software/uCOS-II/Source/os_q.o
 .debug_frame   0x0000000000004bfc      0x130 Micrium/Software/uCOS-II/Source/os_sem.o
 .debug_frame   0x0000000000004d2c      0x258 Micrium/Software/uCOS-II/Source/os_task.o
 .debug_frame   0x0000000000004f84       0xc8 Micrium/Software/uCOS-II/Source/os_time.o
 .debug_frame   0x000000000000504c      0x238 Micrium/Software/uCOS-II/Source/os_tmr.o
 .debug_frame   0x0000000000005284      0x130 Micrium/Template/OS2/app_hooks.o
 .debug_frame   0x00000000000053b4       0x20 c:/st/stm32cubeide_1.6.0/stm32cubeide/plugins/com.st.stm32cube.ide.mcu.externaltools.gnu-tools-for-stm32.9-2020-q2-update.win32_1.5.0.202011040924/tools/bin/../lib/gcc/arm-none-eabi/9.3.1/../../../../arm-none-eabi/lib/thumb/v7-m/nofp\libc_nano.a(lib_a-errno.o)
 .debug_frame   0x00000000000053d4       0x2c c:/st/stm32cubeide_1.6.0/stm32cubeide/plugins/com.st.stm32cube.ide.mcu.externaltools.gnu-tools-for-stm32.9-2020-q2-update.win32_1.5.0.202011040924/tools/bin/../lib/gcc/arm-none-eabi/9.3.1/../../../../arm-none-eabi/lib/thumb/v7-m/nofp\libc_nano.a(lib_a-init.o)
 .debug_frame   0x0000000000005400       0x20 c:/st/stm32cubeide_1.6.0/stm32cubeide/plugins/com.st.stm32cube.ide.mcu.externaltools.gnu-tools-for-stm32.9-2020-q2-update.win32_1.5.0.202011040924/tools/bin/../lib/gcc/arm-none-eabi/9.3.1/../../../../arm-none-eabi/lib/thumb/v7-m/nofp\libc_nano.a(lib_a-memset.o)
 .debug_frame   0x0000000000005420       0x3c c:/st/stm32cubeide_1.6.0/stm32cubeide/plugins/com.st.stm32cube.ide.mcu.externaltools.gnu-tools-for-stm32.9-2020-q2-update.win32_1.5.0.202011040924/tools/bin/../lib/gcc/arm-none-eabi/9.3.1/../../../../arm-none-eabi/lib/thumb/v7-m/nofp\libc_nano.a(lib_a-vsprintf.o)
 .debug_frame   0x000000000000545c       0x90 c:/st/stm32cubeide_1.6.0/stm32cubeide/plugins/com.st.stm32cube.ide.mcu.externaltools.gnu-tools-for-stm32.9-2020-q2-update.win32_1.5.0.202011040924/tools/bin/../lib/gcc/arm-none-eabi/9.3.1/../../../../arm-none-eabi/lib/thumb/v7-m/nofp\libc_nano.a(lib_a-nano-svfprintf.o)
 .debug_frame   0x00000000000054ec       0x60 c:/st/stm32cubeide_1.6.0/stm32cubeide/plugins/com.st.stm32cube.ide.mcu.externaltools.gnu-tools-for-stm32.9-2020-q2-update.win32_1.5.0.202011040924/tools/bin/../lib/gcc/arm-none-eabi/9.3.1/../../../../arm-none-eabi/lib/thumb/v7-m/nofp\libc_nano.a(lib_a-nano-vfprintf_i.o)
 .debug_frame   0x000000000000554c       0x28 c:/st/stm32cubeide_1.6.0/stm32cubeide/plugins/com.st.stm32cube.ide.mcu.externaltools.gnu-tools-for-stm32.9-2020-q2-update.win32_1.5.0.202011040924/tools/bin/../lib/gcc/arm-none-eabi/9.3.1/../../../../arm-none-eabi/lib/thumb/v7-m/nofp\libc_nano.a(lib_a-memchr-stub.o)
 .debug_frame   0x0000000000005574       0x28 c:/st/stm32cubeide_1.6.0/stm32cubeide/plugins/com.st.stm32cube.ide.mcu.externaltools.gnu-tools-for-stm32.9-2020-q2-update.win32_1.5.0.202011040924/tools/bin/../lib/gcc/arm-none-eabi/9.3.1/../../../../arm-none-eabi/lib/thumb/v7-m/nofp\libc_nano.a(lib_a-memcpy-stub.o)
 .debug_frame   0x000000000000559c       0x28 c:/st/stm32cubeide_1.6.0/stm32cubeide/plugins/com.st.stm32cube.ide.mcu.externaltools.gnu-tools-for-stm32.9-2020-q2-update.win32_1.5.0.202011040924/tools/bin/../lib/gcc/arm-none-eabi/9.3.1/../../../../arm-none-eabi/lib/thumb/v7-m/nofp\libc_nano.a(lib_a-memmove.o)
 .debug_frame   0x00000000000055c4       0x38 c:/st/stm32cubeide_1.6.0/stm32cubeide/plugins/com.st.stm32cube.ide.mcu.externaltools.gnu-tools-for-stm32.9-2020-q2-update.win32_1.5.0.202011040924/tools/bin/../lib/gcc/arm-none-eabi/9.3.1/../../../../arm-none-eabi/lib/thumb/v7-m/nofp\libc_nano.a(lib_a-nano-freer.o)
 .debug_frame   0x00000000000055fc       0x30 c:/st/stm32cubeide_1.6.0/stm32cubeide/plugins/com.st.stm32cube.ide.mcu.externaltools.gnu-tools-for-stm32.9-2020-q2-update.win32_1.5.0.202011040924/tools/bin/../lib/gcc/arm-none-eabi/9.3.1/../../../../arm-none-eabi/lib/thumb/v7-m/nofp\libc_nano.a(lib_a-nano-mallocr.o)
 .debug_frame   0x000000000000562c       0x3c c:/st/stm32cubeide_1.6.0/stm32cubeide/plugins/com.st.stm32cube.ide.mcu.externaltools.gnu-tools-for-stm32.9-2020-q2-update.win32_1.5.0.202011040924/tools/bin/../lib/gcc/arm-none-eabi/9.3.1/../../../../arm-none-eabi/lib/thumb/v7-m/nofp\libc_nano.a(lib_a-nano-reallocr.o)
 .debug_frame   0x0000000000005668       0x2c c:/st/stm32cubeide_1.6.0/stm32cubeide/plugins/com.st.stm32cube.ide.mcu.externaltools.gnu-tools-for-stm32.9-2020-q2-update.win32_1.5.0.202011040924/tools/bin/../lib/gcc/arm-none-eabi/9.3.1/../../../../arm-none-eabi/lib/thumb/v7-m/nofp\libc_nano.a(lib_a-sbrkr.o)
 .debug_frame   0x0000000000005694       0x30 c:/st/stm32cubeide_1.6.0/stm32cubeide/plugins/com.st.stm32cube.ide.mcu.externaltools.gnu-tools-for-stm32.9-2020-q2-update.win32_1.5.0.202011040924/tools/bin/../lib/gcc/arm-none-eabi/9.3.1/../../../../arm-none-eabi/lib/thumb/v7-m/nofp\libc_nano.a(lib_a-mlock.o)
 .debug_frame   0x00000000000056c4       0x20 c:/st/stm32cubeide_1.6.0/stm32cubeide/plugins/com.st.stm32cube.ide.mcu.externaltools.gnu-tools-for-stm32.9-2020-q2-update.win32_1.5.0.202011040924/tools/bin/../lib/gcc/arm-none-eabi/9.3.1/../../../../arm-none-eabi/lib/thumb/v7-m/nofp\libc_nano.a(lib_a-nano-msizer.o)
 .debug_frame   0x00000000000056e4       0x5c c:/st/stm32cubeide_1.6.0/stm32cubeide/plugins/com.st.stm32cube.ide.mcu.externaltools.gnu-tools-for-stm32.9-2020-q2-update.win32_1.5.0.202011040924/tools/bin/../lib/gcc/arm-none-eabi/9.3.1/../../../../arm-none-eabi/lib/thumb/v7-m/nofp\libc_nano.a(lib_a-reent.o)
 .debug_frame   0x0000000000005740       0xb0 c:/st/stm32cubeide_1.6.0/stm32cubeide/plugins/com.st.stm32cube.ide.mcu.externaltools.gnu-tools-for-stm32.9-2020-q2-update.win32_1.5.0.202011040924/tools/bin/../lib/gcc/arm-none-eabi/9.3.1/../../../../arm-none-eabi/lib/thumb/v7-m/nofp\libc_nano.a(lib_a-lock.o)
 .debug_frame   0x00000000000057f0       0x34 c:/st/stm32cubeide_1.6.0/stm32cubeide/plugins/com.st.stm32cube.ide.mcu.externaltools.gnu-tools-for-stm32.9-2020-q2-update.win32_1.5.0.202011040924/tools/bin/../lib/gcc/arm-none-eabi/9.3.1/../../../../arm-none-eabi/lib/thumb/v7-m/nofp\libm.a(lib_a-w_pow.o)
 .debug_frame   0x0000000000005824       0x64 c:/st/stm32cubeide_1.6.0/stm32cubeide/plugins/com.st.stm32cube.ide.mcu.externaltools.gnu-tools-for-stm32.9-2020-q2-update.win32_1.5.0.202011040924/tools/bin/../lib/gcc/arm-none-eabi/9.3.1/../../../../arm-none-eabi/lib/thumb/v7-m/nofp\libm.a(lib_a-e_pow.o)
 .debug_frame   0x0000000000005888       0x30 c:/st/stm32cubeide_1.6.0/stm32cubeide/plugins/com.st.stm32cube.ide.mcu.externaltools.gnu-tools-for-stm32.9-2020-q2-update.win32_1.5.0.202011040924/tools/bin/../lib/gcc/arm-none-eabi/9.3.1/../../../../arm-none-eabi/lib/thumb/v7-m/nofp\libm.a(lib_a-e_sqrt.o)
 .debug_frame   0x00000000000058b8       0x20 c:/st/stm32cubeide_1.6.0/stm32cubeide/plugins/com.st.stm32cube.ide.mcu.externaltools.gnu-tools-for-stm32.9-2020-q2-update.win32_1.5.0.202011040924/tools/bin/../lib/gcc/arm-none-eabi/9.3.1/../../../../arm-none-eabi/lib/thumb/v7-m/nofp\libm.a(lib_a-s_fabs.o)
 .debug_frame   0x00000000000058d8       0x20 c:/st/stm32cubeide_1.6.0/stm32cubeide/plugins/com.st.stm32cube.ide.mcu.externaltools.gnu-tools-for-stm32.9-2020-q2-update.win32_1.5.0.202011040924/tools/bin/../lib/gcc/arm-none-eabi/9.3.1/../../../../arm-none-eabi/lib/thumb/v7-m/nofp\libm.a(lib_a-s_finite.o)
 .debug_frame   0x00000000000058f8       0x20 c:/st/stm32cubeide_1.6.0/stm32cubeide/plugins/com.st.stm32cube.ide.mcu.externaltools.gnu-tools-for-stm32.9-2020-q2-update.win32_1.5.0.202011040924/tools/bin/../lib/gcc/arm-none-eabi/9.3.1/../../../../arm-none-eabi/lib/thumb/v7-m/nofp\libm.a(lib_a-s_nan.o)
 .debug_frame   0x0000000000005918       0x34 c:/st/stm32cubeide_1.6.0/stm32cubeide/plugins/com.st.stm32cube.ide.mcu.externaltools.gnu-tools-for-stm32.9-2020-q2-update.win32_1.5.0.202011040924/tools/bin/../lib/gcc/arm-none-eabi/9.3.1/../../../../arm-none-eabi/lib/thumb/v7-m/nofp\libm.a(lib_a-s_rint.o)
 .debug_frame   0x000000000000594c       0x30 c:/st/stm32cubeide_1.6.0/stm32cubeide/plugins/com.st.stm32cube.ide.mcu.externaltools.gnu-tools-for-stm32.9-2020-q2-update.win32_1.5.0.202011040924/tools/bin/../lib/gcc/arm-none-eabi/9.3.1/../../../../arm-none-eabi/lib/thumb/v7-m/nofp\libm.a(lib_a-s_scalbn.o)
 .debug_frame   0x000000000000597c       0x24 c:/st/stm32cubeide_1.6.0/stm32cubeide/plugins/com.st.stm32cube.ide.mcu.externaltools.gnu-tools-for-stm32.9-2020-q2-update.win32_1.5.0.202011040924/tools/bin/../lib/gcc/arm-none-eabi/9.3.1/thumb/v7-m/nofp\libgcc.a(_arm_mulsf3.o)
 .debug_frame   0x00000000000059a0       0xac c:/st/stm32cubeide_1.6.0/stm32cubeide/plugins/com.st.stm32cube.ide.mcu.externaltools.gnu-tools-for-stm32.9-2020-q2-update.win32_1.5.0.202011040924/tools/bin/../lib/gcc/arm-none-eabi/9.3.1/thumb/v7-m/nofp\libgcc.a(_arm_addsubdf3.o)
 .debug_frame   0x0000000000005a4c       0x50 c:/st/stm32cubeide_1.6.0/stm32cubeide/plugins/com.st.stm32cube.ide.mcu.externaltools.gnu-tools-for-stm32.9-2020-q2-update.win32_1.5.0.202011040924/tools/bin/../lib/gcc/arm-none-eabi/9.3.1/thumb/v7-m/nofp\libgcc.a(_arm_muldivdf3.o)
 .debug_frame   0x0000000000005a9c       0xc4 c:/st/stm32cubeide_1.6.0/stm32cubeide/plugins/com.st.stm32cube.ide.mcu.externaltools.gnu-tools-for-stm32.9-2020-q2-update.win32_1.5.0.202011040924/tools/bin/../lib/gcc/arm-none-eabi/9.3.1/thumb/v7-m/nofp\libgcc.a(_arm_cmpdf2.o)
 .debug_frame   0x0000000000005b60       0x20 c:/st/stm32cubeide_1.6.0/stm32cubeide/plugins/com.st.stm32cube.ide.mcu.externaltools.gnu-tools-for-stm32.9-2020-q2-update.win32_1.5.0.202011040924/tools/bin/../lib/gcc/arm-none-eabi/9.3.1/thumb/v7-m/nofp\libgcc.a(_arm_unorddf2.o)
 .debug_frame   0x0000000000005b80       0x24 c:/st/stm32cubeide_1.6.0/stm32cubeide/plugins/com.st.stm32cube.ide.mcu.externaltools.gnu-tools-for-stm32.9-2020-q2-update.win32_1.5.0.202011040924/tools/bin/../lib/gcc/arm-none-eabi/9.3.1/thumb/v7-m/nofp\libgcc.a(_arm_fixunsdfsi.o)
 .debug_frame   0x0000000000005ba4       0x24 c:/st/stm32cubeide_1.6.0/stm32cubeide/plugins/com.st.stm32cube.ide.mcu.externaltools.gnu-tools-for-stm32.9-2020-q2-update.win32_1.5.0.202011040924/tools/bin/../lib/gcc/arm-none-eabi/9.3.1/thumb/v7-m/nofp\libgcc.a(_arm_truncdfsf2.o)
 .debug_frame   0x0000000000005bc8       0x4c c:/st/stm32cubeide_1.6.0/stm32cubeide/plugins/com.st.stm32cube.ide.mcu.externaltools.gnu-tools-for-stm32.9-2020-q2-update.win32_1.5.0.202011040924/tools/bin/../lib/gcc/arm-none-eabi/9.3.1/thumb/v7-m/nofp\libgcc.a(_arm_addsubsf3.o)
 .debug_frame   0x0000000000005c14       0xc8 c:/st/stm32cubeide_1.6.0/stm32cubeide/plugins/com.st.stm32cube.ide.mcu.externaltools.gnu-tools-for-stm32.9-2020-q2-update.win32_1.5.0.202011040924/tools/bin/../lib/gcc/arm-none-eabi/9.3.1/thumb/v7-m/nofp\libgcc.a(_arm_cmpsf2.o)
 .debug_frame   0x0000000000005cdc       0x24 c:/st/stm32cubeide_1.6.0/stm32cubeide/plugins/com.st.stm32cube.ide.mcu.externaltools.gnu-tools-for-stm32.9-2020-q2-update.win32_1.5.0.202011040924/tools/bin/../lib/gcc/arm-none-eabi/9.3.1/thumb/v7-m/nofp\libgcc.a(_arm_fixsfsi.o)
